{
	"docs.chain.link/samples/DataFeeds/DataConsumerSVR-Seplia-BtcPrice.sol": {
		"SVRConsumer": {
			"abi": [
				{
					"inputs": [],
					"stateMutability": "nonpayable",
					"type": "constructor"
				},
				{
					"inputs": [],
					"name": "getChainlinkDataFeedLatestRoundData",
					"outputs": [
						{
							"internalType": "uint80",
							"name": "roundId",
							"type": "uint80"
						},
						{
							"internalType": "int256",
							"name": "answer",
							"type": "int256"
						},
						{
							"internalType": "uint256",
							"name": "startedAt",
							"type": "uint256"
						},
						{
							"internalType": "uint256",
							"name": "updatedAt",
							"type": "uint256"
						},
						{
							"internalType": "uint80",
							"name": "answeredInRound",
							"type": "uint80"
						}
					],
					"stateMutability": "view",
					"type": "function"
				},
				{
					"inputs": [
						{
							"internalType": "uint80",
							"name": "inRoundId",
							"type": "uint80"
						}
					],
					"name": "getHistoricalData",
					"outputs": [
						{
							"internalType": "uint80",
							"name": "roundId",
							"type": "uint80"
						},
						{
							"internalType": "int256",
							"name": "answer",
							"type": "int256"
						},
						{
							"internalType": "uint256",
							"name": "startedAt",
							"type": "uint256"
						},
						{
							"internalType": "uint256",
							"name": "updatedAt",
							"type": "uint256"
						},
						{
							"internalType": "uint80",
							"name": "answeredInRound",
							"type": "uint80"
						}
					],
					"stateMutability": "view",
					"type": "function"
				}
			],
			"devdoc": {
				"kind": "dev",
				"methods": {
					"getHistoricalData(uint80)": {
						"details": "A timestamp with zero value means the round is not complete and should not be used."
					}
				},
				"version": 1
			},
			"evm": {
				"assembly": "    /* \"docs.chain.link/samples/DataFeeds/DataConsumerSVR-Seplia-BtcPrice.sol\":1586:3293  contract SVRConsumer {... */\n  mstore(0x40, 0x80)\n    /* \"docs.chain.link/samples/DataFeeds/DataConsumerSVR-Seplia-BtcPrice.sol\":1812:1940  constructor() {... */\n  callvalue\n  dup1\n  iszero\n  tag_1\n  jumpi\n  revert(0x00, 0x00)\ntag_1:\n  pop\n    /* \"docs.chain.link/samples/DataFeeds/DataConsumerSVR-Seplia-BtcPrice.sol\":1881:1923  0x1b44F3514812d835EB1BDB0acB33d3fA3351Ee43 */\n  0x1b44f3514812d835eb1bdb0acb33d3fa3351ee43\n    /* \"docs.chain.link/samples/DataFeeds/DataConsumerSVR-Seplia-BtcPrice.sol\":1836:1843  svrFeed */\n  0x00\n  0x00\n    /* \"docs.chain.link/samples/DataFeeds/DataConsumerSVR-Seplia-BtcPrice.sol\":1836:1933  svrFeed = AggregatorV3Interface(... */\n  0x0100\n  exp\n  dup2\n  sload\n  dup2\n  0xffffffffffffffffffffffffffffffffffffffff\n  mul\n  not\n  and\n  swap1\n  dup4\n  0xffffffffffffffffffffffffffffffffffffffff\n  and\n  mul\n  or\n  swap1\n  sstore\n  pop\n    /* \"docs.chain.link/samples/DataFeeds/DataConsumerSVR-Seplia-BtcPrice.sol\":1586:3293  contract SVRConsumer {... */\n  dataSize(sub_0)\n  dup1\n  dataOffset(sub_0)\n  0x00\n  codecopy\n  0x00\n  return\nstop\n\nsub_0: assembly {\n        /* \"docs.chain.link/samples/DataFeeds/DataConsumerSVR-Seplia-BtcPrice.sol\":1586:3293  contract SVRConsumer {... */\n      mstore(0x40, 0x80)\n      callvalue\n      dup1\n      iszero\n      tag_1\n      jumpi\n      revert(0x00, 0x00)\n    tag_1:\n      pop\n      jumpi(tag_2, lt(calldatasize, 0x04))\n      shr(0xe0, calldataload(0x00))\n      dup1\n      0x2183c8ce\n      eq\n      tag_3\n      jumpi\n      dup1\n      0x650cfa3a\n      eq\n      tag_4\n      jumpi\n    tag_2:\n      revert(0x00, 0x00)\n        /* \"docs.chain.link/samples/DataFeeds/DataConsumerSVR-Seplia-BtcPrice.sol\":2882:3291  function getHistoricalData(uint80 inRoundId) public view returns (... */\n    tag_3:\n      tag_5\n      0x04\n      dup1\n      calldatasize\n      sub\n      dup2\n      add\n      swap1\n      tag_6\n      swap2\n      swap1\n      tag_7\n      jump\t// in\n    tag_6:\n      tag_8\n      jump\t// in\n    tag_5:\n      mload(0x40)\n      tag_9\n      swap6\n      swap5\n      swap4\n      swap3\n      swap2\n      swap1\n      tag_10\n      jump\t// in\n    tag_9:\n      mload(0x40)\n      dup1\n      swap2\n      sub\n      swap1\n      return\n        /* \"docs.chain.link/samples/DataFeeds/DataConsumerSVR-Seplia-BtcPrice.sol\":1996:2455  function getChainlinkDataFeedLatestRoundData() public view returns (... */\n    tag_4:\n      tag_11\n      tag_12\n      jump\t// in\n    tag_11:\n      mload(0x40)\n      tag_13\n      swap6\n      swap5\n      swap4\n      swap3\n      swap2\n      swap1\n      tag_10\n      jump\t// in\n    tag_13:\n      mload(0x40)\n      dup1\n      swap2\n      sub\n      swap1\n      return\n        /* \"docs.chain.link/samples/DataFeeds/DataConsumerSVR-Seplia-BtcPrice.sol\":2882:3291  function getHistoricalData(uint80 inRoundId) public view returns (... */\n    tag_8:\n        /* \"docs.chain.link/samples/DataFeeds/DataConsumerSVR-Seplia-BtcPrice.sol\":2957:2971  uint80 roundId */\n      0x00\n        /* \"docs.chain.link/samples/DataFeeds/DataConsumerSVR-Seplia-BtcPrice.sol\":2981:2994  int256 answer */\n      0x00\n        /* \"docs.chain.link/samples/DataFeeds/DataConsumerSVR-Seplia-BtcPrice.sol\":3004:3021  uint256 startedAt */\n      0x00\n        /* \"docs.chain.link/samples/DataFeeds/DataConsumerSVR-Seplia-BtcPrice.sol\":3031:3048  uint256 updatedAt */\n      0x00\n        /* \"docs.chain.link/samples/DataFeeds/DataConsumerSVR-Seplia-BtcPrice.sol\":3058:3080  uint80 answeredInRound */\n      0x00\n        /* \"docs.chain.link/samples/DataFeeds/DataConsumerSVR-Seplia-BtcPrice.sol\":3253:3260  svrFeed */\n      0x00\n      0x00\n      swap1\n      sload\n      swap1\n      0x0100\n      exp\n      swap1\n      div\n      0xffffffffffffffffffffffffffffffffffffffff\n      and\n        /* \"docs.chain.link/samples/DataFeeds/DataConsumerSVR-Seplia-BtcPrice.sol\":3253:3273  svrFeed.getRoundData */\n      0xffffffffffffffffffffffffffffffffffffffff\n      and\n      0x9a6fc8f5\n        /* \"docs.chain.link/samples/DataFeeds/DataConsumerSVR-Seplia-BtcPrice.sol\":3274:3283  inRoundId */\n      dup8\n        /* \"docs.chain.link/samples/DataFeeds/DataConsumerSVR-Seplia-BtcPrice.sol\":3253:3284  svrFeed.getRoundData(inRoundId) */\n      mload(0x40)\n      dup3\n      0xffffffff\n      and\n      0xe0\n      shl\n      dup2\n      mstore\n      0x04\n      add\n      tag_15\n      swap2\n      swap1\n      tag_16\n      jump\t// in\n    tag_15:\n      0xa0\n      mload(0x40)\n      dup1\n      dup4\n      sub\n      dup2\n      dup7\n      gas\n      staticcall\n      iszero\n      dup1\n      iszero\n      tag_18\n      jumpi\n      returndatacopy(0x00, 0x00, returndatasize)\n      revert(0x00, returndatasize)\n    tag_18:\n      pop\n      pop\n      pop\n      pop\n      mload(0x40)\n      returndatasize\n      not(0x1f)\n      0x1f\n      dup3\n      add\n      and\n      dup3\n      add\n      dup1\n      0x40\n      mstore\n      pop\n      dup2\n      add\n      swap1\n      tag_19\n      swap2\n      swap1\n      tag_20\n      jump\t// in\n    tag_19:\n        /* \"docs.chain.link/samples/DataFeeds/DataConsumerSVR-Seplia-BtcPrice.sol\":3124:3284  (... */\n      dup1\n      swap6\n      pop\n      dup2\n      swap7\n      pop\n      dup3\n      swap8\n      pop\n      dup4\n      swap9\n      pop\n      dup5\n      swap10\n      pop\n      pop\n      pop\n      pop\n      pop\n      pop\n        /* \"docs.chain.link/samples/DataFeeds/DataConsumerSVR-Seplia-BtcPrice.sol\":2882:3291  function getHistoricalData(uint80 inRoundId) public view returns (... */\n      swap2\n      swap4\n      swap6\n      swap1\n      swap3\n      swap5\n      pop\n      jump\t// out\n        /* \"docs.chain.link/samples/DataFeeds/DataConsumerSVR-Seplia-BtcPrice.sol\":1996:2455  function getChainlinkDataFeedLatestRoundData() public view returns (... */\n    tag_12:\n        /* \"docs.chain.link/samples/DataFeeds/DataConsumerSVR-Seplia-BtcPrice.sol\":2073:2087  uint80 roundId */\n      0x00\n        /* \"docs.chain.link/samples/DataFeeds/DataConsumerSVR-Seplia-BtcPrice.sol\":2097:2110  int256 answer */\n      0x00\n        /* \"docs.chain.link/samples/DataFeeds/DataConsumerSVR-Seplia-BtcPrice.sol\":2120:2137  uint256 startedAt */\n      0x00\n        /* \"docs.chain.link/samples/DataFeeds/DataConsumerSVR-Seplia-BtcPrice.sol\":2147:2164  uint256 updatedAt */\n      0x00\n        /* \"docs.chain.link/samples/DataFeeds/DataConsumerSVR-Seplia-BtcPrice.sol\":2174:2196  uint80 answeredInRound */\n      0x00\n        /* \"docs.chain.link/samples/DataFeeds/DataConsumerSVR-Seplia-BtcPrice.sol\":2342:2349  svrFeed */\n      0x00\n      0x00\n      swap1\n      sload\n      swap1\n      0x0100\n      exp\n      swap1\n      div\n      0xffffffffffffffffffffffffffffffffffffffff\n      and\n        /* \"docs.chain.link/samples/DataFeeds/DataConsumerSVR-Seplia-BtcPrice.sol\":2342:2365  svrFeed.latestRoundData */\n      0xffffffffffffffffffffffffffffffffffffffff\n      and\n      0xfeaf968c\n        /* \"docs.chain.link/samples/DataFeeds/DataConsumerSVR-Seplia-BtcPrice.sol\":2342:2367  svrFeed.latestRoundData() */\n      mload(0x40)\n      dup2\n      0xffffffff\n      and\n      0xe0\n      shl\n      dup2\n      mstore\n      0x04\n      add\n      0xa0\n      mload(0x40)\n      dup1\n      dup4\n      sub\n      dup2\n      dup7\n      gas\n      staticcall\n      iszero\n      dup1\n      iszero\n      tag_23\n      jumpi\n      returndatacopy(0x00, 0x00, returndatasize)\n      revert(0x00, returndatasize)\n    tag_23:\n      pop\n      pop\n      pop\n      pop\n      mload(0x40)\n      returndatasize\n      not(0x1f)\n      0x1f\n      dup3\n      add\n      and\n      dup3\n      add\n      dup1\n      0x40\n      mstore\n      pop\n      dup2\n      add\n      swap1\n      tag_24\n      swap2\n      swap1\n      tag_20\n      jump\t// in\n    tag_24:\n        /* \"docs.chain.link/samples/DataFeeds/DataConsumerSVR-Seplia-BtcPrice.sol\":2213:2367  (... */\n      dup1\n      swap6\n      pop\n      dup2\n      swap7\n      pop\n      dup3\n      swap8\n      pop\n      dup4\n      swap9\n      pop\n      dup5\n      swap10\n      pop\n      pop\n      pop\n      pop\n      pop\n      pop\n        /* \"docs.chain.link/samples/DataFeeds/DataConsumerSVR-Seplia-BtcPrice.sol\":1996:2455  function getChainlinkDataFeedLatestRoundData() public view returns (... */\n      swap1\n      swap2\n      swap3\n      swap4\n      swap5\n      jump\t// out\n        /* \"#utility.yul\":88:205   */\n    tag_26:\n        /* \"#utility.yul\":197:198   */\n      0x00\n        /* \"#utility.yul\":194:195   */\n      0x00\n        /* \"#utility.yul\":187:199   */\n      revert\n        /* \"#utility.yul\":334:439   */\n    tag_28:\n        /* \"#utility.yul\":370:377   */\n      0x00\n        /* \"#utility.yul\":410:432   */\n      0xffffffffffffffffffff\n        /* \"#utility.yul\":403:408   */\n      dup3\n        /* \"#utility.yul\":399:433   */\n      and\n        /* \"#utility.yul\":388:433   */\n      swap1\n      pop\n        /* \"#utility.yul\":334:439   */\n      swap2\n      swap1\n      pop\n      jump\t// out\n        /* \"#utility.yul\":445:565   */\n    tag_29:\n        /* \"#utility.yul\":517:540   */\n      tag_47\n        /* \"#utility.yul\":534:539   */\n      dup2\n        /* \"#utility.yul\":517:540   */\n      tag_28\n      jump\t// in\n    tag_47:\n        /* \"#utility.yul\":510:515   */\n      dup2\n        /* \"#utility.yul\":507:541   */\n      eq\n        /* \"#utility.yul\":497:559   */\n      tag_48\n      jumpi\n        /* \"#utility.yul\":555:556   */\n      0x00\n        /* \"#utility.yul\":552:553   */\n      0x00\n        /* \"#utility.yul\":545:557   */\n      revert\n        /* \"#utility.yul\":497:559   */\n    tag_48:\n        /* \"#utility.yul\":445:565   */\n      pop\n      jump\t// out\n        /* \"#utility.yul\":571:708   */\n    tag_30:\n        /* \"#utility.yul\":616:621   */\n      0x00\n        /* \"#utility.yul\":654:660   */\n      dup2\n        /* \"#utility.yul\":641:661   */\n      calldataload\n        /* \"#utility.yul\":632:661   */\n      swap1\n      pop\n        /* \"#utility.yul\":670:702   */\n      tag_50\n        /* \"#utility.yul\":696:701   */\n      dup2\n        /* \"#utility.yul\":670:702   */\n      tag_29\n      jump\t// in\n    tag_50:\n        /* \"#utility.yul\":571:708   */\n      swap3\n      swap2\n      pop\n      pop\n      jump\t// out\n        /* \"#utility.yul\":714:1041   */\n    tag_7:\n        /* \"#utility.yul\":772:778   */\n      0x00\n        /* \"#utility.yul\":821:823   */\n      0x20\n        /* \"#utility.yul\":809:818   */\n      dup3\n        /* \"#utility.yul\":800:807   */\n      dup5\n        /* \"#utility.yul\":796:819   */\n      sub\n        /* \"#utility.yul\":792:824   */\n      slt\n        /* \"#utility.yul\":789:908   */\n      iszero\n      tag_52\n      jumpi\n        /* \"#utility.yul\":827:906   */\n      tag_53\n      tag_26\n      jump\t// in\n    tag_53:\n        /* \"#utility.yul\":789:908   */\n    tag_52:\n        /* \"#utility.yul\":947:948   */\n      0x00\n        /* \"#utility.yul\":972:1024   */\n      tag_54\n        /* \"#utility.yul\":1016:1023   */\n      dup5\n        /* \"#utility.yul\":1007:1013   */\n      dup3\n        /* \"#utility.yul\":996:1005   */\n      dup6\n        /* \"#utility.yul\":992:1014   */\n      add\n        /* \"#utility.yul\":972:1024   */\n      tag_30\n      jump\t// in\n    tag_54:\n        /* \"#utility.yul\":962:1024   */\n      swap2\n      pop\n        /* \"#utility.yul\":918:1034   */\n      pop\n        /* \"#utility.yul\":714:1041   */\n      swap3\n      swap2\n      pop\n      pop\n      jump\t// out\n        /* \"#utility.yul\":1047:1162   */\n    tag_31:\n        /* \"#utility.yul\":1132:1155   */\n      tag_56\n        /* \"#utility.yul\":1149:1154   */\n      dup2\n        /* \"#utility.yul\":1132:1155   */\n      tag_28\n      jump\t// in\n    tag_56:\n        /* \"#utility.yul\":1127:1130   */\n      dup3\n        /* \"#utility.yul\":1120:1156   */\n      mstore\n        /* \"#utility.yul\":1047:1162   */\n      pop\n      pop\n      jump\t// out\n        /* \"#utility.yul\":1168:1244   */\n    tag_32:\n        /* \"#utility.yul\":1204:1211   */\n      0x00\n        /* \"#utility.yul\":1233:1238   */\n      dup2\n        /* \"#utility.yul\":1222:1238   */\n      swap1\n      pop\n        /* \"#utility.yul\":1168:1244   */\n      swap2\n      swap1\n      pop\n      jump\t// out\n        /* \"#utility.yul\":1250:1365   */\n    tag_33:\n        /* \"#utility.yul\":1335:1358   */\n      tag_59\n        /* \"#utility.yul\":1352:1357   */\n      dup2\n        /* \"#utility.yul\":1335:1358   */\n      tag_32\n      jump\t// in\n    tag_59:\n        /* \"#utility.yul\":1330:1333   */\n      dup3\n        /* \"#utility.yul\":1323:1359   */\n      mstore\n        /* \"#utility.yul\":1250:1365   */\n      pop\n      pop\n      jump\t// out\n        /* \"#utility.yul\":1371:1448   */\n    tag_34:\n        /* \"#utility.yul\":1408:1415   */\n      0x00\n        /* \"#utility.yul\":1437:1442   */\n      dup2\n        /* \"#utility.yul\":1426:1442   */\n      swap1\n      pop\n        /* \"#utility.yul\":1371:1448   */\n      swap2\n      swap1\n      pop\n      jump\t// out\n        /* \"#utility.yul\":1454:1572   */\n    tag_35:\n        /* \"#utility.yul\":1541:1565   */\n      tag_62\n        /* \"#utility.yul\":1559:1564   */\n      dup2\n        /* \"#utility.yul\":1541:1565   */\n      tag_34\n      jump\t// in\n    tag_62:\n        /* \"#utility.yul\":1536:1539   */\n      dup3\n        /* \"#utility.yul\":1529:1566   */\n      mstore\n        /* \"#utility.yul\":1454:1572   */\n      pop\n      pop\n      jump\t// out\n        /* \"#utility.yul\":1578:2230   */\n    tag_10:\n        /* \"#utility.yul\":1777:1781   */\n      0x00\n        /* \"#utility.yul\":1815:1818   */\n      0xa0\n        /* \"#utility.yul\":1804:1813   */\n      dup3\n        /* \"#utility.yul\":1800:1819   */\n      add\n        /* \"#utility.yul\":1792:1819   */\n      swap1\n      pop\n        /* \"#utility.yul\":1829:1898   */\n      tag_64\n        /* \"#utility.yul\":1895:1896   */\n      0x00\n        /* \"#utility.yul\":1884:1893   */\n      dup4\n        /* \"#utility.yul\":1880:1897   */\n      add\n        /* \"#utility.yul\":1871:1877   */\n      dup9\n        /* \"#utility.yul\":1829:1898   */\n      tag_31\n      jump\t// in\n    tag_64:\n        /* \"#utility.yul\":1908:1978   */\n      tag_65\n        /* \"#utility.yul\":1974:1976   */\n      0x20\n        /* \"#utility.yul\":1963:1972   */\n      dup4\n        /* \"#utility.yul\":1959:1977   */\n      add\n        /* \"#utility.yul\":1950:1956   */\n      dup8\n        /* \"#utility.yul\":1908:1978   */\n      tag_33\n      jump\t// in\n    tag_65:\n        /* \"#utility.yul\":1988:2060   */\n      tag_66\n        /* \"#utility.yul\":2056:2058   */\n      0x40\n        /* \"#utility.yul\":2045:2054   */\n      dup4\n        /* \"#utility.yul\":2041:2059   */\n      add\n        /* \"#utility.yul\":2032:2038   */\n      dup7\n        /* \"#utility.yul\":1988:2060   */\n      tag_35\n      jump\t// in\n    tag_66:\n        /* \"#utility.yul\":2070:2142   */\n      tag_67\n        /* \"#utility.yul\":2138:2140   */\n      0x60\n        /* \"#utility.yul\":2127:2136   */\n      dup4\n        /* \"#utility.yul\":2123:2141   */\n      add\n        /* \"#utility.yul\":2114:2120   */\n      dup6\n        /* \"#utility.yul\":2070:2142   */\n      tag_35\n      jump\t// in\n    tag_67:\n        /* \"#utility.yul\":2152:2223   */\n      tag_68\n        /* \"#utility.yul\":2218:2221   */\n      0x80\n        /* \"#utility.yul\":2207:2216   */\n      dup4\n        /* \"#utility.yul\":2203:2222   */\n      add\n        /* \"#utility.yul\":2194:2200   */\n      dup5\n        /* \"#utility.yul\":2152:2223   */\n      tag_31\n      jump\t// in\n    tag_68:\n        /* \"#utility.yul\":1578:2230   */\n      swap7\n      swap6\n      pop\n      pop\n      pop\n      pop\n      pop\n      pop\n      jump\t// out\n        /* \"#utility.yul\":2236:2454   */\n    tag_16:\n        /* \"#utility.yul\":2327:2331   */\n      0x00\n        /* \"#utility.yul\":2365:2367   */\n      0x20\n        /* \"#utility.yul\":2354:2363   */\n      dup3\n        /* \"#utility.yul\":2350:2368   */\n      add\n        /* \"#utility.yul\":2342:2368   */\n      swap1\n      pop\n        /* \"#utility.yul\":2378:2447   */\n      tag_70\n        /* \"#utility.yul\":2444:2445   */\n      0x00\n        /* \"#utility.yul\":2433:2442   */\n      dup4\n        /* \"#utility.yul\":2429:2446   */\n      add\n        /* \"#utility.yul\":2420:2426   */\n      dup5\n        /* \"#utility.yul\":2378:2447   */\n      tag_31\n      jump\t// in\n    tag_70:\n        /* \"#utility.yul\":2236:2454   */\n      swap3\n      swap2\n      pop\n      pop\n      jump\t// out\n        /* \"#utility.yul\":2460:2601   */\n    tag_36:\n        /* \"#utility.yul\":2516:2521   */\n      0x00\n        /* \"#utility.yul\":2547:2553   */\n      dup2\n        /* \"#utility.yul\":2541:2554   */\n      mload\n        /* \"#utility.yul\":2532:2554   */\n      swap1\n      pop\n        /* \"#utility.yul\":2563:2595   */\n      tag_72\n        /* \"#utility.yul\":2589:2594   */\n      dup2\n        /* \"#utility.yul\":2563:2595   */\n      tag_29\n      jump\t// in\n    tag_72:\n        /* \"#utility.yul\":2460:2601   */\n      swap3\n      swap2\n      pop\n      pop\n      jump\t// out\n        /* \"#utility.yul\":2607:2727   */\n    tag_37:\n        /* \"#utility.yul\":2679:2702   */\n      tag_74\n        /* \"#utility.yul\":2696:2701   */\n      dup2\n        /* \"#utility.yul\":2679:2702   */\n      tag_32\n      jump\t// in\n    tag_74:\n        /* \"#utility.yul\":2672:2677   */\n      dup2\n        /* \"#utility.yul\":2669:2703   */\n      eq\n        /* \"#utility.yul\":2659:2721   */\n      tag_75\n      jumpi\n        /* \"#utility.yul\":2717:2718   */\n      0x00\n        /* \"#utility.yul\":2714:2715   */\n      0x00\n        /* \"#utility.yul\":2707:2719   */\n      revert\n        /* \"#utility.yul\":2659:2721   */\n    tag_75:\n        /* \"#utility.yul\":2607:2727   */\n      pop\n      jump\t// out\n        /* \"#utility.yul\":2733:2874   */\n    tag_38:\n        /* \"#utility.yul\":2789:2794   */\n      0x00\n        /* \"#utility.yul\":2820:2826   */\n      dup2\n        /* \"#utility.yul\":2814:2827   */\n      mload\n        /* \"#utility.yul\":2805:2827   */\n      swap1\n      pop\n        /* \"#utility.yul\":2836:2868   */\n      tag_77\n        /* \"#utility.yul\":2862:2867   */\n      dup2\n        /* \"#utility.yul\":2836:2868   */\n      tag_37\n      jump\t// in\n    tag_77:\n        /* \"#utility.yul\":2733:2874   */\n      swap3\n      swap2\n      pop\n      pop\n      jump\t// out\n        /* \"#utility.yul\":2880:3002   */\n    tag_39:\n        /* \"#utility.yul\":2953:2977   */\n      tag_79\n        /* \"#utility.yul\":2971:2976   */\n      dup2\n        /* \"#utility.yul\":2953:2977   */\n      tag_34\n      jump\t// in\n    tag_79:\n        /* \"#utility.yul\":2946:2951   */\n      dup2\n        /* \"#utility.yul\":2943:2978   */\n      eq\n        /* \"#utility.yul\":2933:2996   */\n      tag_80\n      jumpi\n        /* \"#utility.yul\":2992:2993   */\n      0x00\n        /* \"#utility.yul\":2989:2990   */\n      0x00\n        /* \"#utility.yul\":2982:2994   */\n      revert\n        /* \"#utility.yul\":2933:2996   */\n    tag_80:\n        /* \"#utility.yul\":2880:3002   */\n      pop\n      jump\t// out\n        /* \"#utility.yul\":3008:3151   */\n    tag_40:\n        /* \"#utility.yul\":3065:3070   */\n      0x00\n        /* \"#utility.yul\":3096:3102   */\n      dup2\n        /* \"#utility.yul\":3090:3103   */\n      mload\n        /* \"#utility.yul\":3081:3103   */\n      swap1\n      pop\n        /* \"#utility.yul\":3112:3145   */\n      tag_82\n        /* \"#utility.yul\":3139:3144   */\n      dup2\n        /* \"#utility.yul\":3112:3145   */\n      tag_39\n      jump\t// in\n    tag_82:\n        /* \"#utility.yul\":3008:3151   */\n      swap3\n      swap2\n      pop\n      pop\n      jump\t// out\n        /* \"#utility.yul\":3157:4128   */\n    tag_20:\n        /* \"#utility.yul\":3260:3266   */\n      0x00\n        /* \"#utility.yul\":3268:3274   */\n      0x00\n        /* \"#utility.yul\":3276:3282   */\n      0x00\n        /* \"#utility.yul\":3284:3290   */\n      0x00\n        /* \"#utility.yul\":3292:3298   */\n      0x00\n        /* \"#utility.yul\":3341:3344   */\n      0xa0\n        /* \"#utility.yul\":3329:3338   */\n      dup7\n        /* \"#utility.yul\":3320:3327   */\n      dup9\n        /* \"#utility.yul\":3316:3339   */\n      sub\n        /* \"#utility.yul\":3312:3345   */\n      slt\n        /* \"#utility.yul\":3309:3429   */\n      iszero\n      tag_84\n      jumpi\n        /* \"#utility.yul\":3348:3427   */\n      tag_85\n      tag_26\n      jump\t// in\n    tag_85:\n        /* \"#utility.yul\":3309:3429   */\n    tag_84:\n        /* \"#utility.yul\":3468:3469   */\n      0x00\n        /* \"#utility.yul\":3493:3556   */\n      tag_86\n        /* \"#utility.yul\":3548:3555   */\n      dup9\n        /* \"#utility.yul\":3539:3545   */\n      dup3\n        /* \"#utility.yul\":3528:3537   */\n      dup10\n        /* \"#utility.yul\":3524:3546   */\n      add\n        /* \"#utility.yul\":3493:3556   */\n      tag_36\n      jump\t// in\n    tag_86:\n        /* \"#utility.yul\":3483:3556   */\n      swap6\n      pop\n        /* \"#utility.yul\":3439:3566   */\n      pop\n        /* \"#utility.yul\":3605:3607   */\n      0x20\n        /* \"#utility.yul\":3631:3694   */\n      tag_87\n        /* \"#utility.yul\":3686:3693   */\n      dup9\n        /* \"#utility.yul\":3677:3683   */\n      dup3\n        /* \"#utility.yul\":3666:3675   */\n      dup10\n        /* \"#utility.yul\":3662:3684   */\n      add\n        /* \"#utility.yul\":3631:3694   */\n      tag_38\n      jump\t// in\n    tag_87:\n        /* \"#utility.yul\":3621:3694   */\n      swap5\n      pop\n        /* \"#utility.yul\":3576:3704   */\n      pop\n        /* \"#utility.yul\":3743:3745   */\n      0x40\n        /* \"#utility.yul\":3769:3833   */\n      tag_88\n        /* \"#utility.yul\":3825:3832   */\n      dup9\n        /* \"#utility.yul\":3816:3822   */\n      dup3\n        /* \"#utility.yul\":3805:3814   */\n      dup10\n        /* \"#utility.yul\":3801:3823   */\n      add\n        /* \"#utility.yul\":3769:3833   */\n      tag_40\n      jump\t// in\n    tag_88:\n        /* \"#utility.yul\":3759:3833   */\n      swap4\n      pop\n        /* \"#utility.yul\":3714:3843   */\n      pop\n        /* \"#utility.yul\":3882:3884   */\n      0x60\n        /* \"#utility.yul\":3908:3972   */\n      tag_89\n        /* \"#utility.yul\":3964:3971   */\n      dup9\n        /* \"#utility.yul\":3955:3961   */\n      dup3\n        /* \"#utility.yul\":3944:3953   */\n      dup10\n        /* \"#utility.yul\":3940:3962   */\n      add\n        /* \"#utility.yul\":3908:3972   */\n      tag_40\n      jump\t// in\n    tag_89:\n        /* \"#utility.yul\":3898:3972   */\n      swap3\n      pop\n        /* \"#utility.yul\":3853:3982   */\n      pop\n        /* \"#utility.yul\":4021:4024   */\n      0x80\n        /* \"#utility.yul\":4048:4111   */\n      tag_90\n        /* \"#utility.yul\":4103:4110   */\n      dup9\n        /* \"#utility.yul\":4094:4100   */\n      dup3\n        /* \"#utility.yul\":4083:4092   */\n      dup10\n        /* \"#utility.yul\":4079:4101   */\n      add\n        /* \"#utility.yul\":4048:4111   */\n      tag_36\n      jump\t// in\n    tag_90:\n        /* \"#utility.yul\":4038:4111   */\n      swap2\n      pop\n        /* \"#utility.yul\":3992:4121   */\n      pop\n        /* \"#utility.yul\":3157:4128   */\n      swap3\n      swap6\n      pop\n      swap3\n      swap6\n      swap1\n      swap4\n      pop\n      jump\t// out\n\n    auxdata: 0xa2646970667358221220df4bc14ea2f4110deb3f5a826363b914b995151c6e8ee256d5e6a6608d66537964736f6c634300081e0033\n}\n",
				"bytecode": {
					"linkReferences": {},
					"object": "6080604052348015600e575f5ffd5b50731b44f3514812d835eb1bdb0acb33d3fa3351ee435f5f6101000a81548173ffffffffffffffffffffffffffffffffffffffff021916908373ffffffffffffffffffffffffffffffffffffffff1602179055506104218061006f5f395ff3fe608060405234801561000f575f5ffd5b5060043610610034575f3560e01c80632183c8ce14610038578063650cfa3a1461006c575b5f5ffd5b610052600480360381019061004d9190610238565b61008e565b6040516100639594939291906102a2565b60405180910390f35b610074610148565b6040516100859594939291906102a2565b60405180910390f35b5f5f5f5f5f5f5f9054906101000a900473ffffffffffffffffffffffffffffffffffffffff1673ffffffffffffffffffffffffffffffffffffffff16639a6fc8f5876040518263ffffffff1660e01b81526004016100ec91906102f3565b60a060405180830381865afa158015610107573d5f5f3e3d5ffd5b505050506040513d601f19601f8201168201806040525081019061012b9190610374565b809550819650829750839850849950505050505091939590929450565b5f5f5f5f5f5f5f9054906101000a900473ffffffffffffffffffffffffffffffffffffffff1673ffffffffffffffffffffffffffffffffffffffff1663feaf968c6040518163ffffffff1660e01b815260040160a060405180830381865afa1580156101b6573d5f5f3e3d5ffd5b505050506040513d601f19601f820116820180604052508101906101da9190610374565b80955081965082975083985084995050505050509091929394565b5f5ffd5b5f69ffffffffffffffffffff82169050919050565b610217816101f9565b8114610221575f5ffd5b50565b5f813590506102328161020e565b92915050565b5f6020828403121561024d5761024c6101f5565b5b5f61025a84828501610224565b91505092915050565b61026c816101f9565b82525050565b5f819050919050565b61028481610272565b82525050565b5f819050919050565b61029c8161028a565b82525050565b5f60a0820190506102b55f830188610263565b6102c2602083018761027b565b6102cf6040830186610293565b6102dc6060830185610293565b6102e96080830184610263565b9695505050505050565b5f6020820190506103065f830184610263565b92915050565b5f8151905061031a8161020e565b92915050565b61032981610272565b8114610333575f5ffd5b50565b5f8151905061034481610320565b92915050565b6103538161028a565b811461035d575f5ffd5b50565b5f8151905061036e8161034a565b92915050565b5f5f5f5f5f60a0868803121561038d5761038c6101f5565b5b5f61039a8882890161030c565b95505060206103ab88828901610336565b94505060406103bc88828901610360565b93505060606103cd88828901610360565b92505060806103de8882890161030c565b915050929550929590935056fea2646970667358221220df4bc14ea2f4110deb3f5a826363b914b995151c6e8ee256d5e6a6608d66537964736f6c634300081e0033",
					"opcodes": "PUSH1 0x80 PUSH1 0x40 MSTORE CALLVALUE DUP1 ISZERO PUSH1 0xE JUMPI PUSH0 PUSH0 REVERT JUMPDEST POP PUSH20 0x1B44F3514812D835EB1BDB0ACB33D3FA3351EE43 PUSH0 PUSH0 PUSH2 0x100 EXP DUP2 SLOAD DUP2 PUSH20 0xFFFFFFFFFFFFFFFFFFFFFFFFFFFFFFFFFFFFFFFF MUL NOT AND SWAP1 DUP4 PUSH20 0xFFFFFFFFFFFFFFFFFFFFFFFFFFFFFFFFFFFFFFFF AND MUL OR SWAP1 SSTORE POP PUSH2 0x421 DUP1 PUSH2 0x6F PUSH0 CODECOPY PUSH0 RETURN INVALID PUSH1 0x80 PUSH1 0x40 MSTORE CALLVALUE DUP1 ISZERO PUSH2 0xF JUMPI PUSH0 PUSH0 REVERT JUMPDEST POP PUSH1 0x4 CALLDATASIZE LT PUSH2 0x34 JUMPI PUSH0 CALLDATALOAD PUSH1 0xE0 SHR DUP1 PUSH4 0x2183C8CE EQ PUSH2 0x38 JUMPI DUP1 PUSH4 0x650CFA3A EQ PUSH2 0x6C JUMPI JUMPDEST PUSH0 PUSH0 REVERT JUMPDEST PUSH2 0x52 PUSH1 0x4 DUP1 CALLDATASIZE SUB DUP2 ADD SWAP1 PUSH2 0x4D SWAP2 SWAP1 PUSH2 0x238 JUMP JUMPDEST PUSH2 0x8E JUMP JUMPDEST PUSH1 0x40 MLOAD PUSH2 0x63 SWAP6 SWAP5 SWAP4 SWAP3 SWAP2 SWAP1 PUSH2 0x2A2 JUMP JUMPDEST PUSH1 0x40 MLOAD DUP1 SWAP2 SUB SWAP1 RETURN JUMPDEST PUSH2 0x74 PUSH2 0x148 JUMP JUMPDEST PUSH1 0x40 MLOAD PUSH2 0x85 SWAP6 SWAP5 SWAP4 SWAP3 SWAP2 SWAP1 PUSH2 0x2A2 JUMP JUMPDEST PUSH1 0x40 MLOAD DUP1 SWAP2 SUB SWAP1 RETURN JUMPDEST PUSH0 PUSH0 PUSH0 PUSH0 PUSH0 PUSH0 PUSH0 SWAP1 SLOAD SWAP1 PUSH2 0x100 EXP SWAP1 DIV PUSH20 0xFFFFFFFFFFFFFFFFFFFFFFFFFFFFFFFFFFFFFFFF AND PUSH20 0xFFFFFFFFFFFFFFFFFFFFFFFFFFFFFFFFFFFFFFFF AND PUSH4 0x9A6FC8F5 DUP8 PUSH1 0x40 MLOAD DUP3 PUSH4 0xFFFFFFFF AND PUSH1 0xE0 SHL DUP2 MSTORE PUSH1 0x4 ADD PUSH2 0xEC SWAP2 SWAP1 PUSH2 0x2F3 JUMP JUMPDEST PUSH1 0xA0 PUSH1 0x40 MLOAD DUP1 DUP4 SUB DUP2 DUP7 GAS STATICCALL ISZERO DUP1 ISZERO PUSH2 0x107 JUMPI RETURNDATASIZE PUSH0 PUSH0 RETURNDATACOPY RETURNDATASIZE PUSH0 REVERT JUMPDEST POP POP POP POP PUSH1 0x40 MLOAD RETURNDATASIZE PUSH1 0x1F NOT PUSH1 0x1F DUP3 ADD AND DUP3 ADD DUP1 PUSH1 0x40 MSTORE POP DUP2 ADD SWAP1 PUSH2 0x12B SWAP2 SWAP1 PUSH2 0x374 JUMP JUMPDEST DUP1 SWAP6 POP DUP2 SWAP7 POP DUP3 SWAP8 POP DUP4 SWAP9 POP DUP5 SWAP10 POP POP POP POP POP POP SWAP2 SWAP4 SWAP6 SWAP1 SWAP3 SWAP5 POP JUMP JUMPDEST PUSH0 PUSH0 PUSH0 PUSH0 PUSH0 PUSH0 PUSH0 SWAP1 SLOAD SWAP1 PUSH2 0x100 EXP SWAP1 DIV PUSH20 0xFFFFFFFFFFFFFFFFFFFFFFFFFFFFFFFFFFFFFFFF AND PUSH20 0xFFFFFFFFFFFFFFFFFFFFFFFFFFFFFFFFFFFFFFFF AND PUSH4 0xFEAF968C PUSH1 0x40 MLOAD DUP2 PUSH4 0xFFFFFFFF AND PUSH1 0xE0 SHL DUP2 MSTORE PUSH1 0x4 ADD PUSH1 0xA0 PUSH1 0x40 MLOAD DUP1 DUP4 SUB DUP2 DUP7 GAS STATICCALL ISZERO DUP1 ISZERO PUSH2 0x1B6 JUMPI RETURNDATASIZE PUSH0 PUSH0 RETURNDATACOPY RETURNDATASIZE PUSH0 REVERT JUMPDEST POP POP POP POP PUSH1 0x40 MLOAD RETURNDATASIZE PUSH1 0x1F NOT PUSH1 0x1F DUP3 ADD AND DUP3 ADD DUP1 PUSH1 0x40 MSTORE POP DUP2 ADD SWAP1 PUSH2 0x1DA SWAP2 SWAP1 PUSH2 0x374 JUMP JUMPDEST DUP1 SWAP6 POP DUP2 SWAP7 POP DUP3 SWAP8 POP DUP4 SWAP9 POP DUP5 SWAP10 POP POP POP POP POP POP SWAP1 SWAP2 SWAP3 SWAP4 SWAP5 JUMP JUMPDEST PUSH0 PUSH0 REVERT JUMPDEST PUSH0 PUSH10 0xFFFFFFFFFFFFFFFFFFFF DUP3 AND SWAP1 POP SWAP2 SWAP1 POP JUMP JUMPDEST PUSH2 0x217 DUP2 PUSH2 0x1F9 JUMP JUMPDEST DUP2 EQ PUSH2 0x221 JUMPI PUSH0 PUSH0 REVERT JUMPDEST POP JUMP JUMPDEST PUSH0 DUP2 CALLDATALOAD SWAP1 POP PUSH2 0x232 DUP2 PUSH2 0x20E JUMP JUMPDEST SWAP3 SWAP2 POP POP JUMP JUMPDEST PUSH0 PUSH1 0x20 DUP3 DUP5 SUB SLT ISZERO PUSH2 0x24D JUMPI PUSH2 0x24C PUSH2 0x1F5 JUMP JUMPDEST JUMPDEST PUSH0 PUSH2 0x25A DUP5 DUP3 DUP6 ADD PUSH2 0x224 JUMP JUMPDEST SWAP2 POP POP SWAP3 SWAP2 POP POP JUMP JUMPDEST PUSH2 0x26C DUP2 PUSH2 0x1F9 JUMP JUMPDEST DUP3 MSTORE POP POP JUMP JUMPDEST PUSH0 DUP2 SWAP1 POP SWAP2 SWAP1 POP JUMP JUMPDEST PUSH2 0x284 DUP2 PUSH2 0x272 JUMP JUMPDEST DUP3 MSTORE POP POP JUMP JUMPDEST PUSH0 DUP2 SWAP1 POP SWAP2 SWAP1 POP JUMP JUMPDEST PUSH2 0x29C DUP2 PUSH2 0x28A JUMP JUMPDEST DUP3 MSTORE POP POP JUMP JUMPDEST PUSH0 PUSH1 0xA0 DUP3 ADD SWAP1 POP PUSH2 0x2B5 PUSH0 DUP4 ADD DUP9 PUSH2 0x263 JUMP JUMPDEST PUSH2 0x2C2 PUSH1 0x20 DUP4 ADD DUP8 PUSH2 0x27B JUMP JUMPDEST PUSH2 0x2CF PUSH1 0x40 DUP4 ADD DUP7 PUSH2 0x293 JUMP JUMPDEST PUSH2 0x2DC PUSH1 0x60 DUP4 ADD DUP6 PUSH2 0x293 JUMP JUMPDEST PUSH2 0x2E9 PUSH1 0x80 DUP4 ADD DUP5 PUSH2 0x263 JUMP JUMPDEST SWAP7 SWAP6 POP POP POP POP POP POP JUMP JUMPDEST PUSH0 PUSH1 0x20 DUP3 ADD SWAP1 POP PUSH2 0x306 PUSH0 DUP4 ADD DUP5 PUSH2 0x263 JUMP JUMPDEST SWAP3 SWAP2 POP POP JUMP JUMPDEST PUSH0 DUP2 MLOAD SWAP1 POP PUSH2 0x31A DUP2 PUSH2 0x20E JUMP JUMPDEST SWAP3 SWAP2 POP POP JUMP JUMPDEST PUSH2 0x329 DUP2 PUSH2 0x272 JUMP JUMPDEST DUP2 EQ PUSH2 0x333 JUMPI PUSH0 PUSH0 REVERT JUMPDEST POP JUMP JUMPDEST PUSH0 DUP2 MLOAD SWAP1 POP PUSH2 0x344 DUP2 PUSH2 0x320 JUMP JUMPDEST SWAP3 SWAP2 POP POP JUMP JUMPDEST PUSH2 0x353 DUP2 PUSH2 0x28A JUMP JUMPDEST DUP2 EQ PUSH2 0x35D JUMPI PUSH0 PUSH0 REVERT JUMPDEST POP JUMP JUMPDEST PUSH0 DUP2 MLOAD SWAP1 POP PUSH2 0x36E DUP2 PUSH2 0x34A JUMP JUMPDEST SWAP3 SWAP2 POP POP JUMP JUMPDEST PUSH0 PUSH0 PUSH0 PUSH0 PUSH0 PUSH1 0xA0 DUP7 DUP9 SUB SLT ISZERO PUSH2 0x38D JUMPI PUSH2 0x38C PUSH2 0x1F5 JUMP JUMPDEST JUMPDEST PUSH0 PUSH2 0x39A DUP9 DUP3 DUP10 ADD PUSH2 0x30C JUMP JUMPDEST SWAP6 POP POP PUSH1 0x20 PUSH2 0x3AB DUP9 DUP3 DUP10 ADD PUSH2 0x336 JUMP JUMPDEST SWAP5 POP POP PUSH1 0x40 PUSH2 0x3BC DUP9 DUP3 DUP10 ADD PUSH2 0x360 JUMP JUMPDEST SWAP4 POP POP PUSH1 0x60 PUSH2 0x3CD DUP9 DUP3 DUP10 ADD PUSH2 0x360 JUMP JUMPDEST SWAP3 POP POP PUSH1 0x80 PUSH2 0x3DE DUP9 DUP3 DUP10 ADD PUSH2 0x30C JUMP JUMPDEST SWAP2 POP POP SWAP3 SWAP6 POP SWAP3 SWAP6 SWAP1 SWAP4 POP JUMP INVALID LOG2 PUSH5 0x6970667358 0x22 SLT KECCAK256 0xDF 0x4B 0xC1 0x4E LOG2 DELEGATECALL GT 0xD 0xEB EXTCODEHASH GAS DUP3 PUSH4 0x63B914B9 SWAP6 ISZERO SHR PUSH15 0x8EE256D5E6A6608D66537964736F6C PUSH4 0x4300081E STOP CALLER "
				},
				"gasEstimates": {
					"creation": {
						"codeDepositCost": "211400",
						"executionCost": "24520",
						"totalCost": "235920"
					},
					"external": {
						"getChainlinkDataFeedLatestRoundData()": "infinite",
						"getHistoricalData(uint80)": "infinite"
					}
				},
				"methodIdentifiers": {
					"getChainlinkDataFeedLatestRoundData()": "650cfa3a",
					"getHistoricalData(uint80)": "2183c8ce"
				}
			},
			"storageLayout": {
				"storage": [
					{
						"astId": 53,
						"contract": "docs.chain.link/samples/DataFeeds/DataConsumerSVR-Seplia-BtcPrice.sol:SVRConsumer",
						"label": "svrFeed",
						"offset": 0,
						"slot": "0",
						"type": "t_contract(AggregatorV3Interface)45"
					}
				],
				"types": {
					"t_contract(AggregatorV3Interface)45": {
						"encoding": "inplace",
						"label": "contract AggregatorV3Interface",
						"numberOfBytes": "20"
					}
				}
			},
			"userdoc": {
				"kind": "user",
				"methods": {
					"constructor": {
						"notice": "Network: Sepolia Aggregator: BTC/USD Address: 0x1b44F3514812d835EB1BDB0acB33d3fA3351Ee43， SVR aggregator's address"
					},
					"getChainlinkDataFeedLatestRoundData()": {
						"notice": "Returns the latest answer."
					},
					"getHistoricalData(uint80)": {
						"notice": "Returns historical data for a round ID. roundId is NOT incremental. Not all roundIds are valid. You must know a valid roundId before consuming historical data. ROUNDID VALUES:    InValid:      18446744073709562300    Valid:        18446744073709554683"
					}
				},
				"notice": "Smart Value Recapture智能价值回收数据源 https://docs.chain.link/data-feeds/svr-feeds 数据的生成和签名：价格数据始终由去中心化的 Chainlink 预言机网络在链下生成、聚合并完成密码学签名。搜索者无法伪造或篡改这个数据。 更新触发者\tChainlink 预言机节点 (按心跳或偏差阈值触发)\t搜索者 (通过竞拍获得触发权限) 核心经济机制:预言机节点支付Gas费，协议支付服务费用\t搜索者竞拍支付Gas费和溢价，溢价部分在协议和Chainlink网络间分配 搜索者的角色：搜索者只是通过竞拍，获得了将这份已经由权威生成并签名好的数据“广播”到链上的权利。他们更像是“信使”，而不是“新闻制造者”。 交易的原子性：获胜搜索者发出的交易是“原子化”的，意味着它包含两个不可分割的操作： 操作一：调用 SVR Feed 合约，验证预言机签名并更新价格。 操作二：立即执行自己的清算逻辑。 这样设计的好处是： 安全可信：价格数据的真实性由 Chainlink 网络保证，搜索者无法作恶。 公平竞争：所有搜索者竞争的是同一个权威数据的上链权，起跑线是公平的。 效率最高：从价格更新到清算完成在一个交易内完成，速度最快，避免了被其他机器人抢跑的风险。*",
				"version": 1
			}
		}
	}
}