{
	"docs.chain.link/samples/DataFeeds/EnsConsumer-Sepolia.sol": {
		"ENSConsumer": {
			"abi": [
				{
					"inputs": [],
					"stateMutability": "nonpayable",
					"type": "constructor"
				},
				{
					"inputs": [],
					"name": "resoleFixed",
					"outputs": [
						{
							"internalType": "address",
							"name": "",
							"type": "address"
						}
					],
					"stateMutability": "view",
					"type": "function"
				},
				{
					"inputs": [
						{
							"internalType": "bytes32",
							"name": "node",
							"type": "bytes32"
						}
					],
					"name": "resolve",
					"outputs": [
						{
							"internalType": "address",
							"name": "",
							"type": "address"
						}
					],
					"stateMutability": "view",
					"type": "function"
				}
			],
			"devdoc": {
				"kind": "dev",
				"methods": {},
				"version": 1
			},
			"evm": {
				"assembly": "    /* \"docs.chain.link/samples/DataFeeds/EnsConsumer-Sepolia.sol\":480:1827  contract ENSConsumer {... */\n  mstore(0x40, 0x80)\n    /* \"docs.chain.link/samples/DataFeeds/EnsConsumer-Sepolia.sol\":593:718  constructor() {... */\n  callvalue\n  dup1\n  iszero\n  tag_1\n  jumpi\n  revert(0x00, 0x00)\ntag_1:\n  pop\n    /* \"docs.chain.link/samples/DataFeeds/EnsConsumer-Sepolia.sol\":617:635  address ensAddress */\n  0x00\n    /* \"docs.chain.link/samples/DataFeeds/EnsConsumer-Sepolia.sol\":638:680  0x00000000000C2E074eC69A0dFb2997BA6C7d2e1e */\n  0x0c2e074ec69a0dfb2997ba6c7d2e1e\n    /* \"docs.chain.link/samples/DataFeeds/EnsConsumer-Sepolia.sol\":617:680  address ensAddress = 0x00000000000C2E074eC69A0dFb2997BA6C7d2e1e */\n  swap1\n  pop\n    /* \"docs.chain.link/samples/DataFeeds/EnsConsumer-Sepolia.sol\":700:710  ensAddress */\n  dup1\n    /* \"docs.chain.link/samples/DataFeeds/EnsConsumer-Sepolia.sol\":690:693  ens */\n  0x00\n  0x00\n    /* \"docs.chain.link/samples/DataFeeds/EnsConsumer-Sepolia.sol\":690:711  ens = ENS(ensAddress) */\n  0x0100\n  exp\n  dup2\n  sload\n  dup2\n  0xffffffffffffffffffffffffffffffffffffffff\n  mul\n  not\n  and\n  swap1\n  dup4\n  0xffffffffffffffffffffffffffffffffffffffff\n  and\n  mul\n  or\n  swap1\n  sstore\n  pop\n    /* \"docs.chain.link/samples/DataFeeds/EnsConsumer-Sepolia.sol\":607:718  {... */\n  pop\n    /* \"docs.chain.link/samples/DataFeeds/EnsConsumer-Sepolia.sol\":480:1827  contract ENSConsumer {... */\n  dataSize(sub_0)\n  dup1\n  dataOffset(sub_0)\n  0x00\n  codecopy\n  0x00\n  return\nstop\n\nsub_0: assembly {\n        /* \"docs.chain.link/samples/DataFeeds/EnsConsumer-Sepolia.sol\":480:1827  contract ENSConsumer {... */\n      mstore(0x40, 0x80)\n      callvalue\n      dup1\n      iszero\n      tag_1\n      jumpi\n      revert(0x00, 0x00)\n    tag_1:\n      pop\n      jumpi(tag_2, lt(calldatasize, 0x04))\n      shr(0xe0, calldataload(0x00))\n      dup1\n      0x5a6db0c6\n      eq\n      tag_3\n      jumpi\n      dup1\n      0x5c23bdf5\n      eq\n      tag_4\n      jumpi\n    tag_2:\n      revert(0x00, 0x00)\n        /* \"docs.chain.link/samples/DataFeeds/EnsConsumer-Sepolia.sol\":1590:1825  function resoleFixed() public view returns (address) {... */\n    tag_3:\n      tag_5\n      tag_6\n      jump\t// in\n    tag_5:\n      mload(0x40)\n      tag_7\n      swap2\n      swap1\n      tag_8\n      jump\t// in\n    tag_7:\n      mload(0x40)\n      dup1\n      swap2\n      sub\n      swap1\n      return\n        /* \"docs.chain.link/samples/DataFeeds/EnsConsumer-Sepolia.sol\":858:1010  function resolve(bytes32 node) public view returns (address) {... */\n    tag_4:\n      tag_9\n      0x04\n      dup1\n      calldatasize\n      sub\n      dup2\n      add\n      swap1\n      tag_10\n      swap2\n      swap1\n      tag_11\n      jump\t// in\n    tag_10:\n      tag_12\n      jump\t// in\n    tag_9:\n      mload(0x40)\n      tag_13\n      swap2\n      swap1\n      tag_8\n      jump\t// in\n    tag_13:\n      mload(0x40)\n      dup1\n      swap2\n      sub\n      swap1\n      return\n        /* \"docs.chain.link/samples/DataFeeds/EnsConsumer-Sepolia.sol\":1590:1825  function resoleFixed() public view returns (address) {... */\n    tag_6:\n        /* \"docs.chain.link/samples/DataFeeds/EnsConsumer-Sepolia.sol\":1634:1641  address */\n      0x00\n        /* \"docs.chain.link/samples/DataFeeds/EnsConsumer-Sepolia.sol\":1653:1665  bytes32 node */\n      0x00\n        /* \"docs.chain.link/samples/DataFeeds/EnsConsumer-Sepolia.sol\":1668:1734  0xf599f4cd075a34b92169cf57271da65a7a936c35e3f31e854447fbb3e7eb736d */\n      0xf599f4cd075a34b92169cf57271da65a7a936c35e3f31e854447fbb3e7eb736d\n        /* \"docs.chain.link/samples/DataFeeds/EnsConsumer-Sepolia.sol\":1653:1734  bytes32 node = 0xf599f4cd075a34b92169cf57271da65a7a936c35e3f31e854447fbb3e7eb736d */\n      0x00\n      shl\n      swap1\n      pop\n        /* \"docs.chain.link/samples/DataFeeds/EnsConsumer-Sepolia.sol\":1744:1761  Resolver resolver */\n      0x00\n        /* \"docs.chain.link/samples/DataFeeds/EnsConsumer-Sepolia.sol\":1764:1767  ens */\n      0x00\n      0x00\n      swap1\n      sload\n      swap1\n      0x0100\n      exp\n      swap1\n      div\n      0xffffffffffffffffffffffffffffffffffffffff\n      and\n        /* \"docs.chain.link/samples/DataFeeds/EnsConsumer-Sepolia.sol\":1764:1776  ens.resolver */\n      0xffffffffffffffffffffffffffffffffffffffff\n      and\n      0x0178b8bf\n        /* \"docs.chain.link/samples/DataFeeds/EnsConsumer-Sepolia.sol\":1777:1781  node */\n      dup4\n        /* \"docs.chain.link/samples/DataFeeds/EnsConsumer-Sepolia.sol\":1764:1782  ens.resolver(node) */\n      mload(0x40)\n      dup3\n      0xffffffff\n      and\n      0xe0\n      shl\n      dup2\n      mstore\n      0x04\n      add\n      tag_15\n      swap2\n      swap1\n      tag_16\n      jump\t// in\n    tag_15:\n      0x20\n      mload(0x40)\n      dup1\n      dup4\n      sub\n      dup2\n      dup7\n      gas\n      staticcall\n      iszero\n      dup1\n      iszero\n      tag_18\n      jumpi\n      returndatacopy(0x00, 0x00, returndatasize)\n      revert(0x00, returndatasize)\n    tag_18:\n      pop\n      pop\n      pop\n      pop\n      mload(0x40)\n      returndatasize\n      not(0x1f)\n      0x1f\n      dup3\n      add\n      and\n      dup3\n      add\n      dup1\n      0x40\n      mstore\n      pop\n      dup2\n      add\n      swap1\n      tag_19\n      swap2\n      swap1\n      tag_20\n      jump\t// in\n    tag_19:\n        /* \"docs.chain.link/samples/DataFeeds/EnsConsumer-Sepolia.sol\":1744:1782  Resolver resolver = ens.resolver(node) */\n      swap1\n      pop\n        /* \"docs.chain.link/samples/DataFeeds/EnsConsumer-Sepolia.sol\":1799:1807  resolver */\n      dup1\n        /* \"docs.chain.link/samples/DataFeeds/EnsConsumer-Sepolia.sol\":1799:1812  resolver.addr */\n      0xffffffffffffffffffffffffffffffffffffffff\n      and\n      0x3b3b57de\n        /* \"docs.chain.link/samples/DataFeeds/EnsConsumer-Sepolia.sol\":1813:1817  node */\n      dup4\n        /* \"docs.chain.link/samples/DataFeeds/EnsConsumer-Sepolia.sol\":1799:1818  resolver.addr(node) */\n      mload(0x40)\n      dup3\n      0xffffffff\n      and\n      0xe0\n      shl\n      dup2\n      mstore\n      0x04\n      add\n      tag_21\n      swap2\n      swap1\n      tag_16\n      jump\t// in\n    tag_21:\n      0x20\n      mload(0x40)\n      dup1\n      dup4\n      sub\n      dup2\n      dup7\n      gas\n      staticcall\n      iszero\n      dup1\n      iszero\n      tag_23\n      jumpi\n      returndatacopy(0x00, 0x00, returndatasize)\n      revert(0x00, returndatasize)\n    tag_23:\n      pop\n      pop\n      pop\n      pop\n      mload(0x40)\n      returndatasize\n      not(0x1f)\n      0x1f\n      dup3\n      add\n      and\n      dup3\n      add\n      dup1\n      0x40\n      mstore\n      pop\n      dup2\n      add\n      swap1\n      tag_24\n      swap2\n      swap1\n      tag_25\n      jump\t// in\n    tag_24:\n        /* \"docs.chain.link/samples/DataFeeds/EnsConsumer-Sepolia.sol\":1792:1818  return resolver.addr(node) */\n      swap3\n      pop\n      pop\n      pop\n        /* \"docs.chain.link/samples/DataFeeds/EnsConsumer-Sepolia.sol\":1590:1825  function resoleFixed() public view returns (address) {... */\n      swap1\n      jump\t// out\n        /* \"docs.chain.link/samples/DataFeeds/EnsConsumer-Sepolia.sol\":858:1010  function resolve(bytes32 node) public view returns (address) {... */\n    tag_12:\n        /* \"docs.chain.link/samples/DataFeeds/EnsConsumer-Sepolia.sol\":910:917  address */\n      0x00\n        /* \"docs.chain.link/samples/DataFeeds/EnsConsumer-Sepolia.sol\":929:946  Resolver resolver */\n      0x00\n        /* \"docs.chain.link/samples/DataFeeds/EnsConsumer-Sepolia.sol\":949:952  ens */\n      0x00\n      0x00\n      swap1\n      sload\n      swap1\n      0x0100\n      exp\n      swap1\n      div\n      0xffffffffffffffffffffffffffffffffffffffff\n      and\n        /* \"docs.chain.link/samples/DataFeeds/EnsConsumer-Sepolia.sol\":949:961  ens.resolver */\n      0xffffffffffffffffffffffffffffffffffffffff\n      and\n      0x0178b8bf\n        /* \"docs.chain.link/samples/DataFeeds/EnsConsumer-Sepolia.sol\":962:966  node */\n      dup5\n        /* \"docs.chain.link/samples/DataFeeds/EnsConsumer-Sepolia.sol\":949:967  ens.resolver(node) */\n      mload(0x40)\n      dup3\n      0xffffffff\n      and\n      0xe0\n      shl\n      dup2\n      mstore\n      0x04\n      add\n      tag_27\n      swap2\n      swap1\n      tag_16\n      jump\t// in\n    tag_27:\n      0x20\n      mload(0x40)\n      dup1\n      dup4\n      sub\n      dup2\n      dup7\n      gas\n      staticcall\n      iszero\n      dup1\n      iszero\n      tag_29\n      jumpi\n      returndatacopy(0x00, 0x00, returndatasize)\n      revert(0x00, returndatasize)\n    tag_29:\n      pop\n      pop\n      pop\n      pop\n      mload(0x40)\n      returndatasize\n      not(0x1f)\n      0x1f\n      dup3\n      add\n      and\n      dup3\n      add\n      dup1\n      0x40\n      mstore\n      pop\n      dup2\n      add\n      swap1\n      tag_30\n      swap2\n      swap1\n      tag_20\n      jump\t// in\n    tag_30:\n        /* \"docs.chain.link/samples/DataFeeds/EnsConsumer-Sepolia.sol\":929:967  Resolver resolver = ens.resolver(node) */\n      swap1\n      pop\n        /* \"docs.chain.link/samples/DataFeeds/EnsConsumer-Sepolia.sol\":984:992  resolver */\n      dup1\n        /* \"docs.chain.link/samples/DataFeeds/EnsConsumer-Sepolia.sol\":984:997  resolver.addr */\n      0xffffffffffffffffffffffffffffffffffffffff\n      and\n      0x3b3b57de\n        /* \"docs.chain.link/samples/DataFeeds/EnsConsumer-Sepolia.sol\":998:1002  node */\n      dup5\n        /* \"docs.chain.link/samples/DataFeeds/EnsConsumer-Sepolia.sol\":984:1003  resolver.addr(node) */\n      mload(0x40)\n      dup3\n      0xffffffff\n      and\n      0xe0\n      shl\n      dup2\n      mstore\n      0x04\n      add\n      tag_31\n      swap2\n      swap1\n      tag_16\n      jump\t// in\n    tag_31:\n      0x20\n      mload(0x40)\n      dup1\n      dup4\n      sub\n      dup2\n      dup7\n      gas\n      staticcall\n      iszero\n      dup1\n      iszero\n      tag_33\n      jumpi\n      returndatacopy(0x00, 0x00, returndatasize)\n      revert(0x00, returndatasize)\n    tag_33:\n      pop\n      pop\n      pop\n      pop\n      mload(0x40)\n      returndatasize\n      not(0x1f)\n      0x1f\n      dup3\n      add\n      and\n      dup3\n      add\n      dup1\n      0x40\n      mstore\n      pop\n      dup2\n      add\n      swap1\n      tag_34\n      swap2\n      swap1\n      tag_25\n      jump\t// in\n    tag_34:\n        /* \"docs.chain.link/samples/DataFeeds/EnsConsumer-Sepolia.sol\":977:1003  return resolver.addr(node) */\n      swap2\n      pop\n      pop\n        /* \"docs.chain.link/samples/DataFeeds/EnsConsumer-Sepolia.sol\":858:1010  function resolve(bytes32 node) public view returns (address) {... */\n      swap2\n      swap1\n      pop\n      jump\t// out\n        /* \"#utility.yul\":7:133   */\n    tag_35:\n        /* \"#utility.yul\":44:51   */\n      0x00\n        /* \"#utility.yul\":84:126   */\n      0xffffffffffffffffffffffffffffffffffffffff\n        /* \"#utility.yul\":77:82   */\n      dup3\n        /* \"#utility.yul\":73:127   */\n      and\n        /* \"#utility.yul\":62:127   */\n      swap1\n      pop\n        /* \"#utility.yul\":7:133   */\n      swap2\n      swap1\n      pop\n      jump\t// out\n        /* \"#utility.yul\":139:235   */\n    tag_36:\n        /* \"#utility.yul\":176:183   */\n      0x00\n        /* \"#utility.yul\":205:229   */\n      tag_53\n        /* \"#utility.yul\":223:228   */\n      dup3\n        /* \"#utility.yul\":205:229   */\n      tag_35\n      jump\t// in\n    tag_53:\n        /* \"#utility.yul\":194:229   */\n      swap1\n      pop\n        /* \"#utility.yul\":139:235   */\n      swap2\n      swap1\n      pop\n      jump\t// out\n        /* \"#utility.yul\":241:359   */\n    tag_37:\n        /* \"#utility.yul\":328:352   */\n      tag_55\n        /* \"#utility.yul\":346:351   */\n      dup2\n        /* \"#utility.yul\":328:352   */\n      tag_36\n      jump\t// in\n    tag_55:\n        /* \"#utility.yul\":323:326   */\n      dup3\n        /* \"#utility.yul\":316:353   */\n      mstore\n        /* \"#utility.yul\":241:359   */\n      pop\n      pop\n      jump\t// out\n        /* \"#utility.yul\":365:587   */\n    tag_8:\n        /* \"#utility.yul\":458:462   */\n      0x00\n        /* \"#utility.yul\":496:498   */\n      0x20\n        /* \"#utility.yul\":485:494   */\n      dup3\n        /* \"#utility.yul\":481:499   */\n      add\n        /* \"#utility.yul\":473:499   */\n      swap1\n      pop\n        /* \"#utility.yul\":509:580   */\n      tag_57\n        /* \"#utility.yul\":577:578   */\n      0x00\n        /* \"#utility.yul\":566:575   */\n      dup4\n        /* \"#utility.yul\":562:579   */\n      add\n        /* \"#utility.yul\":553:559   */\n      dup5\n        /* \"#utility.yul\":509:580   */\n      tag_37\n      jump\t// in\n    tag_57:\n        /* \"#utility.yul\":365:587   */\n      swap3\n      swap2\n      pop\n      pop\n      jump\t// out\n        /* \"#utility.yul\":674:791   */\n    tag_39:\n        /* \"#utility.yul\":783:784   */\n      0x00\n        /* \"#utility.yul\":780:781   */\n      0x00\n        /* \"#utility.yul\":773:785   */\n      revert\n        /* \"#utility.yul\":920:997   */\n    tag_41:\n        /* \"#utility.yul\":957:964   */\n      0x00\n        /* \"#utility.yul\":986:991   */\n      dup2\n        /* \"#utility.yul\":975:991   */\n      swap1\n      pop\n        /* \"#utility.yul\":920:997   */\n      swap2\n      swap1\n      pop\n      jump\t// out\n        /* \"#utility.yul\":1003:1125   */\n    tag_42:\n        /* \"#utility.yul\":1076:1100   */\n      tag_63\n        /* \"#utility.yul\":1094:1099   */\n      dup2\n        /* \"#utility.yul\":1076:1100   */\n      tag_41\n      jump\t// in\n    tag_63:\n        /* \"#utility.yul\":1069:1074   */\n      dup2\n        /* \"#utility.yul\":1066:1101   */\n      eq\n        /* \"#utility.yul\":1056:1119   */\n      tag_64\n      jumpi\n        /* \"#utility.yul\":1115:1116   */\n      0x00\n        /* \"#utility.yul\":1112:1113   */\n      0x00\n        /* \"#utility.yul\":1105:1117   */\n      revert\n        /* \"#utility.yul\":1056:1119   */\n    tag_64:\n        /* \"#utility.yul\":1003:1125   */\n      pop\n      jump\t// out\n        /* \"#utility.yul\":1131:1270   */\n    tag_43:\n        /* \"#utility.yul\":1177:1182   */\n      0x00\n        /* \"#utility.yul\":1215:1221   */\n      dup2\n        /* \"#utility.yul\":1202:1222   */\n      calldataload\n        /* \"#utility.yul\":1193:1222   */\n      swap1\n      pop\n        /* \"#utility.yul\":1231:1264   */\n      tag_66\n        /* \"#utility.yul\":1258:1263   */\n      dup2\n        /* \"#utility.yul\":1231:1264   */\n      tag_42\n      jump\t// in\n    tag_66:\n        /* \"#utility.yul\":1131:1270   */\n      swap3\n      swap2\n      pop\n      pop\n      jump\t// out\n        /* \"#utility.yul\":1276:1605   */\n    tag_11:\n        /* \"#utility.yul\":1335:1341   */\n      0x00\n        /* \"#utility.yul\":1384:1386   */\n      0x20\n        /* \"#utility.yul\":1372:1381   */\n      dup3\n        /* \"#utility.yul\":1363:1370   */\n      dup5\n        /* \"#utility.yul\":1359:1382   */\n      sub\n        /* \"#utility.yul\":1355:1387   */\n      slt\n        /* \"#utility.yul\":1352:1471   */\n      iszero\n      tag_68\n      jumpi\n        /* \"#utility.yul\":1390:1469   */\n      tag_69\n      tag_39\n      jump\t// in\n    tag_69:\n        /* \"#utility.yul\":1352:1471   */\n    tag_68:\n        /* \"#utility.yul\":1510:1511   */\n      0x00\n        /* \"#utility.yul\":1535:1588   */\n      tag_70\n        /* \"#utility.yul\":1580:1587   */\n      dup5\n        /* \"#utility.yul\":1571:1577   */\n      dup3\n        /* \"#utility.yul\":1560:1569   */\n      dup6\n        /* \"#utility.yul\":1556:1578   */\n      add\n        /* \"#utility.yul\":1535:1588   */\n      tag_43\n      jump\t// in\n    tag_70:\n        /* \"#utility.yul\":1525:1588   */\n      swap2\n      pop\n        /* \"#utility.yul\":1481:1598   */\n      pop\n        /* \"#utility.yul\":1276:1605   */\n      swap3\n      swap2\n      pop\n      pop\n      jump\t// out\n        /* \"#utility.yul\":1611:1729   */\n    tag_44:\n        /* \"#utility.yul\":1698:1722   */\n      tag_72\n        /* \"#utility.yul\":1716:1721   */\n      dup2\n        /* \"#utility.yul\":1698:1722   */\n      tag_41\n      jump\t// in\n    tag_72:\n        /* \"#utility.yul\":1693:1696   */\n      dup3\n        /* \"#utility.yul\":1686:1723   */\n      mstore\n        /* \"#utility.yul\":1611:1729   */\n      pop\n      pop\n      jump\t// out\n        /* \"#utility.yul\":1735:1957   */\n    tag_16:\n        /* \"#utility.yul\":1828:1832   */\n      0x00\n        /* \"#utility.yul\":1866:1868   */\n      0x20\n        /* \"#utility.yul\":1855:1864   */\n      dup3\n        /* \"#utility.yul\":1851:1869   */\n      add\n        /* \"#utility.yul\":1843:1869   */\n      swap1\n      pop\n        /* \"#utility.yul\":1879:1950   */\n      tag_74\n        /* \"#utility.yul\":1947:1948   */\n      0x00\n        /* \"#utility.yul\":1936:1945   */\n      dup4\n        /* \"#utility.yul\":1932:1949   */\n      add\n        /* \"#utility.yul\":1923:1929   */\n      dup5\n        /* \"#utility.yul\":1879:1950   */\n      tag_44\n      jump\t// in\n    tag_74:\n        /* \"#utility.yul\":1735:1957   */\n      swap3\n      swap2\n      pop\n      pop\n      jump\t// out\n        /* \"#utility.yul\":1963:2074   */\n    tag_45:\n        /* \"#utility.yul\":2015:2022   */\n      0x00\n        /* \"#utility.yul\":2044:2068   */\n      tag_76\n        /* \"#utility.yul\":2062:2067   */\n      dup3\n        /* \"#utility.yul\":2044:2068   */\n      tag_36\n      jump\t// in\n    tag_76:\n        /* \"#utility.yul\":2033:2068   */\n      swap1\n      pop\n        /* \"#utility.yul\":1963:2074   */\n      swap2\n      swap1\n      pop\n      jump\t// out\n        /* \"#utility.yul\":2080:2232   */\n    tag_46:\n        /* \"#utility.yul\":2168:2207   */\n      tag_78\n        /* \"#utility.yul\":2201:2206   */\n      dup2\n        /* \"#utility.yul\":2168:2207   */\n      tag_45\n      jump\t// in\n    tag_78:\n        /* \"#utility.yul\":2161:2166   */\n      dup2\n        /* \"#utility.yul\":2158:2208   */\n      eq\n        /* \"#utility.yul\":2148:2226   */\n      tag_79\n      jumpi\n        /* \"#utility.yul\":2222:2223   */\n      0x00\n        /* \"#utility.yul\":2219:2220   */\n      0x00\n        /* \"#utility.yul\":2212:2224   */\n      revert\n        /* \"#utility.yul\":2148:2226   */\n    tag_79:\n        /* \"#utility.yul\":2080:2232   */\n      pop\n      jump\t// out\n        /* \"#utility.yul\":2238:2411   */\n    tag_47:\n        /* \"#utility.yul\":2310:2315   */\n      0x00\n        /* \"#utility.yul\":2341:2347   */\n      dup2\n        /* \"#utility.yul\":2335:2348   */\n      mload\n        /* \"#utility.yul\":2326:2348   */\n      swap1\n      pop\n        /* \"#utility.yul\":2357:2405   */\n      tag_81\n        /* \"#utility.yul\":2399:2404   */\n      dup2\n        /* \"#utility.yul\":2357:2405   */\n      tag_46\n      jump\t// in\n    tag_81:\n        /* \"#utility.yul\":2238:2411   */\n      swap3\n      swap2\n      pop\n      pop\n      jump\t// out\n        /* \"#utility.yul\":2417:2798   */\n    tag_20:\n        /* \"#utility.yul\":2502:2508   */\n      0x00\n        /* \"#utility.yul\":2551:2553   */\n      0x20\n        /* \"#utility.yul\":2539:2548   */\n      dup3\n        /* \"#utility.yul\":2530:2537   */\n      dup5\n        /* \"#utility.yul\":2526:2549   */\n      sub\n        /* \"#utility.yul\":2522:2554   */\n      slt\n        /* \"#utility.yul\":2519:2638   */\n      iszero\n      tag_83\n      jumpi\n        /* \"#utility.yul\":2557:2636   */\n      tag_84\n      tag_39\n      jump\t// in\n    tag_84:\n        /* \"#utility.yul\":2519:2638   */\n    tag_83:\n        /* \"#utility.yul\":2677:2678   */\n      0x00\n        /* \"#utility.yul\":2702:2781   */\n      tag_85\n        /* \"#utility.yul\":2773:2780   */\n      dup5\n        /* \"#utility.yul\":2764:2770   */\n      dup3\n        /* \"#utility.yul\":2753:2762   */\n      dup6\n        /* \"#utility.yul\":2749:2771   */\n      add\n        /* \"#utility.yul\":2702:2781   */\n      tag_47\n      jump\t// in\n    tag_85:\n        /* \"#utility.yul\":2692:2781   */\n      swap2\n      pop\n        /* \"#utility.yul\":2648:2791   */\n      pop\n        /* \"#utility.yul\":2417:2798   */\n      swap3\n      swap2\n      pop\n      pop\n      jump\t// out\n        /* \"#utility.yul\":2804:2926   */\n    tag_48:\n        /* \"#utility.yul\":2877:2901   */\n      tag_87\n        /* \"#utility.yul\":2895:2900   */\n      dup2\n        /* \"#utility.yul\":2877:2901   */\n      tag_36\n      jump\t// in\n    tag_87:\n        /* \"#utility.yul\":2870:2875   */\n      dup2\n        /* \"#utility.yul\":2867:2902   */\n      eq\n        /* \"#utility.yul\":2857:2920   */\n      tag_88\n      jumpi\n        /* \"#utility.yul\":2916:2917   */\n      0x00\n        /* \"#utility.yul\":2913:2914   */\n      0x00\n        /* \"#utility.yul\":2906:2918   */\n      revert\n        /* \"#utility.yul\":2857:2920   */\n    tag_88:\n        /* \"#utility.yul\":2804:2926   */\n      pop\n      jump\t// out\n        /* \"#utility.yul\":2932:3075   */\n    tag_49:\n        /* \"#utility.yul\":2989:2994   */\n      0x00\n        /* \"#utility.yul\":3020:3026   */\n      dup2\n        /* \"#utility.yul\":3014:3027   */\n      mload\n        /* \"#utility.yul\":3005:3027   */\n      swap1\n      pop\n        /* \"#utility.yul\":3036:3069   */\n      tag_90\n        /* \"#utility.yul\":3063:3068   */\n      dup2\n        /* \"#utility.yul\":3036:3069   */\n      tag_48\n      jump\t// in\n    tag_90:\n        /* \"#utility.yul\":2932:3075   */\n      swap3\n      swap2\n      pop\n      pop\n      jump\t// out\n        /* \"#utility.yul\":3081:3432   */\n    tag_25:\n        /* \"#utility.yul\":3151:3157   */\n      0x00\n        /* \"#utility.yul\":3200:3202   */\n      0x20\n        /* \"#utility.yul\":3188:3197   */\n      dup3\n        /* \"#utility.yul\":3179:3186   */\n      dup5\n        /* \"#utility.yul\":3175:3198   */\n      sub\n        /* \"#utility.yul\":3171:3203   */\n      slt\n        /* \"#utility.yul\":3168:3287   */\n      iszero\n      tag_92\n      jumpi\n        /* \"#utility.yul\":3206:3285   */\n      tag_93\n      tag_39\n      jump\t// in\n    tag_93:\n        /* \"#utility.yul\":3168:3287   */\n    tag_92:\n        /* \"#utility.yul\":3326:3327   */\n      0x00\n        /* \"#utility.yul\":3351:3415   */\n      tag_94\n        /* \"#utility.yul\":3407:3414   */\n      dup5\n        /* \"#utility.yul\":3398:3404   */\n      dup3\n        /* \"#utility.yul\":3387:3396   */\n      dup6\n        /* \"#utility.yul\":3383:3405   */\n      add\n        /* \"#utility.yul\":3351:3415   */\n      tag_49\n      jump\t// in\n    tag_94:\n        /* \"#utility.yul\":3341:3415   */\n      swap2\n      pop\n        /* \"#utility.yul\":3297:3425   */\n      pop\n        /* \"#utility.yul\":3081:3432   */\n      swap3\n      swap2\n      pop\n      pop\n      jump\t// out\n\n    auxdata: 0xa264697066735822122009933db985f4225f6928e550e03160e57ca31996592c4c89af25ea622007a70e64736f6c634300081e0033\n}\n",
				"bytecode": {
					"linkReferences": {},
					"object": "6080604052348015600e575f5ffd5b505f6e0c2e074ec69a0dfb2997ba6c7d2e1e9050805f5f6101000a81548173ffffffffffffffffffffffffffffffffffffffff021916908373ffffffffffffffffffffffffffffffffffffffff160217905550506104b68061006f5f395ff3fe608060405234801561000f575f5ffd5b5060043610610034575f3560e01c80635a6db0c6146100385780635c23bdf514610056575b5f5ffd5b610040610086565b60405161004d9190610322565b60405180910390f35b610070600480360381019061006b9190610372565b6101c7565b60405161007d9190610322565b60405180910390f35b5f5f7ff599f4cd075a34b92169cf57271da65a7a936c35e3f31e854447fbb3e7eb736d5f1b90505f5f5f9054906101000a900473ffffffffffffffffffffffffffffffffffffffff1673ffffffffffffffffffffffffffffffffffffffff16630178b8bf836040518263ffffffff1660e01b815260040161010791906103ac565b602060405180830381865afa158015610122573d5f5f3e3d5ffd5b505050506040513d601f19601f820116820180604052508101906101469190610400565b90508073ffffffffffffffffffffffffffffffffffffffff16633b3b57de836040518263ffffffff1660e01b815260040161018191906103ac565b602060405180830381865afa15801561019c573d5f5f3e3d5ffd5b505050506040513d601f19601f820116820180604052508101906101c09190610455565b9250505090565b5f5f5f5f9054906101000a900473ffffffffffffffffffffffffffffffffffffffff1673ffffffffffffffffffffffffffffffffffffffff16630178b8bf846040518263ffffffff1660e01b815260040161022291906103ac565b602060405180830381865afa15801561023d573d5f5f3e3d5ffd5b505050506040513d601f19601f820116820180604052508101906102619190610400565b90508073ffffffffffffffffffffffffffffffffffffffff16633b3b57de846040518263ffffffff1660e01b815260040161029c91906103ac565b602060405180830381865afa1580156102b7573d5f5f3e3d5ffd5b505050506040513d601f19601f820116820180604052508101906102db9190610455565b915050919050565b5f73ffffffffffffffffffffffffffffffffffffffff82169050919050565b5f61030c826102e3565b9050919050565b61031c81610302565b82525050565b5f6020820190506103355f830184610313565b92915050565b5f5ffd5b5f819050919050565b6103518161033f565b811461035b575f5ffd5b50565b5f8135905061036c81610348565b92915050565b5f602082840312156103875761038661033b565b5b5f6103948482850161035e565b91505092915050565b6103a68161033f565b82525050565b5f6020820190506103bf5f83018461039d565b92915050565b5f6103cf82610302565b9050919050565b6103df816103c5565b81146103e9575f5ffd5b50565b5f815190506103fa816103d6565b92915050565b5f602082840312156104155761041461033b565b5b5f610422848285016103ec565b91505092915050565b61043481610302565b811461043e575f5ffd5b50565b5f8151905061044f8161042b565b92915050565b5f6020828403121561046a5761046961033b565b5b5f61047784828501610441565b9150509291505056fea264697066735822122009933db985f4225f6928e550e03160e57ca31996592c4c89af25ea622007a70e64736f6c634300081e0033",
					"opcodes": "PUSH1 0x80 PUSH1 0x40 MSTORE CALLVALUE DUP1 ISZERO PUSH1 0xE JUMPI PUSH0 PUSH0 REVERT JUMPDEST POP PUSH0 PUSH15 0xC2E074EC69A0DFB2997BA6C7D2E1E SWAP1 POP DUP1 PUSH0 PUSH0 PUSH2 0x100 EXP DUP2 SLOAD DUP2 PUSH20 0xFFFFFFFFFFFFFFFFFFFFFFFFFFFFFFFFFFFFFFFF MUL NOT AND SWAP1 DUP4 PUSH20 0xFFFFFFFFFFFFFFFFFFFFFFFFFFFFFFFFFFFFFFFF AND MUL OR SWAP1 SSTORE POP POP PUSH2 0x4B6 DUP1 PUSH2 0x6F PUSH0 CODECOPY PUSH0 RETURN INVALID PUSH1 0x80 PUSH1 0x40 MSTORE CALLVALUE DUP1 ISZERO PUSH2 0xF JUMPI PUSH0 PUSH0 REVERT JUMPDEST POP PUSH1 0x4 CALLDATASIZE LT PUSH2 0x34 JUMPI PUSH0 CALLDATALOAD PUSH1 0xE0 SHR DUP1 PUSH4 0x5A6DB0C6 EQ PUSH2 0x38 JUMPI DUP1 PUSH4 0x5C23BDF5 EQ PUSH2 0x56 JUMPI JUMPDEST PUSH0 PUSH0 REVERT JUMPDEST PUSH2 0x40 PUSH2 0x86 JUMP JUMPDEST PUSH1 0x40 MLOAD PUSH2 0x4D SWAP2 SWAP1 PUSH2 0x322 JUMP JUMPDEST PUSH1 0x40 MLOAD DUP1 SWAP2 SUB SWAP1 RETURN JUMPDEST PUSH2 0x70 PUSH1 0x4 DUP1 CALLDATASIZE SUB DUP2 ADD SWAP1 PUSH2 0x6B SWAP2 SWAP1 PUSH2 0x372 JUMP JUMPDEST PUSH2 0x1C7 JUMP JUMPDEST PUSH1 0x40 MLOAD PUSH2 0x7D SWAP2 SWAP1 PUSH2 0x322 JUMP JUMPDEST PUSH1 0x40 MLOAD DUP1 SWAP2 SUB SWAP1 RETURN JUMPDEST PUSH0 PUSH0 PUSH32 0xF599F4CD075A34B92169CF57271DA65A7A936C35E3F31E854447FBB3E7EB736D PUSH0 SHL SWAP1 POP PUSH0 PUSH0 PUSH0 SWAP1 SLOAD SWAP1 PUSH2 0x100 EXP SWAP1 DIV PUSH20 0xFFFFFFFFFFFFFFFFFFFFFFFFFFFFFFFFFFFFFFFF AND PUSH20 0xFFFFFFFFFFFFFFFFFFFFFFFFFFFFFFFFFFFFFFFF AND PUSH4 0x178B8BF DUP4 PUSH1 0x40 MLOAD DUP3 PUSH4 0xFFFFFFFF AND PUSH1 0xE0 SHL DUP2 MSTORE PUSH1 0x4 ADD PUSH2 0x107 SWAP2 SWAP1 PUSH2 0x3AC JUMP JUMPDEST PUSH1 0x20 PUSH1 0x40 MLOAD DUP1 DUP4 SUB DUP2 DUP7 GAS STATICCALL ISZERO DUP1 ISZERO PUSH2 0x122 JUMPI RETURNDATASIZE PUSH0 PUSH0 RETURNDATACOPY RETURNDATASIZE PUSH0 REVERT JUMPDEST POP POP POP POP PUSH1 0x40 MLOAD RETURNDATASIZE PUSH1 0x1F NOT PUSH1 0x1F DUP3 ADD AND DUP3 ADD DUP1 PUSH1 0x40 MSTORE POP DUP2 ADD SWAP1 PUSH2 0x146 SWAP2 SWAP1 PUSH2 0x400 JUMP JUMPDEST SWAP1 POP DUP1 PUSH20 0xFFFFFFFFFFFFFFFFFFFFFFFFFFFFFFFFFFFFFFFF AND PUSH4 0x3B3B57DE DUP4 PUSH1 0x40 MLOAD DUP3 PUSH4 0xFFFFFFFF AND PUSH1 0xE0 SHL DUP2 MSTORE PUSH1 0x4 ADD PUSH2 0x181 SWAP2 SWAP1 PUSH2 0x3AC JUMP JUMPDEST PUSH1 0x20 PUSH1 0x40 MLOAD DUP1 DUP4 SUB DUP2 DUP7 GAS STATICCALL ISZERO DUP1 ISZERO PUSH2 0x19C JUMPI RETURNDATASIZE PUSH0 PUSH0 RETURNDATACOPY RETURNDATASIZE PUSH0 REVERT JUMPDEST POP POP POP POP PUSH1 0x40 MLOAD RETURNDATASIZE PUSH1 0x1F NOT PUSH1 0x1F DUP3 ADD AND DUP3 ADD DUP1 PUSH1 0x40 MSTORE POP DUP2 ADD SWAP1 PUSH2 0x1C0 SWAP2 SWAP1 PUSH2 0x455 JUMP JUMPDEST SWAP3 POP POP POP SWAP1 JUMP JUMPDEST PUSH0 PUSH0 PUSH0 PUSH0 SWAP1 SLOAD SWAP1 PUSH2 0x100 EXP SWAP1 DIV PUSH20 0xFFFFFFFFFFFFFFFFFFFFFFFFFFFFFFFFFFFFFFFF AND PUSH20 0xFFFFFFFFFFFFFFFFFFFFFFFFFFFFFFFFFFFFFFFF AND PUSH4 0x178B8BF DUP5 PUSH1 0x40 MLOAD DUP3 PUSH4 0xFFFFFFFF AND PUSH1 0xE0 SHL DUP2 MSTORE PUSH1 0x4 ADD PUSH2 0x222 SWAP2 SWAP1 PUSH2 0x3AC JUMP JUMPDEST PUSH1 0x20 PUSH1 0x40 MLOAD DUP1 DUP4 SUB DUP2 DUP7 GAS STATICCALL ISZERO DUP1 ISZERO PUSH2 0x23D JUMPI RETURNDATASIZE PUSH0 PUSH0 RETURNDATACOPY RETURNDATASIZE PUSH0 REVERT JUMPDEST POP POP POP POP PUSH1 0x40 MLOAD RETURNDATASIZE PUSH1 0x1F NOT PUSH1 0x1F DUP3 ADD AND DUP3 ADD DUP1 PUSH1 0x40 MSTORE POP DUP2 ADD SWAP1 PUSH2 0x261 SWAP2 SWAP1 PUSH2 0x400 JUMP JUMPDEST SWAP1 POP DUP1 PUSH20 0xFFFFFFFFFFFFFFFFFFFFFFFFFFFFFFFFFFFFFFFF AND PUSH4 0x3B3B57DE DUP5 PUSH1 0x40 MLOAD DUP3 PUSH4 0xFFFFFFFF AND PUSH1 0xE0 SHL DUP2 MSTORE PUSH1 0x4 ADD PUSH2 0x29C SWAP2 SWAP1 PUSH2 0x3AC JUMP JUMPDEST PUSH1 0x20 PUSH1 0x40 MLOAD DUP1 DUP4 SUB DUP2 DUP7 GAS STATICCALL ISZERO DUP1 ISZERO PUSH2 0x2B7 JUMPI RETURNDATASIZE PUSH0 PUSH0 RETURNDATACOPY RETURNDATASIZE PUSH0 REVERT JUMPDEST POP POP POP POP PUSH1 0x40 MLOAD RETURNDATASIZE PUSH1 0x1F NOT PUSH1 0x1F DUP3 ADD AND DUP3 ADD DUP1 PUSH1 0x40 MSTORE POP DUP2 ADD SWAP1 PUSH2 0x2DB SWAP2 SWAP1 PUSH2 0x455 JUMP JUMPDEST SWAP2 POP POP SWAP2 SWAP1 POP JUMP JUMPDEST PUSH0 PUSH20 0xFFFFFFFFFFFFFFFFFFFFFFFFFFFFFFFFFFFFFFFF DUP3 AND SWAP1 POP SWAP2 SWAP1 POP JUMP JUMPDEST PUSH0 PUSH2 0x30C DUP3 PUSH2 0x2E3 JUMP JUMPDEST SWAP1 POP SWAP2 SWAP1 POP JUMP JUMPDEST PUSH2 0x31C DUP2 PUSH2 0x302 JUMP JUMPDEST DUP3 MSTORE POP POP JUMP JUMPDEST PUSH0 PUSH1 0x20 DUP3 ADD SWAP1 POP PUSH2 0x335 PUSH0 DUP4 ADD DUP5 PUSH2 0x313 JUMP JUMPDEST SWAP3 SWAP2 POP POP JUMP JUMPDEST PUSH0 PUSH0 REVERT JUMPDEST PUSH0 DUP2 SWAP1 POP SWAP2 SWAP1 POP JUMP JUMPDEST PUSH2 0x351 DUP2 PUSH2 0x33F JUMP JUMPDEST DUP2 EQ PUSH2 0x35B JUMPI PUSH0 PUSH0 REVERT JUMPDEST POP JUMP JUMPDEST PUSH0 DUP2 CALLDATALOAD SWAP1 POP PUSH2 0x36C DUP2 PUSH2 0x348 JUMP JUMPDEST SWAP3 SWAP2 POP POP JUMP JUMPDEST PUSH0 PUSH1 0x20 DUP3 DUP5 SUB SLT ISZERO PUSH2 0x387 JUMPI PUSH2 0x386 PUSH2 0x33B JUMP JUMPDEST JUMPDEST PUSH0 PUSH2 0x394 DUP5 DUP3 DUP6 ADD PUSH2 0x35E JUMP JUMPDEST SWAP2 POP POP SWAP3 SWAP2 POP POP JUMP JUMPDEST PUSH2 0x3A6 DUP2 PUSH2 0x33F JUMP JUMPDEST DUP3 MSTORE POP POP JUMP JUMPDEST PUSH0 PUSH1 0x20 DUP3 ADD SWAP1 POP PUSH2 0x3BF PUSH0 DUP4 ADD DUP5 PUSH2 0x39D JUMP JUMPDEST SWAP3 SWAP2 POP POP JUMP JUMPDEST PUSH0 PUSH2 0x3CF DUP3 PUSH2 0x302 JUMP JUMPDEST SWAP1 POP SWAP2 SWAP1 POP JUMP JUMPDEST PUSH2 0x3DF DUP2 PUSH2 0x3C5 JUMP JUMPDEST DUP2 EQ PUSH2 0x3E9 JUMPI PUSH0 PUSH0 REVERT JUMPDEST POP JUMP JUMPDEST PUSH0 DUP2 MLOAD SWAP1 POP PUSH2 0x3FA DUP2 PUSH2 0x3D6 JUMP JUMPDEST SWAP3 SWAP2 POP POP JUMP JUMPDEST PUSH0 PUSH1 0x20 DUP3 DUP5 SUB SLT ISZERO PUSH2 0x415 JUMPI PUSH2 0x414 PUSH2 0x33B JUMP JUMPDEST JUMPDEST PUSH0 PUSH2 0x422 DUP5 DUP3 DUP6 ADD PUSH2 0x3EC JUMP JUMPDEST SWAP2 POP POP SWAP3 SWAP2 POP POP JUMP JUMPDEST PUSH2 0x434 DUP2 PUSH2 0x302 JUMP JUMPDEST DUP2 EQ PUSH2 0x43E JUMPI PUSH0 PUSH0 REVERT JUMPDEST POP JUMP JUMPDEST PUSH0 DUP2 MLOAD SWAP1 POP PUSH2 0x44F DUP2 PUSH2 0x42B JUMP JUMPDEST SWAP3 SWAP2 POP POP JUMP JUMPDEST PUSH0 PUSH1 0x20 DUP3 DUP5 SUB SLT ISZERO PUSH2 0x46A JUMPI PUSH2 0x469 PUSH2 0x33B JUMP JUMPDEST JUMPDEST PUSH0 PUSH2 0x477 DUP5 DUP3 DUP6 ADD PUSH2 0x441 JUMP JUMPDEST SWAP2 POP POP SWAP3 SWAP2 POP POP JUMP INVALID LOG2 PUSH5 0x6970667358 0x22 SLT KECCAK256 MULMOD SWAP4 RETURNDATASIZE 0xB9 DUP6 DELEGATECALL 0x22 PUSH0 PUSH10 0x28E550E03160E57CA319 SWAP7 MSIZE 0x2C 0x4C DUP10 0xAF 0x25 0xEA PUSH3 0x2007A7 0xE PUSH5 0x736F6C6343 STOP ADDMOD 0x1E STOP CALLER "
				},
				"gasEstimates": {
					"creation": {
						"codeDepositCost": "241200",
						"executionCost": "24556",
						"totalCost": "265756"
					},
					"external": {
						"resoleFixed()": "infinite",
						"resolve(bytes32)": "infinite"
					}
				},
				"methodIdentifiers": {
					"resoleFixed()": "5a6db0c6",
					"resolve(bytes32)": "5c23bdf5"
				}
			},
			"storageLayout": {
				"storage": [
					{
						"astId": 22,
						"contract": "docs.chain.link/samples/DataFeeds/EnsConsumer-Sepolia.sol:ENSConsumer",
						"label": "ens",
						"offset": 0,
						"slot": "0",
						"type": "t_contract(ENS)11"
					}
				],
				"types": {
					"t_contract(ENS)11": {
						"encoding": "inplace",
						"label": "contract ENS",
						"numberOfBytes": "20"
					}
				}
			},
			"userdoc": {
				"kind": "user",
				"methods": {},
				"version": 1
			}
		}
	}
}