{
	"CCIP/Sender.sol": {
		"Sender": {
			"abi": [
				{
					"inputs": [],
					"stateMutability": "nonpayable",
					"type": "constructor"
				},
				{
					"inputs": [
						{
							"internalType": "uint256",
							"name": "currentBalance",
							"type": "uint256"
						},
						{
							"internalType": "uint256",
							"name": "calculatedFees",
							"type": "uint256"
						}
					],
					"name": "NotEnoughBalance",
					"type": "error"
				},
				{
					"anonymous": false,
					"inputs": [
						{
							"indexed": true,
							"internalType": "bytes32",
							"name": "messageId",
							"type": "bytes32"
						},
						{
							"indexed": true,
							"internalType": "uint64",
							"name": "destinationChainSelector",
							"type": "uint64"
						},
						{
							"indexed": false,
							"internalType": "address",
							"name": "receiver",
							"type": "address"
						},
						{
							"indexed": false,
							"internalType": "string",
							"name": "text",
							"type": "string"
						},
						{
							"indexed": false,
							"internalType": "address",
							"name": "feeToken",
							"type": "address"
						},
						{
							"indexed": false,
							"internalType": "uint256",
							"name": "fees",
							"type": "uint256"
						}
					],
					"name": "MessageSent",
					"type": "event"
				},
				{
					"anonymous": false,
					"inputs": [
						{
							"indexed": true,
							"internalType": "address",
							"name": "from",
							"type": "address"
						},
						{
							"indexed": true,
							"internalType": "address",
							"name": "to",
							"type": "address"
						}
					],
					"name": "OwnershipTransferRequested",
					"type": "event"
				},
				{
					"anonymous": false,
					"inputs": [
						{
							"indexed": true,
							"internalType": "address",
							"name": "from",
							"type": "address"
						},
						{
							"indexed": true,
							"internalType": "address",
							"name": "to",
							"type": "address"
						}
					],
					"name": "OwnershipTransferred",
					"type": "event"
				},
				{
					"inputs": [],
					"name": "acceptOwnership",
					"outputs": [],
					"stateMutability": "nonpayable",
					"type": "function"
				},
				{
					"inputs": [],
					"name": "owner",
					"outputs": [
						{
							"internalType": "address",
							"name": "",
							"type": "address"
						}
					],
					"stateMutability": "view",
					"type": "function"
				},
				{
					"inputs": [
						{
							"internalType": "uint64",
							"name": "destinationChainSelector",
							"type": "uint64"
						},
						{
							"internalType": "address",
							"name": "receiver",
							"type": "address"
						},
						{
							"internalType": "string",
							"name": "text",
							"type": "string"
						}
					],
					"name": "sendMessage",
					"outputs": [
						{
							"internalType": "bytes32",
							"name": "messageId",
							"type": "bytes32"
						}
					],
					"stateMutability": "nonpayable",
					"type": "function"
				},
				{
					"inputs": [
						{
							"internalType": "address",
							"name": "to",
							"type": "address"
						}
					],
					"name": "transferOwnership",
					"outputs": [],
					"stateMutability": "nonpayable",
					"type": "function"
				}
			],
			"devdoc": {
				"kind": "dev",
				"methods": {
					"sendMessage(uint64,address,string)": {
						"details": "Assumes your contract has sufficient LINK.",
						"params": {
							"destinationChainSelector": "The identifier (aka selector) for the destination blockchain.",
							"receiver": "The address of the recipient on the destination blockchain.",
							"text": "The string text to be sent."
						},
						"returns": {
							"messageId": "The ID of the message that was sent."
						}
					}
				},
				"title": "- A simple contract for sending string data across chains.",
				"version": 1
			},
			"evm": {
				"assembly": "    /* \"CCIP/Sender.sol\":796:4994  contract Sender is OwnerIsCreator {... */\n  mstore(0x40, 0x80)\n    /* \"CCIP/Sender.sol\":1718:2016  constructor() {... */\n  callvalue\n  dup1\n  iszero\n  tag_1\n  jumpi\n  revert(0x00, 0x00)\ntag_1:\n  pop\n    /* \"@chainlink/contracts@1.4.0/src/v0.8/shared/access/OwnerIsCreator.sol\":291:301  msg.sender */\n  caller\n    /* \"@chainlink/contracts@1.4.0/src/v0.8/shared/access/ConfirmedOwner.sol\":355:363  newOwner */\n  dup1\n    /* \"@chainlink/contracts@1.4.0/src/v0.8/shared/access/ConfirmedOwner.sol\":373:374  0 */\n  0x00\n    /* \"@chainlink/contracts@1.4.0/src/v0.8/shared/access/ConfirmedOwnerWithProposal.sol\":618:619  0 */\n  0x00\n    /* \"@chainlink/contracts@1.4.0/src/v0.8/shared/access/ConfirmedOwnerWithProposal.sol\":598:620  newOwner != address(0) */\n  0xffffffffffffffffffffffffffffffffffffffff\n  and\n    /* \"@chainlink/contracts@1.4.0/src/v0.8/shared/access/ConfirmedOwnerWithProposal.sol\":598:606  newOwner */\n  dup3\n    /* \"@chainlink/contracts@1.4.0/src/v0.8/shared/access/ConfirmedOwnerWithProposal.sol\":598:620  newOwner != address(0) */\n  0xffffffffffffffffffffffffffffffffffffffff\n  and\n  sub\n    /* \"@chainlink/contracts@1.4.0/src/v0.8/shared/access/ConfirmedOwnerWithProposal.sol\":590:649  require(newOwner != address(0), \"Cannot set owner to zero\") */\n  tag_7\n  jumpi\n  mload(0x40)\n  0x08c379a000000000000000000000000000000000000000000000000000000000\n  dup2\n  mstore\n  0x04\n  add\n  tag_8\n  swap1\n  tag_9\n  jump\t// in\ntag_8:\n  mload(0x40)\n  dup1\n  swap2\n  sub\n  swap1\n  revert\ntag_7:\n    /* \"@chainlink/contracts@1.4.0/src/v0.8/shared/access/ConfirmedOwnerWithProposal.sol\":666:674  newOwner */\n  dup2\n    /* \"@chainlink/contracts@1.4.0/src/v0.8/shared/access/ConfirmedOwnerWithProposal.sol\":656:663  s_owner */\n  0x00\n  0x00\n    /* \"@chainlink/contracts@1.4.0/src/v0.8/shared/access/ConfirmedOwnerWithProposal.sol\":656:674  s_owner = newOwner */\n  0x0100\n  exp\n  dup2\n  sload\n  dup2\n  0xffffffffffffffffffffffffffffffffffffffff\n  mul\n  not\n  and\n  swap1\n  dup4\n  0xffffffffffffffffffffffffffffffffffffffff\n  and\n  mul\n  or\n  swap1\n  sstore\n  pop\n    /* \"@chainlink/contracts@1.4.0/src/v0.8/shared/access/ConfirmedOwnerWithProposal.sol\":708:709  0 */\n  0x00\n    /* \"@chainlink/contracts@1.4.0/src/v0.8/shared/access/ConfirmedOwnerWithProposal.sol\":684:710  pendingOwner != address(0) */\n  0xffffffffffffffffffffffffffffffffffffffff\n  and\n    /* \"@chainlink/contracts@1.4.0/src/v0.8/shared/access/ConfirmedOwnerWithProposal.sol\":684:696  pendingOwner */\n  dup2\n    /* \"@chainlink/contracts@1.4.0/src/v0.8/shared/access/ConfirmedOwnerWithProposal.sol\":684:710  pendingOwner != address(0) */\n  0xffffffffffffffffffffffffffffffffffffffff\n  and\n  eq\n    /* \"@chainlink/contracts@1.4.0/src/v0.8/shared/access/ConfirmedOwnerWithProposal.sol\":680:759  if (pendingOwner != address(0)) {... */\n  tag_10\n  jumpi\n    /* \"@chainlink/contracts@1.4.0/src/v0.8/shared/access/ConfirmedOwnerWithProposal.sol\":720:752  _transferOwnership(pendingOwner) */\n  tag_11\n    /* \"@chainlink/contracts@1.4.0/src/v0.8/shared/access/ConfirmedOwnerWithProposal.sol\":739:751  pendingOwner */\n  dup2\n    /* \"@chainlink/contracts@1.4.0/src/v0.8/shared/access/ConfirmedOwnerWithProposal.sol\":720:738  _transferOwnership */\n  shl(0x20, tag_12)\n    /* \"@chainlink/contracts@1.4.0/src/v0.8/shared/access/ConfirmedOwnerWithProposal.sol\":720:752  _transferOwnership(pendingOwner) */\n  0x20\n  shr\n  jump\t// in\ntag_11:\n    /* \"@chainlink/contracts@1.4.0/src/v0.8/shared/access/ConfirmedOwnerWithProposal.sol\":680:759  if (pendingOwner != address(0)) {... */\ntag_10:\n    /* \"@chainlink/contracts@1.4.0/src/v0.8/shared/access/ConfirmedOwnerWithProposal.sol\":481:763  constructor(address newOwner, address pendingOwner) {... */\n  pop\n  pop\n    /* \"@chainlink/contracts@1.4.0/src/v0.8/shared/access/ConfirmedOwner.sol\":298:379  constructor(address newOwner) ConfirmedOwnerWithProposal(newOwner, address(0)) {} */\n  pop\n    /* \"CCIP/Sender.sol\":1789:1804  address _router */\n  0x00\n    /* \"CCIP/Sender.sol\":1806:1848  0x0BF3dE8c5D3e8A2B34D2BEeB17ABfCeBaf363A59 */\n  0x0bf3de8c5d3e8a2b34d2beeb17abfcebaf363a59\n    /* \"CCIP/Sender.sol\":1789:1848  address _router =0x0BF3dE8c5D3e8A2B34D2BEeB17ABfCeBaf363A59 */\n  swap1\n  pop\n    /* \"CCIP/Sender.sol\":1858:1871  address _link */\n  0x00\n    /* \"CCIP/Sender.sol\":1875:1917  0x779877A7B0D9E8603169DdbD7836e478b4624789 */\n  0x779877a7b0d9e8603169ddbd7836e478b4624789\n    /* \"CCIP/Sender.sol\":1858:1917  address _link =  0x779877A7B0D9E8603169DdbD7836e478b4624789 */\n  swap1\n  pop\n    /* \"CCIP/Sender.sol\":1952:1959  _router */\n  dup2\n    /* \"CCIP/Sender.sol\":1927:1935  s_router */\n  0x02\n  0x00\n    /* \"CCIP/Sender.sol\":1927:1960  s_router = IRouterClient(_router) */\n  0x0100\n  exp\n  dup2\n  sload\n  dup2\n  0xffffffffffffffffffffffffffffffffffffffff\n  mul\n  not\n  and\n  swap1\n  dup4\n  0xffffffffffffffffffffffffffffffffffffffff\n  and\n  mul\n  or\n  swap1\n  sstore\n  pop\n    /* \"CCIP/Sender.sol\":2003:2008  _link */\n  dup1\n    /* \"CCIP/Sender.sol\":1970:1981  s_linkToken */\n  0x03\n  0x00\n    /* \"CCIP/Sender.sol\":1970:2009  s_linkToken = LinkTokenInterface(_link) */\n  0x0100\n  exp\n  dup2\n  sload\n  dup2\n  0xffffffffffffffffffffffffffffffffffffffff\n  mul\n  not\n  and\n  swap1\n  dup4\n  0xffffffffffffffffffffffffffffffffffffffff\n  and\n  mul\n  or\n  swap1\n  sstore\n  pop\n    /* \"CCIP/Sender.sol\":1732:2016  {... */\n  pop\n  pop\n    /* \"CCIP/Sender.sol\":796:4994  contract Sender is OwnerIsCreator {... */\n  jump(tag_16)\n    /* \"@chainlink/contracts@1.4.0/src/v0.8/shared/access/ConfirmedOwnerWithProposal.sol\":1536:1775  function _transferOwnership(address to) private {... */\ntag_12:\n    /* \"@chainlink/contracts@1.4.0/src/v0.8/shared/access/ConfirmedOwnerWithProposal.sol\":1655:1665  msg.sender */\n  caller\n    /* \"@chainlink/contracts@1.4.0/src/v0.8/shared/access/ConfirmedOwnerWithProposal.sol\":1649:1665  to != msg.sender */\n  0xffffffffffffffffffffffffffffffffffffffff\n  and\n    /* \"@chainlink/contracts@1.4.0/src/v0.8/shared/access/ConfirmedOwnerWithProposal.sol\":1649:1651  to */\n  dup2\n    /* \"@chainlink/contracts@1.4.0/src/v0.8/shared/access/ConfirmedOwnerWithProposal.sol\":1649:1665  to != msg.sender */\n  0xffffffffffffffffffffffffffffffffffffffff\n  and\n  sub\n    /* \"@chainlink/contracts@1.4.0/src/v0.8/shared/access/ConfirmedOwnerWithProposal.sol\":1641:1693  require(to != msg.sender, \"Cannot transfer to self\") */\n  tag_18\n  jumpi\n  mload(0x40)\n  0x08c379a000000000000000000000000000000000000000000000000000000000\n  dup2\n  mstore\n  0x04\n  add\n  tag_19\n  swap1\n  tag_20\n  jump\t// in\ntag_19:\n  mload(0x40)\n  dup1\n  swap2\n  sub\n  swap1\n  revert\ntag_18:\n    /* \"@chainlink/contracts@1.4.0/src/v0.8/shared/access/ConfirmedOwnerWithProposal.sol\":1717:1719  to */\n  dup1\n    /* \"@chainlink/contracts@1.4.0/src/v0.8/shared/access/ConfirmedOwnerWithProposal.sol\":1700:1714  s_pendingOwner */\n  0x01\n  0x00\n    /* \"@chainlink/contracts@1.4.0/src/v0.8/shared/access/ConfirmedOwnerWithProposal.sol\":1700:1719  s_pendingOwner = to */\n  0x0100\n  exp\n  dup2\n  sload\n  dup2\n  0xffffffffffffffffffffffffffffffffffffffff\n  mul\n  not\n  and\n  swap1\n  dup4\n  0xffffffffffffffffffffffffffffffffffffffff\n  and\n  mul\n  or\n  swap1\n  sstore\n  pop\n    /* \"@chainlink/contracts@1.4.0/src/v0.8/shared/access/ConfirmedOwnerWithProposal.sol\":1767:1769  to */\n  dup1\n    /* \"@chainlink/contracts@1.4.0/src/v0.8/shared/access/ConfirmedOwnerWithProposal.sol\":1731:1770  OwnershipTransferRequested(s_owner, to) */\n  0xffffffffffffffffffffffffffffffffffffffff\n  and\n    /* \"@chainlink/contracts@1.4.0/src/v0.8/shared/access/ConfirmedOwnerWithProposal.sol\":1758:1765  s_owner */\n  0x00\n  0x00\n  swap1\n  sload\n  swap1\n  0x0100\n  exp\n  swap1\n  div\n  0xffffffffffffffffffffffffffffffffffffffff\n  and\n    /* \"@chainlink/contracts@1.4.0/src/v0.8/shared/access/ConfirmedOwnerWithProposal.sol\":1731:1770  OwnershipTransferRequested(s_owner, to) */\n  0xffffffffffffffffffffffffffffffffffffffff\n  and\n  0xed8889f560326eb138920d842192f0eb3dd22b4f139c87a2c57538e05bae1278\n  mload(0x40)\n  mload(0x40)\n  dup1\n  swap2\n  sub\n  swap1\n  log3\n    /* \"@chainlink/contracts@1.4.0/src/v0.8/shared/access/ConfirmedOwnerWithProposal.sol\":1536:1775  function _transferOwnership(address to) private {... */\n  pop\n  jump\t// out\n    /* \"#utility.yul\":7:176   */\ntag_21:\n    /* \"#utility.yul\":91:102   */\n  0x00\n    /* \"#utility.yul\":125:131   */\n  dup3\n    /* \"#utility.yul\":120:123   */\n  dup3\n    /* \"#utility.yul\":113:132   */\n  mstore\n    /* \"#utility.yul\":165:169   */\n  0x20\n    /* \"#utility.yul\":160:163   */\n  dup3\n    /* \"#utility.yul\":156:170   */\n  add\n    /* \"#utility.yul\":141:170   */\n  swap1\n  pop\n    /* \"#utility.yul\":7:176   */\n  swap3\n  swap2\n  pop\n  pop\n  jump\t// out\n    /* \"#utility.yul\":182:356   */\ntag_22:\n    /* \"#utility.yul\":322:348   */\n  0x43616e6e6f7420736574206f776e657220746f207a65726f0000000000000000\n    /* \"#utility.yul\":318:319   */\n  0x00\n    /* \"#utility.yul\":310:316   */\n  dup3\n    /* \"#utility.yul\":306:320   */\n  add\n    /* \"#utility.yul\":299:349   */\n  mstore\n    /* \"#utility.yul\":182:356   */\n  pop\n  jump\t// out\n    /* \"#utility.yul\":362:728   */\ntag_23:\n    /* \"#utility.yul\":504:507   */\n  0x00\n    /* \"#utility.yul\":525:592   */\n  tag_30\n    /* \"#utility.yul\":589:591   */\n  0x18\n    /* \"#utility.yul\":584:587   */\n  dup4\n    /* \"#utility.yul\":525:592   */\n  tag_21\n  jump\t// in\ntag_30:\n    /* \"#utility.yul\":518:592   */\n  swap2\n  pop\n    /* \"#utility.yul\":601:694   */\n  tag_31\n    /* \"#utility.yul\":690:693   */\n  dup3\n    /* \"#utility.yul\":601:694   */\n  tag_22\n  jump\t// in\ntag_31:\n    /* \"#utility.yul\":719:721   */\n  0x20\n    /* \"#utility.yul\":714:717   */\n  dup3\n    /* \"#utility.yul\":710:722   */\n  add\n    /* \"#utility.yul\":703:722   */\n  swap1\n  pop\n    /* \"#utility.yul\":362:728   */\n  swap2\n  swap1\n  pop\n  jump\t// out\n    /* \"#utility.yul\":734:1153   */\ntag_9:\n    /* \"#utility.yul\":900:904   */\n  0x00\n    /* \"#utility.yul\":938:940   */\n  0x20\n    /* \"#utility.yul\":927:936   */\n  dup3\n    /* \"#utility.yul\":923:941   */\n  add\n    /* \"#utility.yul\":915:941   */\n  swap1\n  pop\n    /* \"#utility.yul\":987:996   */\n  dup2\n    /* \"#utility.yul\":981:985   */\n  dup2\n    /* \"#utility.yul\":977:997   */\n  sub\n    /* \"#utility.yul\":973:974   */\n  0x00\n    /* \"#utility.yul\":962:971   */\n  dup4\n    /* \"#utility.yul\":958:975   */\n  add\n    /* \"#utility.yul\":951:998   */\n  mstore\n    /* \"#utility.yul\":1015:1146   */\n  tag_33\n    /* \"#utility.yul\":1141:1145   */\n  dup2\n    /* \"#utility.yul\":1015:1146   */\n  tag_23\n  jump\t// in\ntag_33:\n    /* \"#utility.yul\":1007:1146   */\n  swap1\n  pop\n    /* \"#utility.yul\":734:1153   */\n  swap2\n  swap1\n  pop\n  jump\t// out\n    /* \"#utility.yul\":1159:1332   */\ntag_24:\n    /* \"#utility.yul\":1299:1324   */\n  0x43616e6e6f74207472616e7366657220746f2073656c66000000000000000000\n    /* \"#utility.yul\":1295:1296   */\n  0x00\n    /* \"#utility.yul\":1287:1293   */\n  dup3\n    /* \"#utility.yul\":1283:1297   */\n  add\n    /* \"#utility.yul\":1276:1325   */\n  mstore\n    /* \"#utility.yul\":1159:1332   */\n  pop\n  jump\t// out\n    /* \"#utility.yul\":1338:1704   */\ntag_25:\n    /* \"#utility.yul\":1480:1483   */\n  0x00\n    /* \"#utility.yul\":1501:1568   */\n  tag_36\n    /* \"#utility.yul\":1565:1567   */\n  0x17\n    /* \"#utility.yul\":1560:1563   */\n  dup4\n    /* \"#utility.yul\":1501:1568   */\n  tag_21\n  jump\t// in\ntag_36:\n    /* \"#utility.yul\":1494:1568   */\n  swap2\n  pop\n    /* \"#utility.yul\":1577:1670   */\n  tag_37\n    /* \"#utility.yul\":1666:1669   */\n  dup3\n    /* \"#utility.yul\":1577:1670   */\n  tag_24\n  jump\t// in\ntag_37:\n    /* \"#utility.yul\":1695:1697   */\n  0x20\n    /* \"#utility.yul\":1690:1693   */\n  dup3\n    /* \"#utility.yul\":1686:1698   */\n  add\n    /* \"#utility.yul\":1679:1698   */\n  swap1\n  pop\n    /* \"#utility.yul\":1338:1704   */\n  swap2\n  swap1\n  pop\n  jump\t// out\n    /* \"#utility.yul\":1710:2129   */\ntag_20:\n    /* \"#utility.yul\":1876:1880   */\n  0x00\n    /* \"#utility.yul\":1914:1916   */\n  0x20\n    /* \"#utility.yul\":1903:1912   */\n  dup3\n    /* \"#utility.yul\":1899:1917   */\n  add\n    /* \"#utility.yul\":1891:1917   */\n  swap1\n  pop\n    /* \"#utility.yul\":1963:1972   */\n  dup2\n    /* \"#utility.yul\":1957:1961   */\n  dup2\n    /* \"#utility.yul\":1953:1973   */\n  sub\n    /* \"#utility.yul\":1949:1950   */\n  0x00\n    /* \"#utility.yul\":1938:1947   */\n  dup4\n    /* \"#utility.yul\":1934:1951   */\n  add\n    /* \"#utility.yul\":1927:1974   */\n  mstore\n    /* \"#utility.yul\":1991:2122   */\n  tag_39\n    /* \"#utility.yul\":2117:2121   */\n  dup2\n    /* \"#utility.yul\":1991:2122   */\n  tag_25\n  jump\t// in\ntag_39:\n    /* \"#utility.yul\":1983:2122   */\n  swap1\n  pop\n    /* \"#utility.yul\":1710:2129   */\n  swap2\n  swap1\n  pop\n  jump\t// out\n    /* \"CCIP/Sender.sol\":796:4994  contract Sender is OwnerIsCreator {... */\ntag_16:\n  dataSize(sub_0)\n  dup1\n  dataOffset(sub_0)\n  0x00\n  codecopy\n  0x00\n  return\nstop\n\nsub_0: assembly {\n        /* \"CCIP/Sender.sol\":796:4994  contract Sender is OwnerIsCreator {... */\n      mstore(0x40, 0x80)\n      callvalue\n      dup1\n      iszero\n      tag_1\n      jumpi\n      revert(0x00, 0x00)\n    tag_1:\n      pop\n      jumpi(tag_2, lt(calldatasize, 0x04))\n      shr(0xe0, calldataload(0x00))\n      dup1\n      0x0eb5ad45\n      eq\n      tag_3\n      jumpi\n      dup1\n      0x79ba5097\n      eq\n      tag_4\n      jumpi\n      dup1\n      0x8da5cb5b\n      eq\n      tag_5\n      jumpi\n      dup1\n      0xf2fde38b\n      eq\n      tag_6\n      jumpi\n    tag_2:\n      revert(0x00, 0x00)\n        /* \"CCIP/Sender.sol\":2440:4992  function sendMessage(... */\n    tag_3:\n      tag_7\n      0x04\n      dup1\n      calldatasize\n      sub\n      dup2\n      add\n      swap1\n      tag_8\n      swap2\n      swap1\n      tag_9\n      jump\t// in\n    tag_8:\n      tag_10\n      jump\t// in\n    tag_7:\n      mload(0x40)\n      tag_11\n      swap2\n      swap1\n      tag_12\n      jump\t// in\n    tag_11:\n      mload(0x40)\n      dup1\n      swap2\n      sub\n      swap1\n      return\n        /* \"@chainlink/contracts@1.4.0/src/v0.8/shared/access/ConfirmedOwnerWithProposal.sol\":1026:1342  function acceptOwnership() external override {... */\n    tag_4:\n      tag_13\n      tag_14\n      jump\t// in\n    tag_13:\n      stop\n        /* \"@chainlink/contracts@1.4.0/src/v0.8/shared/access/ConfirmedOwnerWithProposal.sol\":1382:1463  function owner() public view override returns (address) {... */\n    tag_5:\n      tag_15\n      tag_16\n      jump\t// in\n    tag_15:\n      mload(0x40)\n      tag_17\n      swap2\n      swap1\n      tag_18\n      jump\t// in\n    tag_17:\n      mload(0x40)\n      dup1\n      swap2\n      sub\n      swap1\n      return\n        /* \"@chainlink/contracts@1.4.0/src/v0.8/shared/access/ConfirmedOwnerWithProposal.sol\":847:945  function transferOwnership(address to) public override onlyOwner {... */\n    tag_6:\n      tag_19\n      0x04\n      dup1\n      calldatasize\n      sub\n      dup2\n      add\n      swap1\n      tag_20\n      swap2\n      swap1\n      tag_21\n      jump\t// in\n    tag_20:\n      tag_22\n      jump\t// in\n    tag_19:\n      stop\n        /* \"CCIP/Sender.sol\":2440:4992  function sendMessage(... */\n    tag_10:\n        /* \"CCIP/Sender.sol\":2592:2609  bytes32 messageId */\n      0x00\n        /* \"@chainlink/contracts@1.4.0/src/v0.8/shared/access/ConfirmedOwnerWithProposal.sol\":2075:2095  _validateOwnership() */\n      tag_24\n        /* \"@chainlink/contracts@1.4.0/src/v0.8/shared/access/ConfirmedOwnerWithProposal.sol\":2075:2093  _validateOwnership */\n      tag_25\n        /* \"@chainlink/contracts@1.4.0/src/v0.8/shared/access/ConfirmedOwnerWithProposal.sol\":2075:2095  _validateOwnership() */\n      jump\t// in\n    tag_24:\n        /* \"CCIP/Sender.sol\":2735:2778  Client.EVM2AnyMessage memory evm2AnyMessage */\n      0x00\n        /* \"CCIP/Sender.sol\":2781:4056  Client.EVM2AnyMessage({... */\n      mload(0x40)\n      dup1\n      0xa0\n      add\n      0x40\n      mstore\n      dup1\n        /* \"CCIP/Sender.sol\":2838:2846  receiver */\n      dup7\n        /* \"CCIP/Sender.sol\":2827:2847  abi.encode(receiver) */\n      add(0x20, mload(0x40))\n      tag_27\n      swap2\n      swap1\n      tag_18\n      jump\t// in\n    tag_27:\n      mload(0x40)\n      0x20\n      dup2\n      dup4\n      sub\n      sub\n      dup2\n      mstore\n      swap1\n      0x40\n      mstore\n        /* \"CCIP/Sender.sol\":2781:4056  Client.EVM2AnyMessage({... */\n      dup2\n      mstore\n      0x20\n      add\n        /* \"CCIP/Sender.sol\":2910:2914  text */\n      dup6\n      dup6\n        /* \"CCIP/Sender.sol\":2899:2915  abi.encode(text) */\n      add(0x20, mload(0x40))\n      tag_28\n      swap3\n      swap2\n      swap1\n      tag_29\n      jump\t// in\n    tag_28:\n      mload(0x40)\n      0x20\n      dup2\n      dup4\n      sub\n      sub\n      dup2\n      mstore\n      swap1\n      0x40\n      mstore\n        /* \"CCIP/Sender.sol\":2781:4056  Client.EVM2AnyMessage({... */\n      dup2\n      mstore\n      0x20\n      add\n        /* \"CCIP/Sender.sol\":2993:2994  0 */\n      0x00\n        /* \"CCIP/Sender.sol\":2965:2995  new Client.EVMTokenAmount[](0) */\n      0xffffffffffffffff\n      dup2\n      gt\n      iszero\n      tag_30\n      jumpi\n      tag_31\n      tag_32\n      jump\t// in\n    tag_31:\n    tag_30:\n      mload(0x40)\n      swap1\n      dup1\n      dup3\n      mstore\n      dup1\n      0x20\n      mul\n      0x20\n      add\n      dup3\n      add\n      0x40\n      mstore\n      dup1\n      iszero\n      tag_33\n      jumpi\n      dup2\n      0x20\n      add\n    tag_34:\n      tag_35\n      tag_36\n      jump\t// in\n    tag_35:\n      dup2\n      mstore\n      0x20\n      add\n      swap1\n      0x01\n      swap1\n      sub\n      swap1\n      dup2\n      tag_34\n      jumpi\n      swap1\n      pop\n    tag_33:\n      pop\n        /* \"CCIP/Sender.sol\":2781:4056  Client.EVM2AnyMessage({... */\n      dup2\n      mstore\n      0x20\n      add\n        /* \"CCIP/Sender.sol\":4033:4044  s_linkToken */\n      0x03\n      0x00\n      swap1\n      sload\n      swap1\n      0x0100\n      exp\n      swap1\n      div\n      0xffffffffffffffffffffffffffffffffffffffff\n      and\n        /* \"CCIP/Sender.sol\":2781:4056  Client.EVM2AnyMessage({... */\n      0xffffffffffffffffffffffffffffffffffffffff\n      and\n      dup2\n      mstore\n      0x20\n      add\n        /* \"CCIP/Sender.sol\":3071:3921  Client._argsToBytes(... */\n      tag_37\n        /* \"CCIP/Sender.sol\":3618:3907  Client.GenericExtraArgsV2({... */\n      mload(0x40)\n      dup1\n      0x40\n      add\n      0x40\n      mstore\n      dup1\n        /* \"CCIP/Sender.sol\":3676:3683  200_000 */\n      0x030d40\n        /* \"CCIP/Sender.sol\":3618:3907  Client.GenericExtraArgsV2({... */\n      dup2\n      mstore\n      0x20\n      add\n        /* \"CCIP/Sender.sol\":3786:3790  true */\n      0x01\n        /* \"CCIP/Sender.sol\":3618:3907  Client.GenericExtraArgsV2({... */\n      iszero\n      iszero\n      dup2\n      mstore\n      pop\n        /* \"CCIP/Sender.sol\":3071:3090  Client._argsToBytes */\n      tag_38\n        /* \"CCIP/Sender.sol\":3071:3921  Client._argsToBytes(... */\n      jump\t// in\n    tag_37:\n        /* \"CCIP/Sender.sol\":2781:4056  Client.EVM2AnyMessage({... */\n      dup2\n      mstore\n      pop\n        /* \"CCIP/Sender.sol\":2735:4056  Client.EVM2AnyMessage memory evm2AnyMessage = Client.EVM2AnyMessage({... */\n      swap1\n      pop\n        /* \"CCIP/Sender.sol\":4119:4131  uint256 fees */\n      0x00\n        /* \"CCIP/Sender.sol\":4134:4142  s_router */\n      0x02\n      0x00\n      swap1\n      sload\n      swap1\n      0x0100\n      exp\n      swap1\n      div\n      0xffffffffffffffffffffffffffffffffffffffff\n      and\n        /* \"CCIP/Sender.sol\":4134:4149  s_router.getFee */\n      0xffffffffffffffffffffffffffffffffffffffff\n      and\n      0x20487ded\n        /* \"CCIP/Sender.sol\":4163:4187  destinationChainSelector */\n      dup9\n        /* \"CCIP/Sender.sol\":4201:4215  evm2AnyMessage */\n      dup5\n        /* \"CCIP/Sender.sol\":4134:4225  s_router.getFee(... */\n      mload(0x40)\n      dup4\n      0xffffffff\n      and\n      0xe0\n      shl\n      dup2\n      mstore\n      0x04\n      add\n      tag_39\n      swap3\n      swap2\n      swap1\n      tag_40\n      jump\t// in\n    tag_39:\n      0x20\n      mload(0x40)\n      dup1\n      dup4\n      sub\n      dup2\n      dup7\n      gas\n      staticcall\n      iszero\n      dup1\n      iszero\n      tag_42\n      jumpi\n      returndatacopy(0x00, 0x00, returndatasize)\n      revert(0x00, returndatasize)\n    tag_42:\n      pop\n      pop\n      pop\n      pop\n      mload(0x40)\n      returndatasize\n      not(0x1f)\n      0x1f\n      dup3\n      add\n      and\n      dup3\n      add\n      dup1\n      0x40\n      mstore\n      pop\n      dup2\n      add\n      swap1\n      tag_43\n      swap2\n      swap1\n      tag_44\n      jump\t// in\n    tag_43:\n        /* \"CCIP/Sender.sol\":4119:4225  uint256 fees = s_router.getFee(... */\n      swap1\n      pop\n        /* \"CCIP/Sender.sol\":4247:4258  s_linkToken */\n      0x03\n      0x00\n      swap1\n      sload\n      swap1\n      0x0100\n      exp\n      swap1\n      div\n      0xffffffffffffffffffffffffffffffffffffffff\n      and\n        /* \"CCIP/Sender.sol\":4247:4268  s_linkToken.balanceOf */\n      0xffffffffffffffffffffffffffffffffffffffff\n      and\n      0x70a08231\n        /* \"CCIP/Sender.sol\":4277:4281  this */\n      address\n        /* \"CCIP/Sender.sol\":4247:4283  s_linkToken.balanceOf(address(this)) */\n      mload(0x40)\n      dup3\n      0xffffffff\n      and\n      0xe0\n      shl\n      dup2\n      mstore\n      0x04\n      add\n      tag_45\n      swap2\n      swap1\n      tag_18\n      jump\t// in\n    tag_45:\n      0x20\n      mload(0x40)\n      dup1\n      dup4\n      sub\n      dup2\n      dup7\n      gas\n      staticcall\n      iszero\n      dup1\n      iszero\n      tag_47\n      jumpi\n      returndatacopy(0x00, 0x00, returndatasize)\n      revert(0x00, returndatasize)\n    tag_47:\n      pop\n      pop\n      pop\n      pop\n      mload(0x40)\n      returndatasize\n      not(0x1f)\n      0x1f\n      dup3\n      add\n      and\n      dup3\n      add\n      dup1\n      0x40\n      mstore\n      pop\n      dup2\n      add\n      swap1\n      tag_48\n      swap2\n      swap1\n      tag_44\n      jump\t// in\n    tag_48:\n        /* \"CCIP/Sender.sol\":4240:4244  fees */\n      dup2\n        /* \"CCIP/Sender.sol\":4240:4283  fees > s_linkToken.balanceOf(address(this)) */\n      gt\n        /* \"CCIP/Sender.sol\":4236:4364  if (fees > s_linkToken.balanceOf(address(this)))... */\n      iszero\n      tag_49\n      jumpi\n        /* \"CCIP/Sender.sol\":4321:4332  s_linkToken */\n      0x03\n      0x00\n      swap1\n      sload\n      swap1\n      0x0100\n      exp\n      swap1\n      div\n      0xffffffffffffffffffffffffffffffffffffffff\n      and\n        /* \"CCIP/Sender.sol\":4321:4342  s_linkToken.balanceOf */\n      0xffffffffffffffffffffffffffffffffffffffff\n      and\n      0x70a08231\n        /* \"CCIP/Sender.sol\":4351:4355  this */\n      address\n        /* \"CCIP/Sender.sol\":4321:4357  s_linkToken.balanceOf(address(this)) */\n      mload(0x40)\n      dup3\n      0xffffffff\n      and\n      0xe0\n      shl\n      dup2\n      mstore\n      0x04\n      add\n      tag_50\n      swap2\n      swap1\n      tag_18\n      jump\t// in\n    tag_50:\n      0x20\n      mload(0x40)\n      dup1\n      dup4\n      sub\n      dup2\n      dup7\n      gas\n      staticcall\n      iszero\n      dup1\n      iszero\n      tag_52\n      jumpi\n      returndatacopy(0x00, 0x00, returndatasize)\n      revert(0x00, returndatasize)\n    tag_52:\n      pop\n      pop\n      pop\n      pop\n      mload(0x40)\n      returndatasize\n      not(0x1f)\n      0x1f\n      dup3\n      add\n      and\n      dup3\n      add\n      dup1\n      0x40\n      mstore\n      pop\n      dup2\n      add\n      swap1\n      tag_53\n      swap2\n      swap1\n      tag_44\n      jump\t// in\n    tag_53:\n        /* \"CCIP/Sender.sol\":4359:4363  fees */\n      dup2\n        /* \"CCIP/Sender.sol\":4304:4364  NotEnoughBalance(s_linkToken.balanceOf(address(this)), fees) */\n      mload(0x40)\n      0x8f0f420600000000000000000000000000000000000000000000000000000000\n      dup2\n      mstore\n      0x04\n      add\n      tag_54\n      swap3\n      swap2\n      swap1\n      tag_55\n      jump\t// in\n    tag_54:\n      mload(0x40)\n      dup1\n      swap2\n      sub\n      swap1\n      revert\n        /* \"CCIP/Sender.sol\":4236:4364  if (fees > s_linkToken.balanceOf(address(this)))... */\n    tag_49:\n        /* \"CCIP/Sender.sol\":4482:4493  s_linkToken */\n      0x03\n      0x00\n      swap1\n      sload\n      swap1\n      0x0100\n      exp\n      swap1\n      div\n      0xffffffffffffffffffffffffffffffffffffffff\n      and\n        /* \"CCIP/Sender.sol\":4482:4501  s_linkToken.approve */\n      0xffffffffffffffffffffffffffffffffffffffff\n      and\n      0x095ea7b3\n        /* \"CCIP/Sender.sol\":4510:4518  s_router */\n      0x02\n      0x00\n      swap1\n      sload\n      swap1\n      0x0100\n      exp\n      swap1\n      div\n      0xffffffffffffffffffffffffffffffffffffffff\n      and\n        /* \"CCIP/Sender.sol\":4521:4525  fees */\n      dup4\n        /* \"CCIP/Sender.sol\":4482:4526  s_linkToken.approve(address(s_router), fees) */\n      mload(0x40)\n      dup4\n      0xffffffff\n      and\n      0xe0\n      shl\n      dup2\n      mstore\n      0x04\n      add\n      tag_56\n      swap3\n      swap2\n      swap1\n      tag_57\n      jump\t// in\n    tag_56:\n      0x20\n      mload(0x40)\n      dup1\n      dup4\n      sub\n      dup2\n      0x00\n      dup8\n      gas\n      call\n      iszero\n      dup1\n      iszero\n      tag_59\n      jumpi\n      returndatacopy(0x00, 0x00, returndatasize)\n      revert(0x00, returndatasize)\n    tag_59:\n      pop\n      pop\n      pop\n      pop\n      mload(0x40)\n      returndatasize\n      not(0x1f)\n      0x1f\n      dup3\n      add\n      and\n      dup3\n      add\n      dup1\n      0x40\n      mstore\n      pop\n      dup2\n      add\n      swap1\n      tag_60\n      swap2\n      swap1\n      tag_61\n      jump\t// in\n    tag_60:\n      pop\n        /* \"CCIP/Sender.sol\":4630:4638  s_router */\n      0x02\n      0x00\n      swap1\n      sload\n      swap1\n      0x0100\n      exp\n      swap1\n      div\n      0xffffffffffffffffffffffffffffffffffffffff\n      and\n        /* \"CCIP/Sender.sol\":4630:4647  s_router.ccipSend */\n      0xffffffffffffffffffffffffffffffffffffffff\n      and\n      0x96f4e9f9\n        /* \"CCIP/Sender.sol\":4648:4672  destinationChainSelector */\n      dup9\n        /* \"CCIP/Sender.sol\":4674:4688  evm2AnyMessage */\n      dup5\n        /* \"CCIP/Sender.sol\":4630:4689  s_router.ccipSend(destinationChainSelector, evm2AnyMessage) */\n      mload(0x40)\n      dup4\n      0xffffffff\n      and\n      0xe0\n      shl\n      dup2\n      mstore\n      0x04\n      add\n      tag_62\n      swap3\n      swap2\n      swap1\n      tag_40\n      jump\t// in\n    tag_62:\n      0x20\n      mload(0x40)\n      dup1\n      dup4\n      sub\n      dup2\n      0x00\n      dup8\n      gas\n      call\n      iszero\n      dup1\n      iszero\n      tag_64\n      jumpi\n      returndatacopy(0x00, 0x00, returndatasize)\n      revert(0x00, returndatasize)\n    tag_64:\n      pop\n      pop\n      pop\n      pop\n      mload(0x40)\n      returndatasize\n      not(0x1f)\n      0x1f\n      dup3\n      add\n      and\n      dup3\n      add\n      dup1\n      0x40\n      mstore\n      pop\n      dup2\n      add\n      swap1\n      tag_65\n      swap2\n      swap1\n      tag_66\n      jump\t// in\n    tag_65:\n        /* \"CCIP/Sender.sol\":4618:4689  messageId = s_router.ccipSend(destinationChainSelector, evm2AnyMessage) */\n      swap3\n      pop\n        /* \"CCIP/Sender.sol\":4799:4823  destinationChainSelector */\n      dup7\n        /* \"CCIP/Sender.sol\":4751:4925  MessageSent(... */\n      0xffffffffffffffff\n      and\n        /* \"CCIP/Sender.sol\":4776:4785  messageId */\n      dup4\n        /* \"CCIP/Sender.sol\":4751:4925  MessageSent(... */\n      0xd36445359b3c6e26c120659aef090ce0f2eb005cf9af450d11aa1225609b4f4d\n        /* \"CCIP/Sender.sol\":4837:4845  receiver */\n      dup9\n        /* \"CCIP/Sender.sol\":4859:4863  text */\n      dup9\n      dup9\n        /* \"CCIP/Sender.sol\":4885:4896  s_linkToken */\n      0x03\n      0x00\n      swap1\n      sload\n      swap1\n      0x0100\n      exp\n      swap1\n      div\n      0xffffffffffffffffffffffffffffffffffffffff\n      and\n        /* \"CCIP/Sender.sol\":4911:4915  fees */\n      dup8\n        /* \"CCIP/Sender.sol\":4751:4925  MessageSent(... */\n      mload(0x40)\n      tag_67\n      swap6\n      swap5\n      swap4\n      swap3\n      swap2\n      swap1\n      tag_68\n      jump\t// in\n    tag_67:\n      mload(0x40)\n      dup1\n      swap2\n      sub\n      swap1\n      log3\n        /* \"CCIP/Sender.sol\":4969:4985  return messageId */\n      pop\n      pop\n        /* \"CCIP/Sender.sol\":2440:4992  function sendMessage(... */\n      swap5\n      swap4\n      pop\n      pop\n      pop\n      pop\n      jump\t// out\n        /* \"@chainlink/contracts@1.4.0/src/v0.8/shared/access/ConfirmedOwnerWithProposal.sol\":1026:1342  function acceptOwnership() external override {... */\n    tag_14:\n        /* \"@chainlink/contracts@1.4.0/src/v0.8/shared/access/ConfirmedOwnerWithProposal.sol\":1150:1164  s_pendingOwner */\n      0x01\n      0x00\n      swap1\n      sload\n      swap1\n      0x0100\n      exp\n      swap1\n      div\n      0xffffffffffffffffffffffffffffffffffffffff\n      and\n        /* \"@chainlink/contracts@1.4.0/src/v0.8/shared/access/ConfirmedOwnerWithProposal.sol\":1136:1164  msg.sender == s_pendingOwner */\n      0xffffffffffffffffffffffffffffffffffffffff\n      and\n        /* \"@chainlink/contracts@1.4.0/src/v0.8/shared/access/ConfirmedOwnerWithProposal.sol\":1136:1146  msg.sender */\n      caller\n        /* \"@chainlink/contracts@1.4.0/src/v0.8/shared/access/ConfirmedOwnerWithProposal.sol\":1136:1164  msg.sender == s_pendingOwner */\n      0xffffffffffffffffffffffffffffffffffffffff\n      and\n      eq\n        /* \"@chainlink/contracts@1.4.0/src/v0.8/shared/access/ConfirmedOwnerWithProposal.sol\":1128:1191  require(msg.sender == s_pendingOwner, \"Must be proposed owner\") */\n      tag_70\n      jumpi\n      mload(0x40)\n      0x08c379a000000000000000000000000000000000000000000000000000000000\n      dup2\n      mstore\n      0x04\n      add\n      tag_71\n      swap1\n      tag_72\n      jump\t// in\n    tag_71:\n      mload(0x40)\n      dup1\n      swap2\n      sub\n      swap1\n      revert\n    tag_70:\n        /* \"@chainlink/contracts@1.4.0/src/v0.8/shared/access/ConfirmedOwnerWithProposal.sol\":1198:1214  address oldOwner */\n      0x00\n        /* \"@chainlink/contracts@1.4.0/src/v0.8/shared/access/ConfirmedOwnerWithProposal.sol\":1217:1224  s_owner */\n      0x00\n      0x00\n      swap1\n      sload\n      swap1\n      0x0100\n      exp\n      swap1\n      div\n      0xffffffffffffffffffffffffffffffffffffffff\n      and\n        /* \"@chainlink/contracts@1.4.0/src/v0.8/shared/access/ConfirmedOwnerWithProposal.sol\":1198:1224  address oldOwner = s_owner */\n      swap1\n      pop\n        /* \"@chainlink/contracts@1.4.0/src/v0.8/shared/access/ConfirmedOwnerWithProposal.sol\":1240:1250  msg.sender */\n      caller\n        /* \"@chainlink/contracts@1.4.0/src/v0.8/shared/access/ConfirmedOwnerWithProposal.sol\":1230:1237  s_owner */\n      0x00\n      0x00\n        /* \"@chainlink/contracts@1.4.0/src/v0.8/shared/access/ConfirmedOwnerWithProposal.sol\":1230:1250  s_owner = msg.sender */\n      0x0100\n      exp\n      dup2\n      sload\n      dup2\n      0xffffffffffffffffffffffffffffffffffffffff\n      mul\n      not\n      and\n      swap1\n      dup4\n      0xffffffffffffffffffffffffffffffffffffffff\n      and\n      mul\n      or\n      swap1\n      sstore\n      pop\n        /* \"@chainlink/contracts@1.4.0/src/v0.8/shared/access/ConfirmedOwnerWithProposal.sol\":1281:1282  0 */\n      0x00\n        /* \"@chainlink/contracts@1.4.0/src/v0.8/shared/access/ConfirmedOwnerWithProposal.sol\":1256:1270  s_pendingOwner */\n      0x01\n      0x00\n        /* \"@chainlink/contracts@1.4.0/src/v0.8/shared/access/ConfirmedOwnerWithProposal.sol\":1256:1283  s_pendingOwner = address(0) */\n      0x0100\n      exp\n      dup2\n      sload\n      dup2\n      0xffffffffffffffffffffffffffffffffffffffff\n      mul\n      not\n      and\n      swap1\n      dup4\n      0xffffffffffffffffffffffffffffffffffffffff\n      and\n      mul\n      or\n      swap1\n      sstore\n      pop\n        /* \"@chainlink/contracts@1.4.0/src/v0.8/shared/access/ConfirmedOwnerWithProposal.sol\":1326:1336  msg.sender */\n      caller\n        /* \"@chainlink/contracts@1.4.0/src/v0.8/shared/access/ConfirmedOwnerWithProposal.sol\":1295:1337  OwnershipTransferred(oldOwner, msg.sender) */\n      0xffffffffffffffffffffffffffffffffffffffff\n      and\n        /* \"@chainlink/contracts@1.4.0/src/v0.8/shared/access/ConfirmedOwnerWithProposal.sol\":1316:1324  oldOwner */\n      dup2\n        /* \"@chainlink/contracts@1.4.0/src/v0.8/shared/access/ConfirmedOwnerWithProposal.sol\":1295:1337  OwnershipTransferred(oldOwner, msg.sender) */\n      0xffffffffffffffffffffffffffffffffffffffff\n      and\n      0x8be0079c531659141344cd1fd0a4f28419497f9722a3daafe3b4186f6b6457e0\n      mload(0x40)\n      mload(0x40)\n      dup1\n      swap2\n      sub\n      swap1\n      log3\n        /* \"@chainlink/contracts@1.4.0/src/v0.8/shared/access/ConfirmedOwnerWithProposal.sol\":1071:1342  {... */\n      pop\n        /* \"@chainlink/contracts@1.4.0/src/v0.8/shared/access/ConfirmedOwnerWithProposal.sol\":1026:1342  function acceptOwnership() external override {... */\n      jump\t// out\n        /* \"@chainlink/contracts@1.4.0/src/v0.8/shared/access/ConfirmedOwnerWithProposal.sol\":1382:1463  function owner() public view override returns (address) {... */\n    tag_16:\n        /* \"@chainlink/contracts@1.4.0/src/v0.8/shared/access/ConfirmedOwnerWithProposal.sol\":1429:1436  address */\n      0x00\n        /* \"@chainlink/contracts@1.4.0/src/v0.8/shared/access/ConfirmedOwnerWithProposal.sol\":1451:1458  s_owner */\n      0x00\n      0x00\n      swap1\n      sload\n      swap1\n      0x0100\n      exp\n      swap1\n      div\n      0xffffffffffffffffffffffffffffffffffffffff\n      and\n        /* \"@chainlink/contracts@1.4.0/src/v0.8/shared/access/ConfirmedOwnerWithProposal.sol\":1444:1458  return s_owner */\n      swap1\n      pop\n        /* \"@chainlink/contracts@1.4.0/src/v0.8/shared/access/ConfirmedOwnerWithProposal.sol\":1382:1463  function owner() public view override returns (address) {... */\n      swap1\n      jump\t// out\n        /* \"@chainlink/contracts@1.4.0/src/v0.8/shared/access/ConfirmedOwnerWithProposal.sol\":847:945  function transferOwnership(address to) public override onlyOwner {... */\n    tag_22:\n        /* \"@chainlink/contracts@1.4.0/src/v0.8/shared/access/ConfirmedOwnerWithProposal.sol\":2075:2095  _validateOwnership() */\n      tag_75\n        /* \"@chainlink/contracts@1.4.0/src/v0.8/shared/access/ConfirmedOwnerWithProposal.sol\":2075:2093  _validateOwnership */\n      tag_25\n        /* \"@chainlink/contracts@1.4.0/src/v0.8/shared/access/ConfirmedOwnerWithProposal.sol\":2075:2095  _validateOwnership() */\n      jump\t// in\n    tag_75:\n        /* \"@chainlink/contracts@1.4.0/src/v0.8/shared/access/ConfirmedOwnerWithProposal.sol\":918:940  _transferOwnership(to) */\n      tag_77\n        /* \"@chainlink/contracts@1.4.0/src/v0.8/shared/access/ConfirmedOwnerWithProposal.sol\":937:939  to */\n      dup2\n        /* \"@chainlink/contracts@1.4.0/src/v0.8/shared/access/ConfirmedOwnerWithProposal.sol\":918:936  _transferOwnership */\n      tag_78\n        /* \"@chainlink/contracts@1.4.0/src/v0.8/shared/access/ConfirmedOwnerWithProposal.sol\":918:940  _transferOwnership(to) */\n      jump\t// in\n    tag_77:\n        /* \"@chainlink/contracts@1.4.0/src/v0.8/shared/access/ConfirmedOwnerWithProposal.sol\":847:945  function transferOwnership(address to) public override onlyOwner {... */\n      pop\n      jump\t// out\n        /* \"@chainlink/contracts@1.4.0/src/v0.8/shared/access/ConfirmedOwnerWithProposal.sol\":1809:1971  function _validateOwnership() internal view {... */\n    tag_25:\n        /* \"@chainlink/contracts@1.4.0/src/v0.8/shared/access/ConfirmedOwnerWithProposal.sol\":1932:1939  s_owner */\n      0x00\n      0x00\n      swap1\n      sload\n      swap1\n      0x0100\n      exp\n      swap1\n      div\n      0xffffffffffffffffffffffffffffffffffffffff\n      and\n        /* \"@chainlink/contracts@1.4.0/src/v0.8/shared/access/ConfirmedOwnerWithProposal.sol\":1918:1939  msg.sender == s_owner */\n      0xffffffffffffffffffffffffffffffffffffffff\n      and\n        /* \"@chainlink/contracts@1.4.0/src/v0.8/shared/access/ConfirmedOwnerWithProposal.sol\":1918:1928  msg.sender */\n      caller\n        /* \"@chainlink/contracts@1.4.0/src/v0.8/shared/access/ConfirmedOwnerWithProposal.sol\":1918:1939  msg.sender == s_owner */\n      0xffffffffffffffffffffffffffffffffffffffff\n      and\n      eq\n        /* \"@chainlink/contracts@1.4.0/src/v0.8/shared/access/ConfirmedOwnerWithProposal.sol\":1910:1966  require(msg.sender == s_owner, \"Only callable by owner\") */\n      tag_80\n      jumpi\n      mload(0x40)\n      0x08c379a000000000000000000000000000000000000000000000000000000000\n      dup2\n      mstore\n      0x04\n      add\n      tag_81\n      swap1\n      tag_82\n      jump\t// in\n    tag_81:\n      mload(0x40)\n      dup1\n      swap2\n      sub\n      swap1\n      revert\n    tag_80:\n        /* \"@chainlink/contracts@1.4.0/src/v0.8/shared/access/ConfirmedOwnerWithProposal.sol\":1809:1971  function _validateOwnership() internal view {... */\n      jump\t// out\n        /* \"@chainlink/contracts-ccip@1.6.0/contracts/libraries/Client.sol\":4328:4514  function _argsToBytes(... */\n    tag_38:\n        /* \"@chainlink/contracts-ccip@1.6.0/contracts/libraries/Client.sol\":4418:4434  bytes memory bts */\n      0x60\n        /* \"@chainlink/contracts-ccip@1.6.0/contracts/libraries/Client.sol\":1861:1871  0x181dcf10 */\n      0x181dcf10\n        /* \"@chainlink/contracts-ccip@1.6.0/contracts/libraries/Client.sol\":4472:4497  GENERIC_EXTRA_ARGS_V2_TAG */\n      0xe0\n      shl\n        /* \"@chainlink/contracts-ccip@1.6.0/contracts/libraries/Client.sol\":4499:4508  extraArgs */\n      dup3\n        /* \"@chainlink/contracts-ccip@1.6.0/contracts/libraries/Client.sol\":4449:4509  abi.encodeWithSelector(GENERIC_EXTRA_ARGS_V2_TAG, extraArgs) */\n      add(0x24, mload(0x40))\n      tag_84\n      swap2\n      swap1\n      tag_85\n      jump\t// in\n    tag_84:\n      mload(0x40)\n      0x20\n      dup2\n      dup4\n      sub\n      sub\n      dup2\n      mstore\n      swap1\n      0x40\n      mstore\n      swap1\n      not(0xffffffffffffffffffffffffffffffffffffffffffffffffffffffff)\n      and\n      0x20\n      dup3\n      add\n      dup1\n      mload\n      0xffffffffffffffffffffffffffffffffffffffffffffffffffffffff\n      dup4\n      dup2\n      dup4\n      and\n      or\n      dup4\n      mstore\n      pop\n      pop\n      pop\n      pop\n        /* \"@chainlink/contracts-ccip@1.6.0/contracts/libraries/Client.sol\":4442:4509  return abi.encodeWithSelector(GENERIC_EXTRA_ARGS_V2_TAG, extraArgs) */\n      swap1\n      pop\n        /* \"@chainlink/contracts-ccip@1.6.0/contracts/libraries/Client.sol\":4328:4514  function _argsToBytes(... */\n      swap2\n      swap1\n      pop\n      jump\t// out\n        /* \"@chainlink/contracts@1.4.0/src/v0.8/shared/access/ConfirmedOwnerWithProposal.sol\":1536:1775  function _transferOwnership(address to) private {... */\n    tag_78:\n        /* \"@chainlink/contracts@1.4.0/src/v0.8/shared/access/ConfirmedOwnerWithProposal.sol\":1655:1665  msg.sender */\n      caller\n        /* \"@chainlink/contracts@1.4.0/src/v0.8/shared/access/ConfirmedOwnerWithProposal.sol\":1649:1665  to != msg.sender */\n      0xffffffffffffffffffffffffffffffffffffffff\n      and\n        /* \"@chainlink/contracts@1.4.0/src/v0.8/shared/access/ConfirmedOwnerWithProposal.sol\":1649:1651  to */\n      dup2\n        /* \"@chainlink/contracts@1.4.0/src/v0.8/shared/access/ConfirmedOwnerWithProposal.sol\":1649:1665  to != msg.sender */\n      0xffffffffffffffffffffffffffffffffffffffff\n      and\n      sub\n        /* \"@chainlink/contracts@1.4.0/src/v0.8/shared/access/ConfirmedOwnerWithProposal.sol\":1641:1693  require(to != msg.sender, \"Cannot transfer to self\") */\n      tag_87\n      jumpi\n      mload(0x40)\n      0x08c379a000000000000000000000000000000000000000000000000000000000\n      dup2\n      mstore\n      0x04\n      add\n      tag_88\n      swap1\n      tag_89\n      jump\t// in\n    tag_88:\n      mload(0x40)\n      dup1\n      swap2\n      sub\n      swap1\n      revert\n    tag_87:\n        /* \"@chainlink/contracts@1.4.0/src/v0.8/shared/access/ConfirmedOwnerWithProposal.sol\":1717:1719  to */\n      dup1\n        /* \"@chainlink/contracts@1.4.0/src/v0.8/shared/access/ConfirmedOwnerWithProposal.sol\":1700:1714  s_pendingOwner */\n      0x01\n      0x00\n        /* \"@chainlink/contracts@1.4.0/src/v0.8/shared/access/ConfirmedOwnerWithProposal.sol\":1700:1719  s_pendingOwner = to */\n      0x0100\n      exp\n      dup2\n      sload\n      dup2\n      0xffffffffffffffffffffffffffffffffffffffff\n      mul\n      not\n      and\n      swap1\n      dup4\n      0xffffffffffffffffffffffffffffffffffffffff\n      and\n      mul\n      or\n      swap1\n      sstore\n      pop\n        /* \"@chainlink/contracts@1.4.0/src/v0.8/shared/access/ConfirmedOwnerWithProposal.sol\":1767:1769  to */\n      dup1\n        /* \"@chainlink/contracts@1.4.0/src/v0.8/shared/access/ConfirmedOwnerWithProposal.sol\":1731:1770  OwnershipTransferRequested(s_owner, to) */\n      0xffffffffffffffffffffffffffffffffffffffff\n      and\n        /* \"@chainlink/contracts@1.4.0/src/v0.8/shared/access/ConfirmedOwnerWithProposal.sol\":1758:1765  s_owner */\n      0x00\n      0x00\n      swap1\n      sload\n      swap1\n      0x0100\n      exp\n      swap1\n      div\n      0xffffffffffffffffffffffffffffffffffffffff\n      and\n        /* \"@chainlink/contracts@1.4.0/src/v0.8/shared/access/ConfirmedOwnerWithProposal.sol\":1731:1770  OwnershipTransferRequested(s_owner, to) */\n      0xffffffffffffffffffffffffffffffffffffffff\n      and\n      0xed8889f560326eb138920d842192f0eb3dd22b4f139c87a2c57538e05bae1278\n      mload(0x40)\n      mload(0x40)\n      dup1\n      swap2\n      sub\n      swap1\n      log3\n        /* \"@chainlink/contracts@1.4.0/src/v0.8/shared/access/ConfirmedOwnerWithProposal.sol\":1536:1775  function _transferOwnership(address to) private {... */\n      pop\n      jump\t// out\n    tag_36:\n      mload(0x40)\n      dup1\n      0x40\n      add\n      0x40\n      mstore\n      dup1\n      and(0xffffffffffffffffffffffffffffffffffffffff, 0x00)\n      dup2\n      mstore\n      0x20\n      add\n      0x00\n      dup2\n      mstore\n      pop\n      swap1\n      jump\t// out\n        /* \"#utility.yul\":88:205   */\n    tag_91:\n        /* \"#utility.yul\":197:198   */\n      0x00\n        /* \"#utility.yul\":194:195   */\n      0x00\n        /* \"#utility.yul\":187:199   */\n      revert\n        /* \"#utility.yul\":211:328   */\n    tag_92:\n        /* \"#utility.yul\":320:321   */\n      0x00\n        /* \"#utility.yul\":317:318   */\n      0x00\n        /* \"#utility.yul\":310:322   */\n      revert\n        /* \"#utility.yul\":334:435   */\n    tag_93:\n        /* \"#utility.yul\":370:377   */\n      0x00\n        /* \"#utility.yul\":410:428   */\n      0xffffffffffffffff\n        /* \"#utility.yul\":403:408   */\n      dup3\n        /* \"#utility.yul\":399:429   */\n      and\n        /* \"#utility.yul\":388:429   */\n      swap1\n      pop\n        /* \"#utility.yul\":334:435   */\n      swap2\n      swap1\n      pop\n      jump\t// out\n        /* \"#utility.yul\":441:561   */\n    tag_94:\n        /* \"#utility.yul\":513:536   */\n      tag_149\n        /* \"#utility.yul\":530:535   */\n      dup2\n        /* \"#utility.yul\":513:536   */\n      tag_93\n      jump\t// in\n    tag_149:\n        /* \"#utility.yul\":506:511   */\n      dup2\n        /* \"#utility.yul\":503:537   */\n      eq\n        /* \"#utility.yul\":493:555   */\n      tag_150\n      jumpi\n        /* \"#utility.yul\":551:552   */\n      0x00\n        /* \"#utility.yul\":548:549   */\n      0x00\n        /* \"#utility.yul\":541:553   */\n      revert\n        /* \"#utility.yul\":493:555   */\n    tag_150:\n        /* \"#utility.yul\":441:561   */\n      pop\n      jump\t// out\n        /* \"#utility.yul\":567:704   */\n    tag_95:\n        /* \"#utility.yul\":612:617   */\n      0x00\n        /* \"#utility.yul\":650:656   */\n      dup2\n        /* \"#utility.yul\":637:657   */\n      calldataload\n        /* \"#utility.yul\":628:657   */\n      swap1\n      pop\n        /* \"#utility.yul\":666:698   */\n      tag_152\n        /* \"#utility.yul\":692:697   */\n      dup2\n        /* \"#utility.yul\":666:698   */\n      tag_94\n      jump\t// in\n    tag_152:\n        /* \"#utility.yul\":567:704   */\n      swap3\n      swap2\n      pop\n      pop\n      jump\t// out\n        /* \"#utility.yul\":710:836   */\n    tag_96:\n        /* \"#utility.yul\":747:754   */\n      0x00\n        /* \"#utility.yul\":787:829   */\n      0xffffffffffffffffffffffffffffffffffffffff\n        /* \"#utility.yul\":780:785   */\n      dup3\n        /* \"#utility.yul\":776:830   */\n      and\n        /* \"#utility.yul\":765:830   */\n      swap1\n      pop\n        /* \"#utility.yul\":710:836   */\n      swap2\n      swap1\n      pop\n      jump\t// out\n        /* \"#utility.yul\":842:938   */\n    tag_97:\n        /* \"#utility.yul\":879:886   */\n      0x00\n        /* \"#utility.yul\":908:932   */\n      tag_155\n        /* \"#utility.yul\":926:931   */\n      dup3\n        /* \"#utility.yul\":908:932   */\n      tag_96\n      jump\t// in\n    tag_155:\n        /* \"#utility.yul\":897:932   */\n      swap1\n      pop\n        /* \"#utility.yul\":842:938   */\n      swap2\n      swap1\n      pop\n      jump\t// out\n        /* \"#utility.yul\":944:1066   */\n    tag_98:\n        /* \"#utility.yul\":1017:1041   */\n      tag_157\n        /* \"#utility.yul\":1035:1040   */\n      dup2\n        /* \"#utility.yul\":1017:1041   */\n      tag_97\n      jump\t// in\n    tag_157:\n        /* \"#utility.yul\":1010:1015   */\n      dup2\n        /* \"#utility.yul\":1007:1042   */\n      eq\n        /* \"#utility.yul\":997:1060   */\n      tag_158\n      jumpi\n        /* \"#utility.yul\":1056:1057   */\n      0x00\n        /* \"#utility.yul\":1053:1054   */\n      0x00\n        /* \"#utility.yul\":1046:1058   */\n      revert\n        /* \"#utility.yul\":997:1060   */\n    tag_158:\n        /* \"#utility.yul\":944:1066   */\n      pop\n      jump\t// out\n        /* \"#utility.yul\":1072:1211   */\n    tag_99:\n        /* \"#utility.yul\":1118:1123   */\n      0x00\n        /* \"#utility.yul\":1156:1162   */\n      dup2\n        /* \"#utility.yul\":1143:1163   */\n      calldataload\n        /* \"#utility.yul\":1134:1163   */\n      swap1\n      pop\n        /* \"#utility.yul\":1172:1205   */\n      tag_160\n        /* \"#utility.yul\":1199:1204   */\n      dup2\n        /* \"#utility.yul\":1172:1205   */\n      tag_98\n      jump\t// in\n    tag_160:\n        /* \"#utility.yul\":1072:1211   */\n      swap3\n      swap2\n      pop\n      pop\n      jump\t// out\n        /* \"#utility.yul\":1217:1334   */\n    tag_100:\n        /* \"#utility.yul\":1326:1327   */\n      0x00\n        /* \"#utility.yul\":1323:1324   */\n      0x00\n        /* \"#utility.yul\":1316:1328   */\n      revert\n        /* \"#utility.yul\":1340:1457   */\n    tag_101:\n        /* \"#utility.yul\":1449:1450   */\n      0x00\n        /* \"#utility.yul\":1446:1447   */\n      0x00\n        /* \"#utility.yul\":1439:1451   */\n      revert\n        /* \"#utility.yul\":1463:1580   */\n    tag_102:\n        /* \"#utility.yul\":1572:1573   */\n      0x00\n        /* \"#utility.yul\":1569:1570   */\n      0x00\n        /* \"#utility.yul\":1562:1574   */\n      revert\n        /* \"#utility.yul\":1600:2153   */\n    tag_103:\n        /* \"#utility.yul\":1658:1666   */\n      0x00\n        /* \"#utility.yul\":1668:1674   */\n      0x00\n        /* \"#utility.yul\":1718:1721   */\n      dup4\n        /* \"#utility.yul\":1711:1715   */\n      0x1f\n        /* \"#utility.yul\":1703:1709   */\n      dup5\n        /* \"#utility.yul\":1699:1716   */\n      add\n        /* \"#utility.yul\":1695:1722   */\n      slt\n        /* \"#utility.yul\":1685:1807   */\n      tag_165\n      jumpi\n        /* \"#utility.yul\":1726:1805   */\n      tag_166\n      tag_100\n      jump\t// in\n    tag_166:\n        /* \"#utility.yul\":1685:1807   */\n    tag_165:\n        /* \"#utility.yul\":1839:1845   */\n      dup3\n        /* \"#utility.yul\":1826:1846   */\n      calldataload\n        /* \"#utility.yul\":1816:1846   */\n      swap1\n      pop\n        /* \"#utility.yul\":1869:1887   */\n      0xffffffffffffffff\n        /* \"#utility.yul\":1861:1867   */\n      dup2\n        /* \"#utility.yul\":1858:1888   */\n      gt\n        /* \"#utility.yul\":1855:1972   */\n      iszero\n      tag_167\n      jumpi\n        /* \"#utility.yul\":1891:1970   */\n      tag_168\n      tag_101\n      jump\t// in\n    tag_168:\n        /* \"#utility.yul\":1855:1972   */\n    tag_167:\n        /* \"#utility.yul\":2005:2009   */\n      0x20\n        /* \"#utility.yul\":1997:2003   */\n      dup4\n        /* \"#utility.yul\":1993:2010   */\n      add\n        /* \"#utility.yul\":1981:2010   */\n      swap2\n      pop\n        /* \"#utility.yul\":2059:2062   */\n      dup4\n        /* \"#utility.yul\":2051:2055   */\n      0x01\n        /* \"#utility.yul\":2043:2049   */\n      dup3\n        /* \"#utility.yul\":2039:2056   */\n      mul\n        /* \"#utility.yul\":2029:2037   */\n      dup4\n        /* \"#utility.yul\":2025:2057   */\n      add\n        /* \"#utility.yul\":2022:2063   */\n      gt\n        /* \"#utility.yul\":2019:2147   */\n      iszero\n      tag_169\n      jumpi\n        /* \"#utility.yul\":2066:2145   */\n      tag_170\n      tag_102\n      jump\t// in\n    tag_170:\n        /* \"#utility.yul\":2019:2147   */\n    tag_169:\n        /* \"#utility.yul\":1600:2153   */\n      swap3\n      pop\n      swap3\n      swap1\n      pop\n      jump\t// out\n        /* \"#utility.yul\":2159:2976   */\n    tag_9:\n        /* \"#utility.yul\":2247:2253   */\n      0x00\n        /* \"#utility.yul\":2255:2261   */\n      0x00\n        /* \"#utility.yul\":2263:2269   */\n      0x00\n        /* \"#utility.yul\":2271:2277   */\n      0x00\n        /* \"#utility.yul\":2320:2322   */\n      0x60\n        /* \"#utility.yul\":2308:2317   */\n      dup6\n        /* \"#utility.yul\":2299:2306   */\n      dup8\n        /* \"#utility.yul\":2295:2318   */\n      sub\n        /* \"#utility.yul\":2291:2323   */\n      slt\n        /* \"#utility.yul\":2288:2407   */\n      iszero\n      tag_172\n      jumpi\n        /* \"#utility.yul\":2326:2405   */\n      tag_173\n      tag_91\n      jump\t// in\n    tag_173:\n        /* \"#utility.yul\":2288:2407   */\n    tag_172:\n        /* \"#utility.yul\":2446:2447   */\n      0x00\n        /* \"#utility.yul\":2471:2523   */\n      tag_174\n        /* \"#utility.yul\":2515:2522   */\n      dup8\n        /* \"#utility.yul\":2506:2512   */\n      dup3\n        /* \"#utility.yul\":2495:2504   */\n      dup9\n        /* \"#utility.yul\":2491:2513   */\n      add\n        /* \"#utility.yul\":2471:2523   */\n      tag_95\n      jump\t// in\n    tag_174:\n        /* \"#utility.yul\":2461:2523   */\n      swap5\n      pop\n        /* \"#utility.yul\":2417:2533   */\n      pop\n        /* \"#utility.yul\":2572:2574   */\n      0x20\n        /* \"#utility.yul\":2598:2651   */\n      tag_175\n        /* \"#utility.yul\":2643:2650   */\n      dup8\n        /* \"#utility.yul\":2634:2640   */\n      dup3\n        /* \"#utility.yul\":2623:2632   */\n      dup9\n        /* \"#utility.yul\":2619:2641   */\n      add\n        /* \"#utility.yul\":2598:2651   */\n      tag_99\n      jump\t// in\n    tag_175:\n        /* \"#utility.yul\":2588:2651   */\n      swap4\n      pop\n        /* \"#utility.yul\":2543:2661   */\n      pop\n        /* \"#utility.yul\":2728:2730   */\n      0x40\n        /* \"#utility.yul\":2717:2726   */\n      dup6\n        /* \"#utility.yul\":2713:2731   */\n      add\n        /* \"#utility.yul\":2700:2732   */\n      calldataload\n        /* \"#utility.yul\":2759:2777   */\n      0xffffffffffffffff\n        /* \"#utility.yul\":2751:2757   */\n      dup2\n        /* \"#utility.yul\":2748:2778   */\n      gt\n        /* \"#utility.yul\":2745:2862   */\n      iszero\n      tag_176\n      jumpi\n        /* \"#utility.yul\":2781:2860   */\n      tag_177\n      tag_92\n      jump\t// in\n    tag_177:\n        /* \"#utility.yul\":2745:2862   */\n    tag_176:\n        /* \"#utility.yul\":2894:2959   */\n      tag_178\n        /* \"#utility.yul\":2951:2958   */\n      dup8\n        /* \"#utility.yul\":2942:2948   */\n      dup3\n        /* \"#utility.yul\":2931:2940   */\n      dup9\n        /* \"#utility.yul\":2927:2949   */\n      add\n        /* \"#utility.yul\":2894:2959   */\n      tag_103\n      jump\t// in\n    tag_178:\n        /* \"#utility.yul\":2876:2959   */\n      swap3\n      pop\n      swap3\n      pop\n        /* \"#utility.yul\":2671:2969   */\n      pop\n        /* \"#utility.yul\":2159:2976   */\n      swap3\n      swap6\n      swap2\n      swap5\n      pop\n      swap3\n      pop\n      jump\t// out\n        /* \"#utility.yul\":2982:3059   */\n    tag_104:\n        /* \"#utility.yul\":3019:3026   */\n      0x00\n        /* \"#utility.yul\":3048:3053   */\n      dup2\n        /* \"#utility.yul\":3037:3053   */\n      swap1\n      pop\n        /* \"#utility.yul\":2982:3059   */\n      swap2\n      swap1\n      pop\n      jump\t// out\n        /* \"#utility.yul\":3065:3183   */\n    tag_105:\n        /* \"#utility.yul\":3152:3176   */\n      tag_181\n        /* \"#utility.yul\":3170:3175   */\n      dup2\n        /* \"#utility.yul\":3152:3176   */\n      tag_104\n      jump\t// in\n    tag_181:\n        /* \"#utility.yul\":3147:3150   */\n      dup3\n        /* \"#utility.yul\":3140:3177   */\n      mstore\n        /* \"#utility.yul\":3065:3183   */\n      pop\n      pop\n      jump\t// out\n        /* \"#utility.yul\":3189:3411   */\n    tag_12:\n        /* \"#utility.yul\":3282:3286   */\n      0x00\n        /* \"#utility.yul\":3320:3322   */\n      0x20\n        /* \"#utility.yul\":3309:3318   */\n      dup3\n        /* \"#utility.yul\":3305:3323   */\n      add\n        /* \"#utility.yul\":3297:3323   */\n      swap1\n      pop\n        /* \"#utility.yul\":3333:3404   */\n      tag_183\n        /* \"#utility.yul\":3401:3402   */\n      0x00\n        /* \"#utility.yul\":3390:3399   */\n      dup4\n        /* \"#utility.yul\":3386:3403   */\n      add\n        /* \"#utility.yul\":3377:3383   */\n      dup5\n        /* \"#utility.yul\":3333:3404   */\n      tag_105\n      jump\t// in\n    tag_183:\n        /* \"#utility.yul\":3189:3411   */\n      swap3\n      swap2\n      pop\n      pop\n      jump\t// out\n        /* \"#utility.yul\":3417:3535   */\n    tag_106:\n        /* \"#utility.yul\":3504:3528   */\n      tag_185\n        /* \"#utility.yul\":3522:3527   */\n      dup2\n        /* \"#utility.yul\":3504:3528   */\n      tag_97\n      jump\t// in\n    tag_185:\n        /* \"#utility.yul\":3499:3502   */\n      dup3\n        /* \"#utility.yul\":3492:3529   */\n      mstore\n        /* \"#utility.yul\":3417:3535   */\n      pop\n      pop\n      jump\t// out\n        /* \"#utility.yul\":3541:3763   */\n    tag_18:\n        /* \"#utility.yul\":3634:3638   */\n      0x00\n        /* \"#utility.yul\":3672:3674   */\n      0x20\n        /* \"#utility.yul\":3661:3670   */\n      dup3\n        /* \"#utility.yul\":3657:3675   */\n      add\n        /* \"#utility.yul\":3649:3675   */\n      swap1\n      pop\n        /* \"#utility.yul\":3685:3756   */\n      tag_187\n        /* \"#utility.yul\":3753:3754   */\n      0x00\n        /* \"#utility.yul\":3742:3751   */\n      dup4\n        /* \"#utility.yul\":3738:3755   */\n      add\n        /* \"#utility.yul\":3729:3735   */\n      dup5\n        /* \"#utility.yul\":3685:3756   */\n      tag_106\n      jump\t// in\n    tag_187:\n        /* \"#utility.yul\":3541:3763   */\n      swap3\n      swap2\n      pop\n      pop\n      jump\t// out\n        /* \"#utility.yul\":3769:4098   */\n    tag_21:\n        /* \"#utility.yul\":3828:3834   */\n      0x00\n        /* \"#utility.yul\":3877:3879   */\n      0x20\n        /* \"#utility.yul\":3865:3874   */\n      dup3\n        /* \"#utility.yul\":3856:3863   */\n      dup5\n        /* \"#utility.yul\":3852:3875   */\n      sub\n        /* \"#utility.yul\":3848:3880   */\n      slt\n        /* \"#utility.yul\":3845:3964   */\n      iszero\n      tag_189\n      jumpi\n        /* \"#utility.yul\":3883:3962   */\n      tag_190\n      tag_91\n      jump\t// in\n    tag_190:\n        /* \"#utility.yul\":3845:3964   */\n    tag_189:\n        /* \"#utility.yul\":4003:4004   */\n      0x00\n        /* \"#utility.yul\":4028:4081   */\n      tag_191\n        /* \"#utility.yul\":4073:4080   */\n      dup5\n        /* \"#utility.yul\":4064:4070   */\n      dup3\n        /* \"#utility.yul\":4053:4062   */\n      dup6\n        /* \"#utility.yul\":4049:4071   */\n      add\n        /* \"#utility.yul\":4028:4081   */\n      tag_99\n      jump\t// in\n    tag_191:\n        /* \"#utility.yul\":4018:4081   */\n      swap2\n      pop\n        /* \"#utility.yul\":3974:4091   */\n      pop\n        /* \"#utility.yul\":3769:4098   */\n      swap3\n      swap2\n      pop\n      pop\n      jump\t// out\n        /* \"#utility.yul\":4104:4273   */\n    tag_107:\n        /* \"#utility.yul\":4188:4199   */\n      0x00\n        /* \"#utility.yul\":4222:4228   */\n      dup3\n        /* \"#utility.yul\":4217:4220   */\n      dup3\n        /* \"#utility.yul\":4210:4229   */\n      mstore\n        /* \"#utility.yul\":4262:4266   */\n      0x20\n        /* \"#utility.yul\":4257:4260   */\n      dup3\n        /* \"#utility.yul\":4253:4267   */\n      add\n        /* \"#utility.yul\":4238:4267   */\n      swap1\n      pop\n        /* \"#utility.yul\":4104:4273   */\n      swap3\n      swap2\n      pop\n      pop\n      jump\t// out\n        /* \"#utility.yul\":4279:4427   */\n    tag_108:\n        /* \"#utility.yul\":4377:4383   */\n      dup3\n        /* \"#utility.yul\":4372:4375   */\n      dup2\n        /* \"#utility.yul\":4367:4370   */\n      dup4\n        /* \"#utility.yul\":4354:4384   */\n      calldatacopy\n        /* \"#utility.yul\":4418:4419   */\n      0x00\n        /* \"#utility.yul\":4409:4415   */\n      dup4\n        /* \"#utility.yul\":4404:4407   */\n      dup4\n        /* \"#utility.yul\":4400:4416   */\n      add\n        /* \"#utility.yul\":4393:4420   */\n      mstore\n        /* \"#utility.yul\":4279:4427   */\n      pop\n      pop\n      pop\n      jump\t// out\n        /* \"#utility.yul\":4433:4535   */\n    tag_109:\n        /* \"#utility.yul\":4474:4480   */\n      0x00\n        /* \"#utility.yul\":4525:4527   */\n      0x1f\n        /* \"#utility.yul\":4521:4528   */\n      not\n        /* \"#utility.yul\":4516:4518   */\n      0x1f\n        /* \"#utility.yul\":4509:4514   */\n      dup4\n        /* \"#utility.yul\":4505:4519   */\n      add\n        /* \"#utility.yul\":4501:4529   */\n      and\n        /* \"#utility.yul\":4491:4529   */\n      swap1\n      pop\n        /* \"#utility.yul\":4433:4535   */\n      swap2\n      swap1\n      pop\n      jump\t// out\n        /* \"#utility.yul\":4565:4882   */\n    tag_110:\n        /* \"#utility.yul\":4663:4666   */\n      0x00\n        /* \"#utility.yul\":4684:4755   */\n      tag_196\n        /* \"#utility.yul\":4748:4754   */\n      dup4\n        /* \"#utility.yul\":4743:4746   */\n      dup6\n        /* \"#utility.yul\":4684:4755   */\n      tag_107\n      jump\t// in\n    tag_196:\n        /* \"#utility.yul\":4677:4755   */\n      swap4\n      pop\n        /* \"#utility.yul\":4765:4821   */\n      tag_197\n        /* \"#utility.yul\":4814:4820   */\n      dup4\n        /* \"#utility.yul\":4809:4812   */\n      dup6\n        /* \"#utility.yul\":4802:4807   */\n      dup5\n        /* \"#utility.yul\":4765:4821   */\n      tag_108\n      jump\t// in\n    tag_197:\n        /* \"#utility.yul\":4846:4875   */\n      tag_198\n        /* \"#utility.yul\":4868:4874   */\n      dup4\n        /* \"#utility.yul\":4846:4875   */\n      tag_109\n      jump\t// in\n    tag_198:\n        /* \"#utility.yul\":4841:4844   */\n      dup5\n        /* \"#utility.yul\":4837:4876   */\n      add\n        /* \"#utility.yul\":4830:4876   */\n      swap1\n      pop\n        /* \"#utility.yul\":4565:4882   */\n      swap4\n      swap3\n      pop\n      pop\n      pop\n      jump\t// out\n        /* \"#utility.yul\":4888:5221   */\n    tag_29:\n        /* \"#utility.yul\":5011:5015   */\n      0x00\n        /* \"#utility.yul\":5049:5051   */\n      0x20\n        /* \"#utility.yul\":5038:5047   */\n      dup3\n        /* \"#utility.yul\":5034:5052   */\n      add\n        /* \"#utility.yul\":5026:5052   */\n      swap1\n      pop\n        /* \"#utility.yul\":5098:5107   */\n      dup2\n        /* \"#utility.yul\":5092:5096   */\n      dup2\n        /* \"#utility.yul\":5088:5108   */\n      sub\n        /* \"#utility.yul\":5084:5085   */\n      0x00\n        /* \"#utility.yul\":5073:5082   */\n      dup4\n        /* \"#utility.yul\":5069:5086   */\n      add\n        /* \"#utility.yul\":5062:5109   */\n      mstore\n        /* \"#utility.yul\":5126:5214   */\n      tag_200\n        /* \"#utility.yul\":5209:5213   */\n      dup2\n        /* \"#utility.yul\":5200:5206   */\n      dup5\n        /* \"#utility.yul\":5192:5198   */\n      dup7\n        /* \"#utility.yul\":5126:5214   */\n      tag_110\n      jump\t// in\n    tag_200:\n        /* \"#utility.yul\":5118:5214   */\n      swap1\n      pop\n        /* \"#utility.yul\":4888:5221   */\n      swap4\n      swap3\n      pop\n      pop\n      pop\n      jump\t// out\n        /* \"#utility.yul\":5227:5407   */\n    tag_32:\n        /* \"#utility.yul\":5275:5352   */\n      0x4e487b7100000000000000000000000000000000000000000000000000000000\n        /* \"#utility.yul\":5272:5273   */\n      0x00\n        /* \"#utility.yul\":5265:5353   */\n      mstore\n        /* \"#utility.yul\":5372:5376   */\n      0x41\n        /* \"#utility.yul\":5369:5370   */\n      0x04\n        /* \"#utility.yul\":5362:5377   */\n      mstore\n        /* \"#utility.yul\":5396:5400   */\n      0x24\n        /* \"#utility.yul\":5393:5394   */\n      0x00\n        /* \"#utility.yul\":5386:5401   */\n      revert\n        /* \"#utility.yul\":5413:5528   */\n    tag_111:\n        /* \"#utility.yul\":5498:5521   */\n      tag_203\n        /* \"#utility.yul\":5515:5520   */\n      dup2\n        /* \"#utility.yul\":5498:5521   */\n      tag_93\n      jump\t// in\n    tag_203:\n        /* \"#utility.yul\":5493:5496   */\n      dup3\n        /* \"#utility.yul\":5486:5522   */\n      mstore\n        /* \"#utility.yul\":5413:5528   */\n      pop\n      pop\n      jump\t// out\n        /* \"#utility.yul\":5534:5632   */\n    tag_112:\n        /* \"#utility.yul\":5585:5591   */\n      0x00\n        /* \"#utility.yul\":5619:5624   */\n      dup2\n        /* \"#utility.yul\":5613:5625   */\n      mload\n        /* \"#utility.yul\":5603:5625   */\n      swap1\n      pop\n        /* \"#utility.yul\":5534:5632   */\n      swap2\n      swap1\n      pop\n      jump\t// out\n        /* \"#utility.yul\":5638:5796   */\n    tag_113:\n        /* \"#utility.yul\":5711:5722   */\n      0x00\n        /* \"#utility.yul\":5745:5751   */\n      dup3\n        /* \"#utility.yul\":5740:5743   */\n      dup3\n        /* \"#utility.yul\":5733:5752   */\n      mstore\n        /* \"#utility.yul\":5785:5789   */\n      0x20\n        /* \"#utility.yul\":5780:5783   */\n      dup3\n        /* \"#utility.yul\":5776:5790   */\n      add\n        /* \"#utility.yul\":5761:5790   */\n      swap1\n      pop\n        /* \"#utility.yul\":5638:5796   */\n      swap3\n      swap2\n      pop\n      pop\n      jump\t// out\n        /* \"#utility.yul\":5802:5941   */\n    tag_114:\n        /* \"#utility.yul\":5891:5897   */\n      dup3\n        /* \"#utility.yul\":5886:5889   */\n      dup2\n        /* \"#utility.yul\":5881:5884   */\n      dup4\n        /* \"#utility.yul\":5875:5898   */\n      mcopy\n        /* \"#utility.yul\":5932:5933   */\n      0x00\n        /* \"#utility.yul\":5923:5929   */\n      dup4\n        /* \"#utility.yul\":5918:5921   */\n      dup4\n        /* \"#utility.yul\":5914:5930   */\n      add\n        /* \"#utility.yul\":5907:5934   */\n      mstore\n        /* \"#utility.yul\":5802:5941   */\n      pop\n      pop\n      pop\n      jump\t// out\n        /* \"#utility.yul\":5947:6300   */\n    tag_115:\n        /* \"#utility.yul\":6023:6026   */\n      0x00\n        /* \"#utility.yul\":6051:6089   */\n      tag_208\n        /* \"#utility.yul\":6083:6088   */\n      dup3\n        /* \"#utility.yul\":6051:6089   */\n      tag_112\n      jump\t// in\n    tag_208:\n        /* \"#utility.yul\":6105:6165   */\n      tag_209\n        /* \"#utility.yul\":6158:6164   */\n      dup2\n        /* \"#utility.yul\":6153:6156   */\n      dup6\n        /* \"#utility.yul\":6105:6165   */\n      tag_113\n      jump\t// in\n    tag_209:\n        /* \"#utility.yul\":6098:6165   */\n      swap4\n      pop\n        /* \"#utility.yul\":6174:6239   */\n      tag_210\n        /* \"#utility.yul\":6232:6238   */\n      dup2\n        /* \"#utility.yul\":6227:6230   */\n      dup6\n        /* \"#utility.yul\":6220:6224   */\n      0x20\n        /* \"#utility.yul\":6213:6218   */\n      dup7\n        /* \"#utility.yul\":6209:6225   */\n      add\n        /* \"#utility.yul\":6174:6239   */\n      tag_114\n      jump\t// in\n    tag_210:\n        /* \"#utility.yul\":6264:6293   */\n      tag_211\n        /* \"#utility.yul\":6286:6292   */\n      dup2\n        /* \"#utility.yul\":6264:6293   */\n      tag_109\n      jump\t// in\n    tag_211:\n        /* \"#utility.yul\":6259:6262   */\n      dup5\n        /* \"#utility.yul\":6255:6294   */\n      add\n        /* \"#utility.yul\":6248:6294   */\n      swap2\n      pop\n        /* \"#utility.yul\":6027:6300   */\n      pop\n        /* \"#utility.yul\":5947:6300   */\n      swap3\n      swap2\n      pop\n      pop\n      jump\t// out\n        /* \"#utility.yul\":6306:6450   */\n    tag_116:\n        /* \"#utility.yul\":6403:6409   */\n      0x00\n        /* \"#utility.yul\":6437:6442   */\n      dup2\n        /* \"#utility.yul\":6431:6443   */\n      mload\n        /* \"#utility.yul\":6421:6443   */\n      swap1\n      pop\n        /* \"#utility.yul\":6306:6450   */\n      swap2\n      swap1\n      pop\n      jump\t// out\n        /* \"#utility.yul\":6456:6660   */\n    tag_117:\n        /* \"#utility.yul\":6575:6586   */\n      0x00\n        /* \"#utility.yul\":6609:6615   */\n      dup3\n        /* \"#utility.yul\":6604:6607   */\n      dup3\n        /* \"#utility.yul\":6597:6616   */\n      mstore\n        /* \"#utility.yul\":6649:6653   */\n      0x20\n        /* \"#utility.yul\":6644:6647   */\n      dup3\n        /* \"#utility.yul\":6640:6654   */\n      add\n        /* \"#utility.yul\":6625:6654   */\n      swap1\n      pop\n        /* \"#utility.yul\":6456:6660   */\n      swap3\n      swap2\n      pop\n      pop\n      jump\t// out\n        /* \"#utility.yul\":6666:6828   */\n    tag_118:\n        /* \"#utility.yul\":6763:6767   */\n      0x00\n        /* \"#utility.yul\":6786:6789   */\n      dup2\n        /* \"#utility.yul\":6778:6789   */\n      swap1\n      pop\n        /* \"#utility.yul\":6816:6820   */\n      0x20\n        /* \"#utility.yul\":6811:6814   */\n      dup3\n        /* \"#utility.yul\":6807:6821   */\n      add\n        /* \"#utility.yul\":6799:6821   */\n      swap1\n      pop\n        /* \"#utility.yul\":6666:6828   */\n      swap2\n      swap1\n      pop\n      jump\t// out\n        /* \"#utility.yul\":6834:6942   */\n    tag_119:\n        /* \"#utility.yul\":6911:6935   */\n      tag_216\n        /* \"#utility.yul\":6929:6934   */\n      dup2\n        /* \"#utility.yul\":6911:6935   */\n      tag_97\n      jump\t// in\n    tag_216:\n        /* \"#utility.yul\":6906:6909   */\n      dup3\n        /* \"#utility.yul\":6899:6936   */\n      mstore\n        /* \"#utility.yul\":6834:6942   */\n      pop\n      pop\n      jump\t// out\n        /* \"#utility.yul\":6948:7025   */\n    tag_120:\n        /* \"#utility.yul\":6985:6992   */\n      0x00\n        /* \"#utility.yul\":7014:7019   */\n      dup2\n        /* \"#utility.yul\":7003:7019   */\n      swap1\n      pop\n        /* \"#utility.yul\":6948:7025   */\n      swap2\n      swap1\n      pop\n      jump\t// out\n        /* \"#utility.yul\":7031:7139   */\n    tag_121:\n        /* \"#utility.yul\":7108:7132   */\n      tag_219\n        /* \"#utility.yul\":7126:7131   */\n      dup2\n        /* \"#utility.yul\":7108:7132   */\n      tag_120\n      jump\t// in\n    tag_219:\n        /* \"#utility.yul\":7103:7106   */\n      dup3\n        /* \"#utility.yul\":7096:7133   */\n      mstore\n        /* \"#utility.yul\":7031:7139   */\n      pop\n      pop\n      jump\t// out\n        /* \"#utility.yul\":7213:7723   */\n    tag_122:\n        /* \"#utility.yul\":7360:7364   */\n      0x40\n        /* \"#utility.yul\":7355:7358   */\n      dup3\n        /* \"#utility.yul\":7351:7365   */\n      add\n        /* \"#utility.yul\":7448:7452   */\n      0x00\n        /* \"#utility.yul\":7441:7446   */\n      dup3\n        /* \"#utility.yul\":7437:7453   */\n      add\n        /* \"#utility.yul\":7431:7454   */\n      mload\n        /* \"#utility.yul\":7467:7530   */\n      tag_221\n        /* \"#utility.yul\":7524:7528   */\n      0x00\n        /* \"#utility.yul\":7519:7522   */\n      dup6\n        /* \"#utility.yul\":7515:7529   */\n      add\n        /* \"#utility.yul\":7501:7513   */\n      dup3\n        /* \"#utility.yul\":7467:7530   */\n      tag_119\n      jump\t// in\n    tag_221:\n        /* \"#utility.yul\":7375:7540   */\n      pop\n        /* \"#utility.yul\":7624:7628   */\n      0x20\n        /* \"#utility.yul\":7617:7622   */\n      dup3\n        /* \"#utility.yul\":7613:7629   */\n      add\n        /* \"#utility.yul\":7607:7630   */\n      mload\n        /* \"#utility.yul\":7643:7706   */\n      tag_222\n        /* \"#utility.yul\":7700:7704   */\n      0x20\n        /* \"#utility.yul\":7695:7698   */\n      dup6\n        /* \"#utility.yul\":7691:7705   */\n      add\n        /* \"#utility.yul\":7677:7689   */\n      dup3\n        /* \"#utility.yul\":7643:7706   */\n      tag_121\n      jump\t// in\n    tag_222:\n        /* \"#utility.yul\":7550:7716   */\n      pop\n        /* \"#utility.yul\":7329:7723   */\n      pop\n        /* \"#utility.yul\":7213:7723   */\n      pop\n      pop\n      jump\t// out\n        /* \"#utility.yul\":7729:8028   */\n    tag_123:\n        /* \"#utility.yul\":7858:7868   */\n      0x00\n        /* \"#utility.yul\":7879:7985   */\n      tag_224\n        /* \"#utility.yul\":7981:7984   */\n      dup4\n        /* \"#utility.yul\":7973:7979   */\n      dup4\n        /* \"#utility.yul\":7879:7985   */\n      tag_122\n      jump\t// in\n    tag_224:\n        /* \"#utility.yul\":8017:8021   */\n      0x40\n        /* \"#utility.yul\":8012:8015   */\n      dup4\n        /* \"#utility.yul\":8008:8022   */\n      add\n        /* \"#utility.yul\":7994:8022   */\n      swap1\n      pop\n        /* \"#utility.yul\":7729:8028   */\n      swap3\n      swap2\n      pop\n      pop\n      jump\t// out\n        /* \"#utility.yul\":8034:8177   */\n    tag_124:\n        /* \"#utility.yul\":8134:8138   */\n      0x00\n        /* \"#utility.yul\":8166:8170   */\n      0x20\n        /* \"#utility.yul\":8161:8164   */\n      dup3\n        /* \"#utility.yul\":8157:8171   */\n      add\n        /* \"#utility.yul\":8149:8171   */\n      swap1\n      pop\n        /* \"#utility.yul\":8034:8177   */\n      swap2\n      swap1\n      pop\n      jump\t// out\n        /* \"#utility.yul\":8255:9207   */\n    tag_125:\n        /* \"#utility.yul\":8424:8427   */\n      0x00\n        /* \"#utility.yul\":8453:8537   */\n      tag_227\n        /* \"#utility.yul\":8531:8536   */\n      dup3\n        /* \"#utility.yul\":8453:8537   */\n      tag_116\n      jump\t// in\n    tag_227:\n        /* \"#utility.yul\":8553:8659   */\n      tag_228\n        /* \"#utility.yul\":8652:8658   */\n      dup2\n        /* \"#utility.yul\":8647:8650   */\n      dup6\n        /* \"#utility.yul\":8553:8659   */\n      tag_117\n      jump\t// in\n    tag_228:\n        /* \"#utility.yul\":8546:8659   */\n      swap4\n      pop\n        /* \"#utility.yul\":8683:8769   */\n      tag_229\n        /* \"#utility.yul\":8763:8768   */\n      dup4\n        /* \"#utility.yul\":8683:8769   */\n      tag_118\n      jump\t// in\n    tag_229:\n        /* \"#utility.yul\":8792:8799   */\n      dup1\n        /* \"#utility.yul\":8823:8824   */\n      0x00\n        /* \"#utility.yul\":8808:9182   */\n    tag_230:\n        /* \"#utility.yul\":8833:8839   */\n      dup4\n        /* \"#utility.yul\":8830:8831   */\n      dup2\n        /* \"#utility.yul\":8827:8840   */\n      lt\n        /* \"#utility.yul\":8808:9182   */\n      iszero\n      tag_232\n      jumpi\n        /* \"#utility.yul\":8909:8915   */\n      dup2\n        /* \"#utility.yul\":8903:8916   */\n      mload\n        /* \"#utility.yul\":8936:9059   */\n      tag_233\n        /* \"#utility.yul\":9055:9058   */\n      dup9\n        /* \"#utility.yul\":9040:9053   */\n      dup3\n        /* \"#utility.yul\":8936:9059   */\n      tag_123\n      jump\t// in\n    tag_233:\n        /* \"#utility.yul\":8929:9059   */\n      swap8\n      pop\n        /* \"#utility.yul\":9082:9172   */\n      tag_234\n        /* \"#utility.yul\":9165:9171   */\n      dup4\n        /* \"#utility.yul\":9082:9172   */\n      tag_124\n      jump\t// in\n    tag_234:\n        /* \"#utility.yul\":9072:9172   */\n      swap3\n      pop\n        /* \"#utility.yul\":8868:9182   */\n      pop\n        /* \"#utility.yul\":8855:8856   */\n      0x01\n        /* \"#utility.yul\":8852:8853   */\n      dup2\n        /* \"#utility.yul\":8848:8857   */\n      add\n        /* \"#utility.yul\":8843:8857   */\n      swap1\n      pop\n        /* \"#utility.yul\":8808:9182   */\n      jump(tag_230)\n    tag_232:\n        /* \"#utility.yul\":8812:8826   */\n      pop\n        /* \"#utility.yul\":9198:9201   */\n      dup6\n        /* \"#utility.yul\":9191:9201   */\n      swap4\n      pop\n        /* \"#utility.yul\":8429:9207   */\n      pop\n      pop\n      pop\n        /* \"#utility.yul\":8255:9207   */\n      swap3\n      swap2\n      pop\n      pop\n      jump\t// out\n        /* \"#utility.yul\":9281:10737   */\n    tag_126:\n        /* \"#utility.yul\":9410:9413   */\n      0x00\n        /* \"#utility.yul\":9446:9450   */\n      0xa0\n        /* \"#utility.yul\":9441:9444   */\n      dup4\n        /* \"#utility.yul\":9437:9451   */\n      add\n        /* \"#utility.yul\":9537:9541   */\n      0x00\n        /* \"#utility.yul\":9530:9535   */\n      dup4\n        /* \"#utility.yul\":9526:9542   */\n      add\n        /* \"#utility.yul\":9520:9543   */\n      mload\n        /* \"#utility.yul\":9590:9593   */\n      dup5\n        /* \"#utility.yul\":9584:9588   */\n      dup3\n        /* \"#utility.yul\":9580:9594   */\n      sub\n        /* \"#utility.yul\":9573:9577   */\n      0x00\n        /* \"#utility.yul\":9568:9571   */\n      dup7\n        /* \"#utility.yul\":9564:9578   */\n      add\n        /* \"#utility.yul\":9557:9595   */\n      mstore\n        /* \"#utility.yul\":9616:9687   */\n      tag_236\n        /* \"#utility.yul\":9682:9686   */\n      dup3\n        /* \"#utility.yul\":9668:9680   */\n      dup3\n        /* \"#utility.yul\":9616:9687   */\n      tag_115\n      jump\t// in\n    tag_236:\n        /* \"#utility.yul\":9608:9687   */\n      swap2\n      pop\n        /* \"#utility.yul\":9461:9698   */\n      pop\n        /* \"#utility.yul\":9780:9784   */\n      0x20\n        /* \"#utility.yul\":9773:9778   */\n      dup4\n        /* \"#utility.yul\":9769:9785   */\n      add\n        /* \"#utility.yul\":9763:9786   */\n      mload\n        /* \"#utility.yul\":9833:9836   */\n      dup5\n        /* \"#utility.yul\":9827:9831   */\n      dup3\n        /* \"#utility.yul\":9823:9837   */\n      sub\n        /* \"#utility.yul\":9816:9820   */\n      0x20\n        /* \"#utility.yul\":9811:9814   */\n      dup7\n        /* \"#utility.yul\":9807:9821   */\n      add\n        /* \"#utility.yul\":9800:9838   */\n      mstore\n        /* \"#utility.yul\":9859:9930   */\n      tag_237\n        /* \"#utility.yul\":9925:9929   */\n      dup3\n        /* \"#utility.yul\":9911:9923   */\n      dup3\n        /* \"#utility.yul\":9859:9930   */\n      tag_115\n      jump\t// in\n    tag_237:\n        /* \"#utility.yul\":9851:9930   */\n      swap2\n      pop\n        /* \"#utility.yul\":9708:9941   */\n      pop\n        /* \"#utility.yul\":10031:10035   */\n      0x40\n        /* \"#utility.yul\":10024:10029   */\n      dup4\n        /* \"#utility.yul\":10020:10036   */\n      add\n        /* \"#utility.yul\":10014:10037   */\n      mload\n        /* \"#utility.yul\":10084:10087   */\n      dup5\n        /* \"#utility.yul\":10078:10082   */\n      dup3\n        /* \"#utility.yul\":10074:10088   */\n      sub\n        /* \"#utility.yul\":10067:10071   */\n      0x40\n        /* \"#utility.yul\":10062:10065   */\n      dup7\n        /* \"#utility.yul\":10058:10072   */\n      add\n        /* \"#utility.yul\":10051:10089   */\n      mstore\n        /* \"#utility.yul\":10110:10273   */\n      tag_238\n        /* \"#utility.yul\":10268:10272   */\n      dup3\n        /* \"#utility.yul\":10254:10266   */\n      dup3\n        /* \"#utility.yul\":10110:10273   */\n      tag_125\n      jump\t// in\n    tag_238:\n        /* \"#utility.yul\":10102:10273   */\n      swap2\n      pop\n        /* \"#utility.yul\":9951:10284   */\n      pop\n        /* \"#utility.yul\":10370:10374   */\n      0x60\n        /* \"#utility.yul\":10363:10368   */\n      dup4\n        /* \"#utility.yul\":10359:10375   */\n      add\n        /* \"#utility.yul\":10353:10376   */\n      mload\n        /* \"#utility.yul\":10389:10452   */\n      tag_239\n        /* \"#utility.yul\":10446:10450   */\n      0x60\n        /* \"#utility.yul\":10441:10444   */\n      dup7\n        /* \"#utility.yul\":10437:10451   */\n      add\n        /* \"#utility.yul\":10423:10435   */\n      dup3\n        /* \"#utility.yul\":10389:10452   */\n      tag_119\n      jump\t// in\n    tag_239:\n        /* \"#utility.yul\":10294:10462   */\n      pop\n        /* \"#utility.yul\":10549:10553   */\n      0x80\n        /* \"#utility.yul\":10542:10547   */\n      dup4\n        /* \"#utility.yul\":10538:10554   */\n      add\n        /* \"#utility.yul\":10532:10555   */\n      mload\n        /* \"#utility.yul\":10602:10605   */\n      dup5\n        /* \"#utility.yul\":10596:10600   */\n      dup3\n        /* \"#utility.yul\":10592:10606   */\n      sub\n        /* \"#utility.yul\":10585:10589   */\n      0x80\n        /* \"#utility.yul\":10580:10583   */\n      dup7\n        /* \"#utility.yul\":10576:10590   */\n      add\n        /* \"#utility.yul\":10569:10607   */\n      mstore\n        /* \"#utility.yul\":10628:10699   */\n      tag_240\n        /* \"#utility.yul\":10694:10698   */\n      dup3\n        /* \"#utility.yul\":10680:10692   */\n      dup3\n        /* \"#utility.yul\":10628:10699   */\n      tag_115\n      jump\t// in\n    tag_240:\n        /* \"#utility.yul\":10620:10699   */\n      swap2\n      pop\n        /* \"#utility.yul\":10472:10710   */\n      pop\n        /* \"#utility.yul\":10727:10731   */\n      dup1\n        /* \"#utility.yul\":10720:10731   */\n      swap2\n      pop\n        /* \"#utility.yul\":9415:10737   */\n      pop\n        /* \"#utility.yul\":9281:10737   */\n      swap3\n      swap2\n      pop\n      pop\n      jump\t// out\n        /* \"#utility.yul\":10743:11242   */\n    tag_40:\n        /* \"#utility.yul\":10922:10926   */\n      0x00\n        /* \"#utility.yul\":10960:10962   */\n      0x40\n        /* \"#utility.yul\":10949:10958   */\n      dup3\n        /* \"#utility.yul\":10945:10963   */\n      add\n        /* \"#utility.yul\":10937:10963   */\n      swap1\n      pop\n        /* \"#utility.yul\":10973:11042   */\n      tag_242\n        /* \"#utility.yul\":11039:11040   */\n      0x00\n        /* \"#utility.yul\":11028:11037   */\n      dup4\n        /* \"#utility.yul\":11024:11041   */\n      add\n        /* \"#utility.yul\":11015:11021   */\n      dup6\n        /* \"#utility.yul\":10973:11042   */\n      tag_111\n      jump\t// in\n    tag_242:\n        /* \"#utility.yul\":11089:11098   */\n      dup2\n        /* \"#utility.yul\":11083:11087   */\n      dup2\n        /* \"#utility.yul\":11079:11099   */\n      sub\n        /* \"#utility.yul\":11074:11076   */\n      0x20\n        /* \"#utility.yul\":11063:11072   */\n      dup4\n        /* \"#utility.yul\":11059:11077   */\n      add\n        /* \"#utility.yul\":11052:11100   */\n      mstore\n        /* \"#utility.yul\":11117:11235   */\n      tag_243\n        /* \"#utility.yul\":11230:11234   */\n      dup2\n        /* \"#utility.yul\":11221:11227   */\n      dup5\n        /* \"#utility.yul\":11117:11235   */\n      tag_126\n      jump\t// in\n    tag_243:\n        /* \"#utility.yul\":11109:11235   */\n      swap1\n      pop\n        /* \"#utility.yul\":10743:11242   */\n      swap4\n      swap3\n      pop\n      pop\n      pop\n      jump\t// out\n        /* \"#utility.yul\":11248:11370   */\n    tag_127:\n        /* \"#utility.yul\":11321:11345   */\n      tag_245\n        /* \"#utility.yul\":11339:11344   */\n      dup2\n        /* \"#utility.yul\":11321:11345   */\n      tag_120\n      jump\t// in\n    tag_245:\n        /* \"#utility.yul\":11314:11319   */\n      dup2\n        /* \"#utility.yul\":11311:11346   */\n      eq\n        /* \"#utility.yul\":11301:11364   */\n      tag_246\n      jumpi\n        /* \"#utility.yul\":11360:11361   */\n      0x00\n        /* \"#utility.yul\":11357:11358   */\n      0x00\n        /* \"#utility.yul\":11350:11362   */\n      revert\n        /* \"#utility.yul\":11301:11364   */\n    tag_246:\n        /* \"#utility.yul\":11248:11370   */\n      pop\n      jump\t// out\n        /* \"#utility.yul\":11376:11519   */\n    tag_128:\n        /* \"#utility.yul\":11433:11438   */\n      0x00\n        /* \"#utility.yul\":11464:11470   */\n      dup2\n        /* \"#utility.yul\":11458:11471   */\n      mload\n        /* \"#utility.yul\":11449:11471   */\n      swap1\n      pop\n        /* \"#utility.yul\":11480:11513   */\n      tag_248\n        /* \"#utility.yul\":11507:11512   */\n      dup2\n        /* \"#utility.yul\":11480:11513   */\n      tag_127\n      jump\t// in\n    tag_248:\n        /* \"#utility.yul\":11376:11519   */\n      swap3\n      swap2\n      pop\n      pop\n      jump\t// out\n        /* \"#utility.yul\":11525:11876   */\n    tag_44:\n        /* \"#utility.yul\":11595:11601   */\n      0x00\n        /* \"#utility.yul\":11644:11646   */\n      0x20\n        /* \"#utility.yul\":11632:11641   */\n      dup3\n        /* \"#utility.yul\":11623:11630   */\n      dup5\n        /* \"#utility.yul\":11619:11642   */\n      sub\n        /* \"#utility.yul\":11615:11647   */\n      slt\n        /* \"#utility.yul\":11612:11731   */\n      iszero\n      tag_250\n      jumpi\n        /* \"#utility.yul\":11650:11729   */\n      tag_251\n      tag_91\n      jump\t// in\n    tag_251:\n        /* \"#utility.yul\":11612:11731   */\n    tag_250:\n        /* \"#utility.yul\":11770:11771   */\n      0x00\n        /* \"#utility.yul\":11795:11859   */\n      tag_252\n        /* \"#utility.yul\":11851:11858   */\n      dup5\n        /* \"#utility.yul\":11842:11848   */\n      dup3\n        /* \"#utility.yul\":11831:11840   */\n      dup6\n        /* \"#utility.yul\":11827:11849   */\n      add\n        /* \"#utility.yul\":11795:11859   */\n      tag_128\n      jump\t// in\n    tag_252:\n        /* \"#utility.yul\":11785:11859   */\n      swap2\n      pop\n        /* \"#utility.yul\":11741:11869   */\n      pop\n        /* \"#utility.yul\":11525:11876   */\n      swap3\n      swap2\n      pop\n      pop\n      jump\t// out\n        /* \"#utility.yul\":11882:12000   */\n    tag_129:\n        /* \"#utility.yul\":11969:11993   */\n      tag_254\n        /* \"#utility.yul\":11987:11992   */\n      dup2\n        /* \"#utility.yul\":11969:11993   */\n      tag_120\n      jump\t// in\n    tag_254:\n        /* \"#utility.yul\":11964:11967   */\n      dup3\n        /* \"#utility.yul\":11957:11994   */\n      mstore\n        /* \"#utility.yul\":11882:12000   */\n      pop\n      pop\n      jump\t// out\n        /* \"#utility.yul\":12006:12338   */\n    tag_55:\n        /* \"#utility.yul\":12127:12131   */\n      0x00\n        /* \"#utility.yul\":12165:12167   */\n      0x40\n        /* \"#utility.yul\":12154:12163   */\n      dup3\n        /* \"#utility.yul\":12150:12168   */\n      add\n        /* \"#utility.yul\":12142:12168   */\n      swap1\n      pop\n        /* \"#utility.yul\":12178:12249   */\n      tag_256\n        /* \"#utility.yul\":12246:12247   */\n      0x00\n        /* \"#utility.yul\":12235:12244   */\n      dup4\n        /* \"#utility.yul\":12231:12248   */\n      add\n        /* \"#utility.yul\":12222:12228   */\n      dup6\n        /* \"#utility.yul\":12178:12249   */\n      tag_129\n      jump\t// in\n    tag_256:\n        /* \"#utility.yul\":12259:12331   */\n      tag_257\n        /* \"#utility.yul\":12327:12329   */\n      0x20\n        /* \"#utility.yul\":12316:12325   */\n      dup4\n        /* \"#utility.yul\":12312:12330   */\n      add\n        /* \"#utility.yul\":12303:12309   */\n      dup5\n        /* \"#utility.yul\":12259:12331   */\n      tag_129\n      jump\t// in\n    tag_257:\n        /* \"#utility.yul\":12006:12338   */\n      swap4\n      swap3\n      pop\n      pop\n      pop\n      jump\t// out\n        /* \"#utility.yul\":12344:12676   */\n    tag_57:\n        /* \"#utility.yul\":12465:12469   */\n      0x00\n        /* \"#utility.yul\":12503:12505   */\n      0x40\n        /* \"#utility.yul\":12492:12501   */\n      dup3\n        /* \"#utility.yul\":12488:12506   */\n      add\n        /* \"#utility.yul\":12480:12506   */\n      swap1\n      pop\n        /* \"#utility.yul\":12516:12587   */\n      tag_259\n        /* \"#utility.yul\":12584:12585   */\n      0x00\n        /* \"#utility.yul\":12573:12582   */\n      dup4\n        /* \"#utility.yul\":12569:12586   */\n      add\n        /* \"#utility.yul\":12560:12566   */\n      dup6\n        /* \"#utility.yul\":12516:12587   */\n      tag_106\n      jump\t// in\n    tag_259:\n        /* \"#utility.yul\":12597:12669   */\n      tag_260\n        /* \"#utility.yul\":12665:12667   */\n      0x20\n        /* \"#utility.yul\":12654:12663   */\n      dup4\n        /* \"#utility.yul\":12650:12668   */\n      add\n        /* \"#utility.yul\":12641:12647   */\n      dup5\n        /* \"#utility.yul\":12597:12669   */\n      tag_129\n      jump\t// in\n    tag_260:\n        /* \"#utility.yul\":12344:12676   */\n      swap4\n      swap3\n      pop\n      pop\n      pop\n      jump\t// out\n        /* \"#utility.yul\":12682:12772   */\n    tag_130:\n        /* \"#utility.yul\":12716:12723   */\n      0x00\n        /* \"#utility.yul\":12759:12764   */\n      dup2\n        /* \"#utility.yul\":12752:12765   */\n      iszero\n        /* \"#utility.yul\":12745:12766   */\n      iszero\n        /* \"#utility.yul\":12734:12766   */\n      swap1\n      pop\n        /* \"#utility.yul\":12682:12772   */\n      swap2\n      swap1\n      pop\n      jump\t// out\n        /* \"#utility.yul\":12778:12894   */\n    tag_131:\n        /* \"#utility.yul\":12848:12869   */\n      tag_263\n        /* \"#utility.yul\":12863:12868   */\n      dup2\n        /* \"#utility.yul\":12848:12869   */\n      tag_130\n      jump\t// in\n    tag_263:\n        /* \"#utility.yul\":12841:12846   */\n      dup2\n        /* \"#utility.yul\":12838:12870   */\n      eq\n        /* \"#utility.yul\":12828:12888   */\n      tag_264\n      jumpi\n        /* \"#utility.yul\":12884:12885   */\n      0x00\n        /* \"#utility.yul\":12881:12882   */\n      0x00\n        /* \"#utility.yul\":12874:12886   */\n      revert\n        /* \"#utility.yul\":12828:12888   */\n    tag_264:\n        /* \"#utility.yul\":12778:12894   */\n      pop\n      jump\t// out\n        /* \"#utility.yul\":12900:13037   */\n    tag_132:\n        /* \"#utility.yul\":12954:12959   */\n      0x00\n        /* \"#utility.yul\":12985:12991   */\n      dup2\n        /* \"#utility.yul\":12979:12992   */\n      mload\n        /* \"#utility.yul\":12970:12992   */\n      swap1\n      pop\n        /* \"#utility.yul\":13001:13031   */\n      tag_266\n        /* \"#utility.yul\":13025:13030   */\n      dup2\n        /* \"#utility.yul\":13001:13031   */\n      tag_131\n      jump\t// in\n    tag_266:\n        /* \"#utility.yul\":12900:13037   */\n      swap3\n      swap2\n      pop\n      pop\n      jump\t// out\n        /* \"#utility.yul\":13043:13388   */\n    tag_61:\n        /* \"#utility.yul\":13110:13116   */\n      0x00\n        /* \"#utility.yul\":13159:13161   */\n      0x20\n        /* \"#utility.yul\":13147:13156   */\n      dup3\n        /* \"#utility.yul\":13138:13145   */\n      dup5\n        /* \"#utility.yul\":13134:13157   */\n      sub\n        /* \"#utility.yul\":13130:13162   */\n      slt\n        /* \"#utility.yul\":13127:13246   */\n      iszero\n      tag_268\n      jumpi\n        /* \"#utility.yul\":13165:13244   */\n      tag_269\n      tag_91\n      jump\t// in\n    tag_269:\n        /* \"#utility.yul\":13127:13246   */\n    tag_268:\n        /* \"#utility.yul\":13285:13286   */\n      0x00\n        /* \"#utility.yul\":13310:13371   */\n      tag_270\n        /* \"#utility.yul\":13363:13370   */\n      dup5\n        /* \"#utility.yul\":13354:13360   */\n      dup3\n        /* \"#utility.yul\":13343:13352   */\n      dup6\n        /* \"#utility.yul\":13339:13361   */\n      add\n        /* \"#utility.yul\":13310:13371   */\n      tag_132\n      jump\t// in\n    tag_270:\n        /* \"#utility.yul\":13300:13371   */\n      swap2\n      pop\n        /* \"#utility.yul\":13256:13381   */\n      pop\n        /* \"#utility.yul\":13043:13388   */\n      swap3\n      swap2\n      pop\n      pop\n      jump\t// out\n        /* \"#utility.yul\":13394:13516   */\n    tag_133:\n        /* \"#utility.yul\":13467:13491   */\n      tag_272\n        /* \"#utility.yul\":13485:13490   */\n      dup2\n        /* \"#utility.yul\":13467:13491   */\n      tag_104\n      jump\t// in\n    tag_272:\n        /* \"#utility.yul\":13460:13465   */\n      dup2\n        /* \"#utility.yul\":13457:13492   */\n      eq\n        /* \"#utility.yul\":13447:13510   */\n      tag_273\n      jumpi\n        /* \"#utility.yul\":13506:13507   */\n      0x00\n        /* \"#utility.yul\":13503:13504   */\n      0x00\n        /* \"#utility.yul\":13496:13508   */\n      revert\n        /* \"#utility.yul\":13447:13510   */\n    tag_273:\n        /* \"#utility.yul\":13394:13516   */\n      pop\n      jump\t// out\n        /* \"#utility.yul\":13522:13665   */\n    tag_134:\n        /* \"#utility.yul\":13579:13584   */\n      0x00\n        /* \"#utility.yul\":13610:13616   */\n      dup2\n        /* \"#utility.yul\":13604:13617   */\n      mload\n        /* \"#utility.yul\":13595:13617   */\n      swap1\n      pop\n        /* \"#utility.yul\":13626:13659   */\n      tag_275\n        /* \"#utility.yul\":13653:13658   */\n      dup2\n        /* \"#utility.yul\":13626:13659   */\n      tag_133\n      jump\t// in\n    tag_275:\n        /* \"#utility.yul\":13522:13665   */\n      swap3\n      swap2\n      pop\n      pop\n      jump\t// out\n        /* \"#utility.yul\":13671:14022   */\n    tag_66:\n        /* \"#utility.yul\":13741:13747   */\n      0x00\n        /* \"#utility.yul\":13790:13792   */\n      0x20\n        /* \"#utility.yul\":13778:13787   */\n      dup3\n        /* \"#utility.yul\":13769:13776   */\n      dup5\n        /* \"#utility.yul\":13765:13788   */\n      sub\n        /* \"#utility.yul\":13761:13793   */\n      slt\n        /* \"#utility.yul\":13758:13877   */\n      iszero\n      tag_277\n      jumpi\n        /* \"#utility.yul\":13796:13875   */\n      tag_278\n      tag_91\n      jump\t// in\n    tag_278:\n        /* \"#utility.yul\":13758:13877   */\n    tag_277:\n        /* \"#utility.yul\":13916:13917   */\n      0x00\n        /* \"#utility.yul\":13941:14005   */\n      tag_279\n        /* \"#utility.yul\":13997:14004   */\n      dup5\n        /* \"#utility.yul\":13988:13994   */\n      dup3\n        /* \"#utility.yul\":13977:13986   */\n      dup6\n        /* \"#utility.yul\":13973:13995   */\n      add\n        /* \"#utility.yul\":13941:14005   */\n      tag_134\n      jump\t// in\n    tag_279:\n        /* \"#utility.yul\":13931:14005   */\n      swap2\n      pop\n        /* \"#utility.yul\":13887:14015   */\n      pop\n        /* \"#utility.yul\":13671:14022   */\n      swap3\n      swap2\n      pop\n      pop\n      jump\t// out\n        /* \"#utility.yul\":14028:14692   */\n    tag_68:\n        /* \"#utility.yul\":14235:14239   */\n      0x00\n        /* \"#utility.yul\":14273:14276   */\n      0x80\n        /* \"#utility.yul\":14262:14271   */\n      dup3\n        /* \"#utility.yul\":14258:14277   */\n      add\n        /* \"#utility.yul\":14250:14277   */\n      swap1\n      pop\n        /* \"#utility.yul\":14287:14358   */\n      tag_281\n        /* \"#utility.yul\":14355:14356   */\n      0x00\n        /* \"#utility.yul\":14344:14353   */\n      dup4\n        /* \"#utility.yul\":14340:14357   */\n      add\n        /* \"#utility.yul\":14331:14337   */\n      dup9\n        /* \"#utility.yul\":14287:14358   */\n      tag_106\n      jump\t// in\n    tag_281:\n        /* \"#utility.yul\":14405:14414   */\n      dup2\n        /* \"#utility.yul\":14399:14403   */\n      dup2\n        /* \"#utility.yul\":14395:14415   */\n      sub\n        /* \"#utility.yul\":14390:14392   */\n      0x20\n        /* \"#utility.yul\":14379:14388   */\n      dup4\n        /* \"#utility.yul\":14375:14393   */\n      add\n        /* \"#utility.yul\":14368:14416   */\n      mstore\n        /* \"#utility.yul\":14433:14521   */\n      tag_282\n        /* \"#utility.yul\":14516:14520   */\n      dup2\n        /* \"#utility.yul\":14507:14513   */\n      dup7\n        /* \"#utility.yul\":14499:14505   */\n      dup9\n        /* \"#utility.yul\":14433:14521   */\n      tag_110\n      jump\t// in\n    tag_282:\n        /* \"#utility.yul\":14425:14521   */\n      swap1\n      pop\n        /* \"#utility.yul\":14531:14603   */\n      tag_283\n        /* \"#utility.yul\":14599:14601   */\n      0x40\n        /* \"#utility.yul\":14588:14597   */\n      dup4\n        /* \"#utility.yul\":14584:14602   */\n      add\n        /* \"#utility.yul\":14575:14581   */\n      dup6\n        /* \"#utility.yul\":14531:14603   */\n      tag_106\n      jump\t// in\n    tag_283:\n        /* \"#utility.yul\":14613:14685   */\n      tag_284\n        /* \"#utility.yul\":14681:14683   */\n      0x60\n        /* \"#utility.yul\":14670:14679   */\n      dup4\n        /* \"#utility.yul\":14666:14684   */\n      add\n        /* \"#utility.yul\":14657:14663   */\n      dup5\n        /* \"#utility.yul\":14613:14685   */\n      tag_129\n      jump\t// in\n    tag_284:\n        /* \"#utility.yul\":14028:14692   */\n      swap7\n      swap6\n      pop\n      pop\n      pop\n      pop\n      pop\n      pop\n      jump\t// out\n        /* \"#utility.yul\":14698:14870   */\n    tag_135:\n        /* \"#utility.yul\":14838:14862   */\n      0x4d7573742062652070726f706f736564206f776e657200000000000000000000\n        /* \"#utility.yul\":14834:14835   */\n      0x00\n        /* \"#utility.yul\":14826:14832   */\n      dup3\n        /* \"#utility.yul\":14822:14836   */\n      add\n        /* \"#utility.yul\":14815:14863   */\n      mstore\n        /* \"#utility.yul\":14698:14870   */\n      pop\n      jump\t// out\n        /* \"#utility.yul\":14876:15242   */\n    tag_136:\n        /* \"#utility.yul\":15018:15021   */\n      0x00\n        /* \"#utility.yul\":15039:15106   */\n      tag_287\n        /* \"#utility.yul\":15103:15105   */\n      0x16\n        /* \"#utility.yul\":15098:15101   */\n      dup4\n        /* \"#utility.yul\":15039:15106   */\n      tag_107\n      jump\t// in\n    tag_287:\n        /* \"#utility.yul\":15032:15106   */\n      swap2\n      pop\n        /* \"#utility.yul\":15115:15208   */\n      tag_288\n        /* \"#utility.yul\":15204:15207   */\n      dup3\n        /* \"#utility.yul\":15115:15208   */\n      tag_135\n      jump\t// in\n    tag_288:\n        /* \"#utility.yul\":15233:15235   */\n      0x20\n        /* \"#utility.yul\":15228:15231   */\n      dup3\n        /* \"#utility.yul\":15224:15236   */\n      add\n        /* \"#utility.yul\":15217:15236   */\n      swap1\n      pop\n        /* \"#utility.yul\":14876:15242   */\n      swap2\n      swap1\n      pop\n      jump\t// out\n        /* \"#utility.yul\":15248:15667   */\n    tag_72:\n        /* \"#utility.yul\":15414:15418   */\n      0x00\n        /* \"#utility.yul\":15452:15454   */\n      0x20\n        /* \"#utility.yul\":15441:15450   */\n      dup3\n        /* \"#utility.yul\":15437:15455   */\n      add\n        /* \"#utility.yul\":15429:15455   */\n      swap1\n      pop\n        /* \"#utility.yul\":15501:15510   */\n      dup2\n        /* \"#utility.yul\":15495:15499   */\n      dup2\n        /* \"#utility.yul\":15491:15511   */\n      sub\n        /* \"#utility.yul\":15487:15488   */\n      0x00\n        /* \"#utility.yul\":15476:15485   */\n      dup4\n        /* \"#utility.yul\":15472:15489   */\n      add\n        /* \"#utility.yul\":15465:15512   */\n      mstore\n        /* \"#utility.yul\":15529:15660   */\n      tag_290\n        /* \"#utility.yul\":15655:15659   */\n      dup2\n        /* \"#utility.yul\":15529:15660   */\n      tag_136\n      jump\t// in\n    tag_290:\n        /* \"#utility.yul\":15521:15660   */\n      swap1\n      pop\n        /* \"#utility.yul\":15248:15667   */\n      swap2\n      swap1\n      pop\n      jump\t// out\n        /* \"#utility.yul\":15673:15845   */\n    tag_137:\n        /* \"#utility.yul\":15813:15837   */\n      0x4f6e6c792063616c6c61626c65206279206f776e657200000000000000000000\n        /* \"#utility.yul\":15809:15810   */\n      0x00\n        /* \"#utility.yul\":15801:15807   */\n      dup3\n        /* \"#utility.yul\":15797:15811   */\n      add\n        /* \"#utility.yul\":15790:15838   */\n      mstore\n        /* \"#utility.yul\":15673:15845   */\n      pop\n      jump\t// out\n        /* \"#utility.yul\":15851:16217   */\n    tag_138:\n        /* \"#utility.yul\":15993:15996   */\n      0x00\n        /* \"#utility.yul\":16014:16081   */\n      tag_293\n        /* \"#utility.yul\":16078:16080   */\n      0x16\n        /* \"#utility.yul\":16073:16076   */\n      dup4\n        /* \"#utility.yul\":16014:16081   */\n      tag_107\n      jump\t// in\n    tag_293:\n        /* \"#utility.yul\":16007:16081   */\n      swap2\n      pop\n        /* \"#utility.yul\":16090:16183   */\n      tag_294\n        /* \"#utility.yul\":16179:16182   */\n      dup3\n        /* \"#utility.yul\":16090:16183   */\n      tag_137\n      jump\t// in\n    tag_294:\n        /* \"#utility.yul\":16208:16210   */\n      0x20\n        /* \"#utility.yul\":16203:16206   */\n      dup3\n        /* \"#utility.yul\":16199:16211   */\n      add\n        /* \"#utility.yul\":16192:16211   */\n      swap1\n      pop\n        /* \"#utility.yul\":15851:16217   */\n      swap2\n      swap1\n      pop\n      jump\t// out\n        /* \"#utility.yul\":16223:16642   */\n    tag_82:\n        /* \"#utility.yul\":16389:16393   */\n      0x00\n        /* \"#utility.yul\":16427:16429   */\n      0x20\n        /* \"#utility.yul\":16416:16425   */\n      dup3\n        /* \"#utility.yul\":16412:16430   */\n      add\n        /* \"#utility.yul\":16404:16430   */\n      swap1\n      pop\n        /* \"#utility.yul\":16476:16485   */\n      dup2\n        /* \"#utility.yul\":16470:16474   */\n      dup2\n        /* \"#utility.yul\":16466:16486   */\n      sub\n        /* \"#utility.yul\":16462:16463   */\n      0x00\n        /* \"#utility.yul\":16451:16460   */\n      dup4\n        /* \"#utility.yul\":16447:16464   */\n      add\n        /* \"#utility.yul\":16440:16487   */\n      mstore\n        /* \"#utility.yul\":16504:16635   */\n      tag_296\n        /* \"#utility.yul\":16630:16634   */\n      dup2\n        /* \"#utility.yul\":16504:16635   */\n      tag_138\n      jump\t// in\n    tag_296:\n        /* \"#utility.yul\":16496:16635   */\n      swap1\n      pop\n        /* \"#utility.yul\":16223:16642   */\n      swap2\n      swap1\n      pop\n      jump\t// out\n        /* \"#utility.yul\":16648:16747   */\n    tag_139:\n        /* \"#utility.yul\":16719:16740   */\n      tag_298\n        /* \"#utility.yul\":16734:16739   */\n      dup2\n        /* \"#utility.yul\":16719:16740   */\n      tag_130\n      jump\t// in\n    tag_298:\n        /* \"#utility.yul\":16714:16717   */\n      dup3\n        /* \"#utility.yul\":16707:16741   */\n      mstore\n        /* \"#utility.yul\":16648:16747   */\n      pop\n      pop\n      jump\t// out\n        /* \"#utility.yul\":16829:17374   */\n    tag_140:\n        /* \"#utility.yul\":16996:17000   */\n      0x40\n        /* \"#utility.yul\":16991:16994   */\n      dup3\n        /* \"#utility.yul\":16987:17001   */\n      add\n        /* \"#utility.yul\":17087:17091   */\n      0x00\n        /* \"#utility.yul\":17080:17085   */\n      dup3\n        /* \"#utility.yul\":17076:17092   */\n      add\n        /* \"#utility.yul\":17070:17093   */\n      mload\n        /* \"#utility.yul\":17106:17169   */\n      tag_300\n        /* \"#utility.yul\":17163:17167   */\n      0x00\n        /* \"#utility.yul\":17158:17161   */\n      dup6\n        /* \"#utility.yul\":17154:17168   */\n      add\n        /* \"#utility.yul\":17140:17152   */\n      dup3\n        /* \"#utility.yul\":17106:17169   */\n      tag_121\n      jump\t// in\n    tag_300:\n        /* \"#utility.yul\":17011:17179   */\n      pop\n        /* \"#utility.yul\":17281:17285   */\n      0x20\n        /* \"#utility.yul\":17274:17279   */\n      dup3\n        /* \"#utility.yul\":17270:17286   */\n      add\n        /* \"#utility.yul\":17264:17287   */\n      mload\n        /* \"#utility.yul\":17300:17357   */\n      tag_301\n        /* \"#utility.yul\":17351:17355   */\n      0x20\n        /* \"#utility.yul\":17346:17349   */\n      dup6\n        /* \"#utility.yul\":17342:17356   */\n      add\n        /* \"#utility.yul\":17328:17340   */\n      dup3\n        /* \"#utility.yul\":17300:17357   */\n      tag_139\n      jump\t// in\n    tag_301:\n        /* \"#utility.yul\":17189:17367   */\n      pop\n        /* \"#utility.yul\":16965:17374   */\n      pop\n        /* \"#utility.yul\":16829:17374   */\n      pop\n      pop\n      jump\t// out\n        /* \"#utility.yul\":17380:17742   */\n    tag_85:\n        /* \"#utility.yul\":17543:17547   */\n      0x00\n        /* \"#utility.yul\":17581:17583   */\n      0x40\n        /* \"#utility.yul\":17570:17579   */\n      dup3\n        /* \"#utility.yul\":17566:17584   */\n      add\n        /* \"#utility.yul\":17558:17584   */\n      swap1\n      pop\n        /* \"#utility.yul\":17594:17735   */\n      tag_303\n        /* \"#utility.yul\":17732:17733   */\n      0x00\n        /* \"#utility.yul\":17721:17730   */\n      dup4\n        /* \"#utility.yul\":17717:17734   */\n      add\n        /* \"#utility.yul\":17708:17714   */\n      dup5\n        /* \"#utility.yul\":17594:17735   */\n      tag_140\n      jump\t// in\n    tag_303:\n        /* \"#utility.yul\":17380:17742   */\n      swap3\n      swap2\n      pop\n      pop\n      jump\t// out\n        /* \"#utility.yul\":17748:17921   */\n    tag_141:\n        /* \"#utility.yul\":17888:17913   */\n      0x43616e6e6f74207472616e7366657220746f2073656c66000000000000000000\n        /* \"#utility.yul\":17884:17885   */\n      0x00\n        /* \"#utility.yul\":17876:17882   */\n      dup3\n        /* \"#utility.yul\":17872:17886   */\n      add\n        /* \"#utility.yul\":17865:17914   */\n      mstore\n        /* \"#utility.yul\":17748:17921   */\n      pop\n      jump\t// out\n        /* \"#utility.yul\":17927:18293   */\n    tag_142:\n        /* \"#utility.yul\":18069:18072   */\n      0x00\n        /* \"#utility.yul\":18090:18157   */\n      tag_306\n        /* \"#utility.yul\":18154:18156   */\n      0x17\n        /* \"#utility.yul\":18149:18152   */\n      dup4\n        /* \"#utility.yul\":18090:18157   */\n      tag_107\n      jump\t// in\n    tag_306:\n        /* \"#utility.yul\":18083:18157   */\n      swap2\n      pop\n        /* \"#utility.yul\":18166:18259   */\n      tag_307\n        /* \"#utility.yul\":18255:18258   */\n      dup3\n        /* \"#utility.yul\":18166:18259   */\n      tag_141\n      jump\t// in\n    tag_307:\n        /* \"#utility.yul\":18284:18286   */\n      0x20\n        /* \"#utility.yul\":18279:18282   */\n      dup3\n        /* \"#utility.yul\":18275:18287   */\n      add\n        /* \"#utility.yul\":18268:18287   */\n      swap1\n      pop\n        /* \"#utility.yul\":17927:18293   */\n      swap2\n      swap1\n      pop\n      jump\t// out\n        /* \"#utility.yul\":18299:18718   */\n    tag_89:\n        /* \"#utility.yul\":18465:18469   */\n      0x00\n        /* \"#utility.yul\":18503:18505   */\n      0x20\n        /* \"#utility.yul\":18492:18501   */\n      dup3\n        /* \"#utility.yul\":18488:18506   */\n      add\n        /* \"#utility.yul\":18480:18506   */\n      swap1\n      pop\n        /* \"#utility.yul\":18552:18561   */\n      dup2\n        /* \"#utility.yul\":18546:18550   */\n      dup2\n        /* \"#utility.yul\":18542:18562   */\n      sub\n        /* \"#utility.yul\":18538:18539   */\n      0x00\n        /* \"#utility.yul\":18527:18536   */\n      dup4\n        /* \"#utility.yul\":18523:18540   */\n      add\n        /* \"#utility.yul\":18516:18563   */\n      mstore\n        /* \"#utility.yul\":18580:18711   */\n      tag_309\n        /* \"#utility.yul\":18706:18710   */\n      dup2\n        /* \"#utility.yul\":18580:18711   */\n      tag_142\n      jump\t// in\n    tag_309:\n        /* \"#utility.yul\":18572:18711   */\n      swap1\n      pop\n        /* \"#utility.yul\":18299:18718   */\n      swap2\n      swap1\n      pop\n      jump\t// out\n\n    auxdata: 0xa2646970667358221220b4b483b76081dc0d354f8024a775ff2c7f7d6dd1ef8adacbb2fde0e8ef77f8e564736f6c634300081e0033\n}\n",
				"bytecode": {
					"linkReferences": {},
					"object": "608060405234801561000f575f5ffd5b5033805f5f73ffffffffffffffffffffffffffffffffffffffff168273ffffffffffffffffffffffffffffffffffffffff1603610081576040517f08c379a000000000000000000000000000000000000000000000000000000000815260040161007890610342565b60405180910390fd5b815f5f6101000a81548173ffffffffffffffffffffffffffffffffffffffff021916908373ffffffffffffffffffffffffffffffffffffffff1602179055505f73ffffffffffffffffffffffffffffffffffffffff168173ffffffffffffffffffffffffffffffffffffffff161461010357610102816101bd60201b60201c565b5b5050505f730bf3de8c5d3e8a2b34d2beeb17abfcebaf363a5990505f73779877a7b0d9e8603169ddbd7836e478b462478990508160025f6101000a81548173ffffffffffffffffffffffffffffffffffffffff021916908373ffffffffffffffffffffffffffffffffffffffff1602179055508060035f6101000a81548173ffffffffffffffffffffffffffffffffffffffff021916908373ffffffffffffffffffffffffffffffffffffffff16021790555050506103c8565b3373ffffffffffffffffffffffffffffffffffffffff168173ffffffffffffffffffffffffffffffffffffffff160361022b576040517f08c379a0000000000000000000000000000000000000000000000000000000008152600401610222906103aa565b60405180910390fd5b8060015f6101000a81548173ffffffffffffffffffffffffffffffffffffffff021916908373ffffffffffffffffffffffffffffffffffffffff1602179055508073ffffffffffffffffffffffffffffffffffffffff165f5f9054906101000a900473ffffffffffffffffffffffffffffffffffffffff1673ffffffffffffffffffffffffffffffffffffffff167fed8889f560326eb138920d842192f0eb3dd22b4f139c87a2c57538e05bae127860405160405180910390a350565b5f82825260208201905092915050565b7f43616e6e6f7420736574206f776e657220746f207a65726f00000000000000005f82015250565b5f61032c6018836102e8565b9150610337826102f8565b602082019050919050565b5f6020820190508181035f83015261035981610320565b9050919050565b7f43616e6e6f74207472616e7366657220746f2073656c660000000000000000005f82015250565b5f6103946017836102e8565b915061039f82610360565b602082019050919050565b5f6020820190508181035f8301526103c181610388565b9050919050565b61122f806103d55f395ff3fe608060405234801561000f575f5ffd5b506004361061004a575f3560e01c80630eb5ad451461004e57806379ba50971461007e5780638da5cb5b14610088578063f2fde38b146100a6575b5f5ffd5b61006860048036038101906100639190610afa565b6100c2565b6040516100759190610b83565b60405180910390f35b6100866105c8565b005b610090610757565b60405161009d9190610bab565b60405180910390f35b6100c060048036038101906100bb9190610bc4565b61077e565b005b5f6100cb610792565b5f6040518060a00160405280866040516020016100e89190610bab565b6040516020818303038152906040528152602001858560405160200161010f929190610c49565b60405160208183030381529060405281526020015f67ffffffffffffffff81111561013d5761013c610c6b565b5b60405190808252806020026020018201604052801561017657816020015b6101636109cc565b81526020019060019003908161015b5790505b50815260200160035f9054906101000a900473ffffffffffffffffffffffffffffffffffffffff1673ffffffffffffffffffffffffffffffffffffffff1681526020016101dc604051806040016040528062030d40815260200160011515815250610822565b81525090505f60025f9054906101000a900473ffffffffffffffffffffffffffffffffffffffff1673ffffffffffffffffffffffffffffffffffffffff166320487ded88846040518363ffffffff1660e01b815260040161023e929190610e8b565b602060405180830381865afa158015610259573d5f5f3e3d5ffd5b505050506040513d601f19601f8201168201806040525081019061027d9190610ee3565b905060035f9054906101000a900473ffffffffffffffffffffffffffffffffffffffff1673ffffffffffffffffffffffffffffffffffffffff166370a08231306040518263ffffffff1660e01b81526004016102d99190610bab565b602060405180830381865afa1580156102f4573d5f5f3e3d5ffd5b505050506040513d601f19601f820116820180604052508101906103189190610ee3565b8111156103f65760035f9054906101000a900473ffffffffffffffffffffffffffffffffffffffff1673ffffffffffffffffffffffffffffffffffffffff166370a08231306040518263ffffffff1660e01b81526004016103799190610bab565b602060405180830381865afa158015610394573d5f5f3e3d5ffd5b505050506040513d601f19601f820116820180604052508101906103b89190610ee3565b816040517f8f0f42060000000000000000000000000000000000000000000000000000000081526004016103ed929190610f1d565b60405180910390fd5b60035f9054906101000a900473ffffffffffffffffffffffffffffffffffffffff1673ffffffffffffffffffffffffffffffffffffffff1663095ea7b360025f9054906101000a900473ffffffffffffffffffffffffffffffffffffffff16836040518363ffffffff1660e01b8152600401610473929190610f44565b6020604051808303815f875af115801561048f573d5f5f3e3d5ffd5b505050506040513d601f19601f820116820180604052508101906104b39190610fa0565b5060025f9054906101000a900473ffffffffffffffffffffffffffffffffffffffff1673ffffffffffffffffffffffffffffffffffffffff166396f4e9f988846040518363ffffffff1660e01b8152600401610510929190610e8b565b6020604051808303815f875af115801561052c573d5f5f3e3d5ffd5b505050506040513d601f19601f820116820180604052508101906105509190610ff5565b92508667ffffffffffffffff16837fd36445359b3c6e26c120659aef090ce0f2eb005cf9af450d11aa1225609b4f4d88888860035f9054906101000a900473ffffffffffffffffffffffffffffffffffffffff16876040516105b6959493929190611020565b60405180910390a35050949350505050565b60015f9054906101000a900473ffffffffffffffffffffffffffffffffffffffff1673ffffffffffffffffffffffffffffffffffffffff163373ffffffffffffffffffffffffffffffffffffffff1614610657576040517f08c379a000000000000000000000000000000000000000000000000000000000815260040161064e906110b6565b60405180910390fd5b5f5f5f9054906101000a900473ffffffffffffffffffffffffffffffffffffffff169050335f5f6101000a81548173ffffffffffffffffffffffffffffffffffffffff021916908373ffffffffffffffffffffffffffffffffffffffff1602179055505f60015f6101000a81548173ffffffffffffffffffffffffffffffffffffffff021916908373ffffffffffffffffffffffffffffffffffffffff1602179055503373ffffffffffffffffffffffffffffffffffffffff168173ffffffffffffffffffffffffffffffffffffffff167f8be0079c531659141344cd1fd0a4f28419497f9722a3daafe3b4186f6b6457e060405160405180910390a350565b5f5f5f9054906101000a900473ffffffffffffffffffffffffffffffffffffffff16905090565b610786610792565b61078f816108a1565b50565b5f5f9054906101000a900473ffffffffffffffffffffffffffffffffffffffff1673ffffffffffffffffffffffffffffffffffffffff163373ffffffffffffffffffffffffffffffffffffffff1614610820576040517f08c379a00000000000000000000000000000000000000000000000000000000081526004016108179061111e565b60405180910390fd5b565b606063181dcf1060e01b8260405160240161083d9190611178565b604051602081830303815290604052907bffffffffffffffffffffffffffffffffffffffffffffffffffffffff19166020820180517bffffffffffffffffffffffffffffffffffffffffffffffffffffffff83818316178352505050509050919050565b3373ffffffffffffffffffffffffffffffffffffffff168173ffffffffffffffffffffffffffffffffffffffff160361090f576040517f08c379a0000000000000000000000000000000000000000000000000000000008152600401610906906111db565b60405180910390fd5b8060015f6101000a81548173ffffffffffffffffffffffffffffffffffffffff021916908373ffffffffffffffffffffffffffffffffffffffff1602179055508073ffffffffffffffffffffffffffffffffffffffff165f5f9054906101000a900473ffffffffffffffffffffffffffffffffffffffff1673ffffffffffffffffffffffffffffffffffffffff167fed8889f560326eb138920d842192f0eb3dd22b4f139c87a2c57538e05bae127860405160405180910390a350565b60405180604001604052805f73ffffffffffffffffffffffffffffffffffffffff1681526020015f81525090565b5f5ffd5b5f5ffd5b5f67ffffffffffffffff82169050919050565b610a1e81610a02565b8114610a28575f5ffd5b50565b5f81359050610a3981610a15565b92915050565b5f73ffffffffffffffffffffffffffffffffffffffff82169050919050565b5f610a6882610a3f565b9050919050565b610a7881610a5e565b8114610a82575f5ffd5b50565b5f81359050610a9381610a6f565b92915050565b5f5ffd5b5f5ffd5b5f5ffd5b5f5f83601f840112610aba57610ab9610a99565b5b8235905067ffffffffffffffff811115610ad757610ad6610a9d565b5b602083019150836001820283011115610af357610af2610aa1565b5b9250929050565b5f5f5f5f60608587031215610b1257610b116109fa565b5b5f610b1f87828801610a2b565b9450506020610b3087828801610a85565b935050604085013567ffffffffffffffff811115610b5157610b506109fe565b5b610b5d87828801610aa5565b925092505092959194509250565b5f819050919050565b610b7d81610b6b565b82525050565b5f602082019050610b965f830184610b74565b92915050565b610ba581610a5e565b82525050565b5f602082019050610bbe5f830184610b9c565b92915050565b5f60208284031215610bd957610bd86109fa565b5b5f610be684828501610a85565b91505092915050565b5f82825260208201905092915050565b828183375f83830152505050565b5f601f19601f8301169050919050565b5f610c288385610bef565b9350610c35838584610bff565b610c3e83610c0d565b840190509392505050565b5f6020820190508181035f830152610c62818486610c1d565b90509392505050565b7f4e487b71000000000000000000000000000000000000000000000000000000005f52604160045260245ffd5b610ca181610a02565b82525050565b5f81519050919050565b5f82825260208201905092915050565b8281835e5f83830152505050565b5f610cd982610ca7565b610ce38185610cb1565b9350610cf3818560208601610cc1565b610cfc81610c0d565b840191505092915050565b5f81519050919050565b5f82825260208201905092915050565b5f819050602082019050919050565b610d3981610a5e565b82525050565b5f819050919050565b610d5181610d3f565b82525050565b604082015f820151610d6b5f850182610d30565b506020820151610d7e6020850182610d48565b50505050565b5f610d8f8383610d57565b60408301905092915050565b5f602082019050919050565b5f610db182610d07565b610dbb8185610d11565b9350610dc683610d21565b805f5b83811015610df6578151610ddd8882610d84565b9750610de883610d9b565b925050600181019050610dc9565b5085935050505092915050565b5f60a083015f8301518482035f860152610e1d8282610ccf565b91505060208301518482036020860152610e378282610ccf565b91505060408301518482036040860152610e518282610da7565b9150506060830151610e666060860182610d30565b5060808301518482036080860152610e7e8282610ccf565b9150508091505092915050565b5f604082019050610e9e5f830185610c98565b8181036020830152610eb08184610e03565b90509392505050565b610ec281610d3f565b8114610ecc575f5ffd5b50565b5f81519050610edd81610eb9565b92915050565b5f60208284031215610ef857610ef76109fa565b5b5f610f0584828501610ecf565b91505092915050565b610f1781610d3f565b82525050565b5f604082019050610f305f830185610f0e565b610f3d6020830184610f0e565b9392505050565b5f604082019050610f575f830185610b9c565b610f646020830184610f0e565b9392505050565b5f8115159050919050565b610f7f81610f6b565b8114610f89575f5ffd5b50565b5f81519050610f9a81610f76565b92915050565b5f60208284031215610fb557610fb46109fa565b5b5f610fc284828501610f8c565b91505092915050565b610fd481610b6b565b8114610fde575f5ffd5b50565b5f81519050610fef81610fcb565b92915050565b5f6020828403121561100a576110096109fa565b5b5f61101784828501610fe1565b91505092915050565b5f6080820190506110335f830188610b9c565b8181036020830152611046818688610c1d565b90506110556040830185610b9c565b6110626060830184610f0e565b9695505050505050565b7f4d7573742062652070726f706f736564206f776e6572000000000000000000005f82015250565b5f6110a0601683610bef565b91506110ab8261106c565b602082019050919050565b5f6020820190508181035f8301526110cd81611094565b9050919050565b7f4f6e6c792063616c6c61626c65206279206f776e6572000000000000000000005f82015250565b5f611108601683610bef565b9150611113826110d4565b602082019050919050565b5f6020820190508181035f830152611135816110fc565b9050919050565b61114581610f6b565b82525050565b604082015f82015161115f5f850182610d48565b506020820151611172602085018261113c565b50505050565b5f60408201905061118b5f83018461114b565b92915050565b7f43616e6e6f74207472616e7366657220746f2073656c660000000000000000005f82015250565b5f6111c5601783610bef565b91506111d082611191565b602082019050919050565b5f6020820190508181035f8301526111f2816111b9565b905091905056fea2646970667358221220b4b483b76081dc0d354f8024a775ff2c7f7d6dd1ef8adacbb2fde0e8ef77f8e564736f6c634300081e0033",
					"opcodes": "PUSH1 0x80 PUSH1 0x40 MSTORE CALLVALUE DUP1 ISZERO PUSH2 0xF JUMPI PUSH0 PUSH0 REVERT JUMPDEST POP CALLER DUP1 PUSH0 PUSH0 PUSH20 0xFFFFFFFFFFFFFFFFFFFFFFFFFFFFFFFFFFFFFFFF AND DUP3 PUSH20 0xFFFFFFFFFFFFFFFFFFFFFFFFFFFFFFFFFFFFFFFF AND SUB PUSH2 0x81 JUMPI PUSH1 0x40 MLOAD PUSH32 0x8C379A000000000000000000000000000000000000000000000000000000000 DUP2 MSTORE PUSH1 0x4 ADD PUSH2 0x78 SWAP1 PUSH2 0x342 JUMP JUMPDEST PUSH1 0x40 MLOAD DUP1 SWAP2 SUB SWAP1 REVERT JUMPDEST DUP2 PUSH0 PUSH0 PUSH2 0x100 EXP DUP2 SLOAD DUP2 PUSH20 0xFFFFFFFFFFFFFFFFFFFFFFFFFFFFFFFFFFFFFFFF MUL NOT AND SWAP1 DUP4 PUSH20 0xFFFFFFFFFFFFFFFFFFFFFFFFFFFFFFFFFFFFFFFF AND MUL OR SWAP1 SSTORE POP PUSH0 PUSH20 0xFFFFFFFFFFFFFFFFFFFFFFFFFFFFFFFFFFFFFFFF AND DUP2 PUSH20 0xFFFFFFFFFFFFFFFFFFFFFFFFFFFFFFFFFFFFFFFF AND EQ PUSH2 0x103 JUMPI PUSH2 0x102 DUP2 PUSH2 0x1BD PUSH1 0x20 SHL PUSH1 0x20 SHR JUMP JUMPDEST JUMPDEST POP POP POP PUSH0 PUSH20 0xBF3DE8C5D3E8A2B34D2BEEB17ABFCEBAF363A59 SWAP1 POP PUSH0 PUSH20 0x779877A7B0D9E8603169DDBD7836E478B4624789 SWAP1 POP DUP2 PUSH1 0x2 PUSH0 PUSH2 0x100 EXP DUP2 SLOAD DUP2 PUSH20 0xFFFFFFFFFFFFFFFFFFFFFFFFFFFFFFFFFFFFFFFF MUL NOT AND SWAP1 DUP4 PUSH20 0xFFFFFFFFFFFFFFFFFFFFFFFFFFFFFFFFFFFFFFFF AND MUL OR SWAP1 SSTORE POP DUP1 PUSH1 0x3 PUSH0 PUSH2 0x100 EXP DUP2 SLOAD DUP2 PUSH20 0xFFFFFFFFFFFFFFFFFFFFFFFFFFFFFFFFFFFFFFFF MUL NOT AND SWAP1 DUP4 PUSH20 0xFFFFFFFFFFFFFFFFFFFFFFFFFFFFFFFFFFFFFFFF AND MUL OR SWAP1 SSTORE POP POP POP PUSH2 0x3C8 JUMP JUMPDEST CALLER PUSH20 0xFFFFFFFFFFFFFFFFFFFFFFFFFFFFFFFFFFFFFFFF AND DUP2 PUSH20 0xFFFFFFFFFFFFFFFFFFFFFFFFFFFFFFFFFFFFFFFF AND SUB PUSH2 0x22B JUMPI PUSH1 0x40 MLOAD PUSH32 0x8C379A000000000000000000000000000000000000000000000000000000000 DUP2 MSTORE PUSH1 0x4 ADD PUSH2 0x222 SWAP1 PUSH2 0x3AA JUMP JUMPDEST PUSH1 0x40 MLOAD DUP1 SWAP2 SUB SWAP1 REVERT JUMPDEST DUP1 PUSH1 0x1 PUSH0 PUSH2 0x100 EXP DUP2 SLOAD DUP2 PUSH20 0xFFFFFFFFFFFFFFFFFFFFFFFFFFFFFFFFFFFFFFFF MUL NOT AND SWAP1 DUP4 PUSH20 0xFFFFFFFFFFFFFFFFFFFFFFFFFFFFFFFFFFFFFFFF AND MUL OR SWAP1 SSTORE POP DUP1 PUSH20 0xFFFFFFFFFFFFFFFFFFFFFFFFFFFFFFFFFFFFFFFF AND PUSH0 PUSH0 SWAP1 SLOAD SWAP1 PUSH2 0x100 EXP SWAP1 DIV PUSH20 0xFFFFFFFFFFFFFFFFFFFFFFFFFFFFFFFFFFFFFFFF AND PUSH20 0xFFFFFFFFFFFFFFFFFFFFFFFFFFFFFFFFFFFFFFFF AND PUSH32 0xED8889F560326EB138920D842192F0EB3DD22B4F139C87A2C57538E05BAE1278 PUSH1 0x40 MLOAD PUSH1 0x40 MLOAD DUP1 SWAP2 SUB SWAP1 LOG3 POP JUMP JUMPDEST PUSH0 DUP3 DUP3 MSTORE PUSH1 0x20 DUP3 ADD SWAP1 POP SWAP3 SWAP2 POP POP JUMP JUMPDEST PUSH32 0x43616E6E6F7420736574206F776E657220746F207A65726F0000000000000000 PUSH0 DUP3 ADD MSTORE POP JUMP JUMPDEST PUSH0 PUSH2 0x32C PUSH1 0x18 DUP4 PUSH2 0x2E8 JUMP JUMPDEST SWAP2 POP PUSH2 0x337 DUP3 PUSH2 0x2F8 JUMP JUMPDEST PUSH1 0x20 DUP3 ADD SWAP1 POP SWAP2 SWAP1 POP JUMP JUMPDEST PUSH0 PUSH1 0x20 DUP3 ADD SWAP1 POP DUP2 DUP2 SUB PUSH0 DUP4 ADD MSTORE PUSH2 0x359 DUP2 PUSH2 0x320 JUMP JUMPDEST SWAP1 POP SWAP2 SWAP1 POP JUMP JUMPDEST PUSH32 0x43616E6E6F74207472616E7366657220746F2073656C66000000000000000000 PUSH0 DUP3 ADD MSTORE POP JUMP JUMPDEST PUSH0 PUSH2 0x394 PUSH1 0x17 DUP4 PUSH2 0x2E8 JUMP JUMPDEST SWAP2 POP PUSH2 0x39F DUP3 PUSH2 0x360 JUMP JUMPDEST PUSH1 0x20 DUP3 ADD SWAP1 POP SWAP2 SWAP1 POP JUMP JUMPDEST PUSH0 PUSH1 0x20 DUP3 ADD SWAP1 POP DUP2 DUP2 SUB PUSH0 DUP4 ADD MSTORE PUSH2 0x3C1 DUP2 PUSH2 0x388 JUMP JUMPDEST SWAP1 POP SWAP2 SWAP1 POP JUMP JUMPDEST PUSH2 0x122F DUP1 PUSH2 0x3D5 PUSH0 CODECOPY PUSH0 RETURN INVALID PUSH1 0x80 PUSH1 0x40 MSTORE CALLVALUE DUP1 ISZERO PUSH2 0xF JUMPI PUSH0 PUSH0 REVERT JUMPDEST POP PUSH1 0x4 CALLDATASIZE LT PUSH2 0x4A JUMPI PUSH0 CALLDATALOAD PUSH1 0xE0 SHR DUP1 PUSH4 0xEB5AD45 EQ PUSH2 0x4E JUMPI DUP1 PUSH4 0x79BA5097 EQ PUSH2 0x7E JUMPI DUP1 PUSH4 0x8DA5CB5B EQ PUSH2 0x88 JUMPI DUP1 PUSH4 0xF2FDE38B EQ PUSH2 0xA6 JUMPI JUMPDEST PUSH0 PUSH0 REVERT JUMPDEST PUSH2 0x68 PUSH1 0x4 DUP1 CALLDATASIZE SUB DUP2 ADD SWAP1 PUSH2 0x63 SWAP2 SWAP1 PUSH2 0xAFA JUMP JUMPDEST PUSH2 0xC2 JUMP JUMPDEST PUSH1 0x40 MLOAD PUSH2 0x75 SWAP2 SWAP1 PUSH2 0xB83 JUMP JUMPDEST PUSH1 0x40 MLOAD DUP1 SWAP2 SUB SWAP1 RETURN JUMPDEST PUSH2 0x86 PUSH2 0x5C8 JUMP JUMPDEST STOP JUMPDEST PUSH2 0x90 PUSH2 0x757 JUMP JUMPDEST PUSH1 0x40 MLOAD PUSH2 0x9D SWAP2 SWAP1 PUSH2 0xBAB JUMP JUMPDEST PUSH1 0x40 MLOAD DUP1 SWAP2 SUB SWAP1 RETURN JUMPDEST PUSH2 0xC0 PUSH1 0x4 DUP1 CALLDATASIZE SUB DUP2 ADD SWAP1 PUSH2 0xBB SWAP2 SWAP1 PUSH2 0xBC4 JUMP JUMPDEST PUSH2 0x77E JUMP JUMPDEST STOP JUMPDEST PUSH0 PUSH2 0xCB PUSH2 0x792 JUMP JUMPDEST PUSH0 PUSH1 0x40 MLOAD DUP1 PUSH1 0xA0 ADD PUSH1 0x40 MSTORE DUP1 DUP7 PUSH1 0x40 MLOAD PUSH1 0x20 ADD PUSH2 0xE8 SWAP2 SWAP1 PUSH2 0xBAB JUMP JUMPDEST PUSH1 0x40 MLOAD PUSH1 0x20 DUP2 DUP4 SUB SUB DUP2 MSTORE SWAP1 PUSH1 0x40 MSTORE DUP2 MSTORE PUSH1 0x20 ADD DUP6 DUP6 PUSH1 0x40 MLOAD PUSH1 0x20 ADD PUSH2 0x10F SWAP3 SWAP2 SWAP1 PUSH2 0xC49 JUMP JUMPDEST PUSH1 0x40 MLOAD PUSH1 0x20 DUP2 DUP4 SUB SUB DUP2 MSTORE SWAP1 PUSH1 0x40 MSTORE DUP2 MSTORE PUSH1 0x20 ADD PUSH0 PUSH8 0xFFFFFFFFFFFFFFFF DUP2 GT ISZERO PUSH2 0x13D JUMPI PUSH2 0x13C PUSH2 0xC6B JUMP JUMPDEST JUMPDEST PUSH1 0x40 MLOAD SWAP1 DUP1 DUP3 MSTORE DUP1 PUSH1 0x20 MUL PUSH1 0x20 ADD DUP3 ADD PUSH1 0x40 MSTORE DUP1 ISZERO PUSH2 0x176 JUMPI DUP2 PUSH1 0x20 ADD JUMPDEST PUSH2 0x163 PUSH2 0x9CC JUMP JUMPDEST DUP2 MSTORE PUSH1 0x20 ADD SWAP1 PUSH1 0x1 SWAP1 SUB SWAP1 DUP2 PUSH2 0x15B JUMPI SWAP1 POP JUMPDEST POP DUP2 MSTORE PUSH1 0x20 ADD PUSH1 0x3 PUSH0 SWAP1 SLOAD SWAP1 PUSH2 0x100 EXP SWAP1 DIV PUSH20 0xFFFFFFFFFFFFFFFFFFFFFFFFFFFFFFFFFFFFFFFF AND PUSH20 0xFFFFFFFFFFFFFFFFFFFFFFFFFFFFFFFFFFFFFFFF AND DUP2 MSTORE PUSH1 0x20 ADD PUSH2 0x1DC PUSH1 0x40 MLOAD DUP1 PUSH1 0x40 ADD PUSH1 0x40 MSTORE DUP1 PUSH3 0x30D40 DUP2 MSTORE PUSH1 0x20 ADD PUSH1 0x1 ISZERO ISZERO DUP2 MSTORE POP PUSH2 0x822 JUMP JUMPDEST DUP2 MSTORE POP SWAP1 POP PUSH0 PUSH1 0x2 PUSH0 SWAP1 SLOAD SWAP1 PUSH2 0x100 EXP SWAP1 DIV PUSH20 0xFFFFFFFFFFFFFFFFFFFFFFFFFFFFFFFFFFFFFFFF AND PUSH20 0xFFFFFFFFFFFFFFFFFFFFFFFFFFFFFFFFFFFFFFFF AND PUSH4 0x20487DED DUP9 DUP5 PUSH1 0x40 MLOAD DUP4 PUSH4 0xFFFFFFFF AND PUSH1 0xE0 SHL DUP2 MSTORE PUSH1 0x4 ADD PUSH2 0x23E SWAP3 SWAP2 SWAP1 PUSH2 0xE8B JUMP JUMPDEST PUSH1 0x20 PUSH1 0x40 MLOAD DUP1 DUP4 SUB DUP2 DUP7 GAS STATICCALL ISZERO DUP1 ISZERO PUSH2 0x259 JUMPI RETURNDATASIZE PUSH0 PUSH0 RETURNDATACOPY RETURNDATASIZE PUSH0 REVERT JUMPDEST POP POP POP POP PUSH1 0x40 MLOAD RETURNDATASIZE PUSH1 0x1F NOT PUSH1 0x1F DUP3 ADD AND DUP3 ADD DUP1 PUSH1 0x40 MSTORE POP DUP2 ADD SWAP1 PUSH2 0x27D SWAP2 SWAP1 PUSH2 0xEE3 JUMP JUMPDEST SWAP1 POP PUSH1 0x3 PUSH0 SWAP1 SLOAD SWAP1 PUSH2 0x100 EXP SWAP1 DIV PUSH20 0xFFFFFFFFFFFFFFFFFFFFFFFFFFFFFFFFFFFFFFFF AND PUSH20 0xFFFFFFFFFFFFFFFFFFFFFFFFFFFFFFFFFFFFFFFF AND PUSH4 0x70A08231 ADDRESS PUSH1 0x40 MLOAD DUP3 PUSH4 0xFFFFFFFF AND PUSH1 0xE0 SHL DUP2 MSTORE PUSH1 0x4 ADD PUSH2 0x2D9 SWAP2 SWAP1 PUSH2 0xBAB JUMP JUMPDEST PUSH1 0x20 PUSH1 0x40 MLOAD DUP1 DUP4 SUB DUP2 DUP7 GAS STATICCALL ISZERO DUP1 ISZERO PUSH2 0x2F4 JUMPI RETURNDATASIZE PUSH0 PUSH0 RETURNDATACOPY RETURNDATASIZE PUSH0 REVERT JUMPDEST POP POP POP POP PUSH1 0x40 MLOAD RETURNDATASIZE PUSH1 0x1F NOT PUSH1 0x1F DUP3 ADD AND DUP3 ADD DUP1 PUSH1 0x40 MSTORE POP DUP2 ADD SWAP1 PUSH2 0x318 SWAP2 SWAP1 PUSH2 0xEE3 JUMP JUMPDEST DUP2 GT ISZERO PUSH2 0x3F6 JUMPI PUSH1 0x3 PUSH0 SWAP1 SLOAD SWAP1 PUSH2 0x100 EXP SWAP1 DIV PUSH20 0xFFFFFFFFFFFFFFFFFFFFFFFFFFFFFFFFFFFFFFFF AND PUSH20 0xFFFFFFFFFFFFFFFFFFFFFFFFFFFFFFFFFFFFFFFF AND PUSH4 0x70A08231 ADDRESS PUSH1 0x40 MLOAD DUP3 PUSH4 0xFFFFFFFF AND PUSH1 0xE0 SHL DUP2 MSTORE PUSH1 0x4 ADD PUSH2 0x379 SWAP2 SWAP1 PUSH2 0xBAB JUMP JUMPDEST PUSH1 0x20 PUSH1 0x40 MLOAD DUP1 DUP4 SUB DUP2 DUP7 GAS STATICCALL ISZERO DUP1 ISZERO PUSH2 0x394 JUMPI RETURNDATASIZE PUSH0 PUSH0 RETURNDATACOPY RETURNDATASIZE PUSH0 REVERT JUMPDEST POP POP POP POP PUSH1 0x40 MLOAD RETURNDATASIZE PUSH1 0x1F NOT PUSH1 0x1F DUP3 ADD AND DUP3 ADD DUP1 PUSH1 0x40 MSTORE POP DUP2 ADD SWAP1 PUSH2 0x3B8 SWAP2 SWAP1 PUSH2 0xEE3 JUMP JUMPDEST DUP2 PUSH1 0x40 MLOAD PUSH32 0x8F0F420600000000000000000000000000000000000000000000000000000000 DUP2 MSTORE PUSH1 0x4 ADD PUSH2 0x3ED SWAP3 SWAP2 SWAP1 PUSH2 0xF1D JUMP JUMPDEST PUSH1 0x40 MLOAD DUP1 SWAP2 SUB SWAP1 REVERT JUMPDEST PUSH1 0x3 PUSH0 SWAP1 SLOAD SWAP1 PUSH2 0x100 EXP SWAP1 DIV PUSH20 0xFFFFFFFFFFFFFFFFFFFFFFFFFFFFFFFFFFFFFFFF AND PUSH20 0xFFFFFFFFFFFFFFFFFFFFFFFFFFFFFFFFFFFFFFFF AND PUSH4 0x95EA7B3 PUSH1 0x2 PUSH0 SWAP1 SLOAD SWAP1 PUSH2 0x100 EXP SWAP1 DIV PUSH20 0xFFFFFFFFFFFFFFFFFFFFFFFFFFFFFFFFFFFFFFFF AND DUP4 PUSH1 0x40 MLOAD DUP4 PUSH4 0xFFFFFFFF AND PUSH1 0xE0 SHL DUP2 MSTORE PUSH1 0x4 ADD PUSH2 0x473 SWAP3 SWAP2 SWAP1 PUSH2 0xF44 JUMP JUMPDEST PUSH1 0x20 PUSH1 0x40 MLOAD DUP1 DUP4 SUB DUP2 PUSH0 DUP8 GAS CALL ISZERO DUP1 ISZERO PUSH2 0x48F JUMPI RETURNDATASIZE PUSH0 PUSH0 RETURNDATACOPY RETURNDATASIZE PUSH0 REVERT JUMPDEST POP POP POP POP PUSH1 0x40 MLOAD RETURNDATASIZE PUSH1 0x1F NOT PUSH1 0x1F DUP3 ADD AND DUP3 ADD DUP1 PUSH1 0x40 MSTORE POP DUP2 ADD SWAP1 PUSH2 0x4B3 SWAP2 SWAP1 PUSH2 0xFA0 JUMP JUMPDEST POP PUSH1 0x2 PUSH0 SWAP1 SLOAD SWAP1 PUSH2 0x100 EXP SWAP1 DIV PUSH20 0xFFFFFFFFFFFFFFFFFFFFFFFFFFFFFFFFFFFFFFFF AND PUSH20 0xFFFFFFFFFFFFFFFFFFFFFFFFFFFFFFFFFFFFFFFF AND PUSH4 0x96F4E9F9 DUP9 DUP5 PUSH1 0x40 MLOAD DUP4 PUSH4 0xFFFFFFFF AND PUSH1 0xE0 SHL DUP2 MSTORE PUSH1 0x4 ADD PUSH2 0x510 SWAP3 SWAP2 SWAP1 PUSH2 0xE8B JUMP JUMPDEST PUSH1 0x20 PUSH1 0x40 MLOAD DUP1 DUP4 SUB DUP2 PUSH0 DUP8 GAS CALL ISZERO DUP1 ISZERO PUSH2 0x52C JUMPI RETURNDATASIZE PUSH0 PUSH0 RETURNDATACOPY RETURNDATASIZE PUSH0 REVERT JUMPDEST POP POP POP POP PUSH1 0x40 MLOAD RETURNDATASIZE PUSH1 0x1F NOT PUSH1 0x1F DUP3 ADD AND DUP3 ADD DUP1 PUSH1 0x40 MSTORE POP DUP2 ADD SWAP1 PUSH2 0x550 SWAP2 SWAP1 PUSH2 0xFF5 JUMP JUMPDEST SWAP3 POP DUP7 PUSH8 0xFFFFFFFFFFFFFFFF AND DUP4 PUSH32 0xD36445359B3C6E26C120659AEF090CE0F2EB005CF9AF450D11AA1225609B4F4D DUP9 DUP9 DUP9 PUSH1 0x3 PUSH0 SWAP1 SLOAD SWAP1 PUSH2 0x100 EXP SWAP1 DIV PUSH20 0xFFFFFFFFFFFFFFFFFFFFFFFFFFFFFFFFFFFFFFFF AND DUP8 PUSH1 0x40 MLOAD PUSH2 0x5B6 SWAP6 SWAP5 SWAP4 SWAP3 SWAP2 SWAP1 PUSH2 0x1020 JUMP JUMPDEST PUSH1 0x40 MLOAD DUP1 SWAP2 SUB SWAP1 LOG3 POP POP SWAP5 SWAP4 POP POP POP POP JUMP JUMPDEST PUSH1 0x1 PUSH0 SWAP1 SLOAD SWAP1 PUSH2 0x100 EXP SWAP1 DIV PUSH20 0xFFFFFFFFFFFFFFFFFFFFFFFFFFFFFFFFFFFFFFFF AND PUSH20 0xFFFFFFFFFFFFFFFFFFFFFFFFFFFFFFFFFFFFFFFF AND CALLER PUSH20 0xFFFFFFFFFFFFFFFFFFFFFFFFFFFFFFFFFFFFFFFF AND EQ PUSH2 0x657 JUMPI PUSH1 0x40 MLOAD PUSH32 0x8C379A000000000000000000000000000000000000000000000000000000000 DUP2 MSTORE PUSH1 0x4 ADD PUSH2 0x64E SWAP1 PUSH2 0x10B6 JUMP JUMPDEST PUSH1 0x40 MLOAD DUP1 SWAP2 SUB SWAP1 REVERT JUMPDEST PUSH0 PUSH0 PUSH0 SWAP1 SLOAD SWAP1 PUSH2 0x100 EXP SWAP1 DIV PUSH20 0xFFFFFFFFFFFFFFFFFFFFFFFFFFFFFFFFFFFFFFFF AND SWAP1 POP CALLER PUSH0 PUSH0 PUSH2 0x100 EXP DUP2 SLOAD DUP2 PUSH20 0xFFFFFFFFFFFFFFFFFFFFFFFFFFFFFFFFFFFFFFFF MUL NOT AND SWAP1 DUP4 PUSH20 0xFFFFFFFFFFFFFFFFFFFFFFFFFFFFFFFFFFFFFFFF AND MUL OR SWAP1 SSTORE POP PUSH0 PUSH1 0x1 PUSH0 PUSH2 0x100 EXP DUP2 SLOAD DUP2 PUSH20 0xFFFFFFFFFFFFFFFFFFFFFFFFFFFFFFFFFFFFFFFF MUL NOT AND SWAP1 DUP4 PUSH20 0xFFFFFFFFFFFFFFFFFFFFFFFFFFFFFFFFFFFFFFFF AND MUL OR SWAP1 SSTORE POP CALLER PUSH20 0xFFFFFFFFFFFFFFFFFFFFFFFFFFFFFFFFFFFFFFFF AND DUP2 PUSH20 0xFFFFFFFFFFFFFFFFFFFFFFFFFFFFFFFFFFFFFFFF AND PUSH32 0x8BE0079C531659141344CD1FD0A4F28419497F9722A3DAAFE3B4186F6B6457E0 PUSH1 0x40 MLOAD PUSH1 0x40 MLOAD DUP1 SWAP2 SUB SWAP1 LOG3 POP JUMP JUMPDEST PUSH0 PUSH0 PUSH0 SWAP1 SLOAD SWAP1 PUSH2 0x100 EXP SWAP1 DIV PUSH20 0xFFFFFFFFFFFFFFFFFFFFFFFFFFFFFFFFFFFFFFFF AND SWAP1 POP SWAP1 JUMP JUMPDEST PUSH2 0x786 PUSH2 0x792 JUMP JUMPDEST PUSH2 0x78F DUP2 PUSH2 0x8A1 JUMP JUMPDEST POP JUMP JUMPDEST PUSH0 PUSH0 SWAP1 SLOAD SWAP1 PUSH2 0x100 EXP SWAP1 DIV PUSH20 0xFFFFFFFFFFFFFFFFFFFFFFFFFFFFFFFFFFFFFFFF AND PUSH20 0xFFFFFFFFFFFFFFFFFFFFFFFFFFFFFFFFFFFFFFFF AND CALLER PUSH20 0xFFFFFFFFFFFFFFFFFFFFFFFFFFFFFFFFFFFFFFFF AND EQ PUSH2 0x820 JUMPI PUSH1 0x40 MLOAD PUSH32 0x8C379A000000000000000000000000000000000000000000000000000000000 DUP2 MSTORE PUSH1 0x4 ADD PUSH2 0x817 SWAP1 PUSH2 0x111E JUMP JUMPDEST PUSH1 0x40 MLOAD DUP1 SWAP2 SUB SWAP1 REVERT JUMPDEST JUMP JUMPDEST PUSH1 0x60 PUSH4 0x181DCF10 PUSH1 0xE0 SHL DUP3 PUSH1 0x40 MLOAD PUSH1 0x24 ADD PUSH2 0x83D SWAP2 SWAP1 PUSH2 0x1178 JUMP JUMPDEST PUSH1 0x40 MLOAD PUSH1 0x20 DUP2 DUP4 SUB SUB DUP2 MSTORE SWAP1 PUSH1 0x40 MSTORE SWAP1 PUSH28 0xFFFFFFFFFFFFFFFFFFFFFFFFFFFFFFFFFFFFFFFFFFFFFFFFFFFFFFFF NOT AND PUSH1 0x20 DUP3 ADD DUP1 MLOAD PUSH28 0xFFFFFFFFFFFFFFFFFFFFFFFFFFFFFFFFFFFFFFFFFFFFFFFFFFFFFFFF DUP4 DUP2 DUP4 AND OR DUP4 MSTORE POP POP POP POP SWAP1 POP SWAP2 SWAP1 POP JUMP JUMPDEST CALLER PUSH20 0xFFFFFFFFFFFFFFFFFFFFFFFFFFFFFFFFFFFFFFFF AND DUP2 PUSH20 0xFFFFFFFFFFFFFFFFFFFFFFFFFFFFFFFFFFFFFFFF AND SUB PUSH2 0x90F JUMPI PUSH1 0x40 MLOAD PUSH32 0x8C379A000000000000000000000000000000000000000000000000000000000 DUP2 MSTORE PUSH1 0x4 ADD PUSH2 0x906 SWAP1 PUSH2 0x11DB JUMP JUMPDEST PUSH1 0x40 MLOAD DUP1 SWAP2 SUB SWAP1 REVERT JUMPDEST DUP1 PUSH1 0x1 PUSH0 PUSH2 0x100 EXP DUP2 SLOAD DUP2 PUSH20 0xFFFFFFFFFFFFFFFFFFFFFFFFFFFFFFFFFFFFFFFF MUL NOT AND SWAP1 DUP4 PUSH20 0xFFFFFFFFFFFFFFFFFFFFFFFFFFFFFFFFFFFFFFFF AND MUL OR SWAP1 SSTORE POP DUP1 PUSH20 0xFFFFFFFFFFFFFFFFFFFFFFFFFFFFFFFFFFFFFFFF AND PUSH0 PUSH0 SWAP1 SLOAD SWAP1 PUSH2 0x100 EXP SWAP1 DIV PUSH20 0xFFFFFFFFFFFFFFFFFFFFFFFFFFFFFFFFFFFFFFFF AND PUSH20 0xFFFFFFFFFFFFFFFFFFFFFFFFFFFFFFFFFFFFFFFF AND PUSH32 0xED8889F560326EB138920D842192F0EB3DD22B4F139C87A2C57538E05BAE1278 PUSH1 0x40 MLOAD PUSH1 0x40 MLOAD DUP1 SWAP2 SUB SWAP1 LOG3 POP JUMP JUMPDEST PUSH1 0x40 MLOAD DUP1 PUSH1 0x40 ADD PUSH1 0x40 MSTORE DUP1 PUSH0 PUSH20 0xFFFFFFFFFFFFFFFFFFFFFFFFFFFFFFFFFFFFFFFF AND DUP2 MSTORE PUSH1 0x20 ADD PUSH0 DUP2 MSTORE POP SWAP1 JUMP JUMPDEST PUSH0 PUSH0 REVERT JUMPDEST PUSH0 PUSH0 REVERT JUMPDEST PUSH0 PUSH8 0xFFFFFFFFFFFFFFFF DUP3 AND SWAP1 POP SWAP2 SWAP1 POP JUMP JUMPDEST PUSH2 0xA1E DUP2 PUSH2 0xA02 JUMP JUMPDEST DUP2 EQ PUSH2 0xA28 JUMPI PUSH0 PUSH0 REVERT JUMPDEST POP JUMP JUMPDEST PUSH0 DUP2 CALLDATALOAD SWAP1 POP PUSH2 0xA39 DUP2 PUSH2 0xA15 JUMP JUMPDEST SWAP3 SWAP2 POP POP JUMP JUMPDEST PUSH0 PUSH20 0xFFFFFFFFFFFFFFFFFFFFFFFFFFFFFFFFFFFFFFFF DUP3 AND SWAP1 POP SWAP2 SWAP1 POP JUMP JUMPDEST PUSH0 PUSH2 0xA68 DUP3 PUSH2 0xA3F JUMP JUMPDEST SWAP1 POP SWAP2 SWAP1 POP JUMP JUMPDEST PUSH2 0xA78 DUP2 PUSH2 0xA5E JUMP JUMPDEST DUP2 EQ PUSH2 0xA82 JUMPI PUSH0 PUSH0 REVERT JUMPDEST POP JUMP JUMPDEST PUSH0 DUP2 CALLDATALOAD SWAP1 POP PUSH2 0xA93 DUP2 PUSH2 0xA6F JUMP JUMPDEST SWAP3 SWAP2 POP POP JUMP JUMPDEST PUSH0 PUSH0 REVERT JUMPDEST PUSH0 PUSH0 REVERT JUMPDEST PUSH0 PUSH0 REVERT JUMPDEST PUSH0 PUSH0 DUP4 PUSH1 0x1F DUP5 ADD SLT PUSH2 0xABA JUMPI PUSH2 0xAB9 PUSH2 0xA99 JUMP JUMPDEST JUMPDEST DUP3 CALLDATALOAD SWAP1 POP PUSH8 0xFFFFFFFFFFFFFFFF DUP2 GT ISZERO PUSH2 0xAD7 JUMPI PUSH2 0xAD6 PUSH2 0xA9D JUMP JUMPDEST JUMPDEST PUSH1 0x20 DUP4 ADD SWAP2 POP DUP4 PUSH1 0x1 DUP3 MUL DUP4 ADD GT ISZERO PUSH2 0xAF3 JUMPI PUSH2 0xAF2 PUSH2 0xAA1 JUMP JUMPDEST JUMPDEST SWAP3 POP SWAP3 SWAP1 POP JUMP JUMPDEST PUSH0 PUSH0 PUSH0 PUSH0 PUSH1 0x60 DUP6 DUP8 SUB SLT ISZERO PUSH2 0xB12 JUMPI PUSH2 0xB11 PUSH2 0x9FA JUMP JUMPDEST JUMPDEST PUSH0 PUSH2 0xB1F DUP8 DUP3 DUP9 ADD PUSH2 0xA2B JUMP JUMPDEST SWAP5 POP POP PUSH1 0x20 PUSH2 0xB30 DUP8 DUP3 DUP9 ADD PUSH2 0xA85 JUMP JUMPDEST SWAP4 POP POP PUSH1 0x40 DUP6 ADD CALLDATALOAD PUSH8 0xFFFFFFFFFFFFFFFF DUP2 GT ISZERO PUSH2 0xB51 JUMPI PUSH2 0xB50 PUSH2 0x9FE JUMP JUMPDEST JUMPDEST PUSH2 0xB5D DUP8 DUP3 DUP9 ADD PUSH2 0xAA5 JUMP JUMPDEST SWAP3 POP SWAP3 POP POP SWAP3 SWAP6 SWAP2 SWAP5 POP SWAP3 POP JUMP JUMPDEST PUSH0 DUP2 SWAP1 POP SWAP2 SWAP1 POP JUMP JUMPDEST PUSH2 0xB7D DUP2 PUSH2 0xB6B JUMP JUMPDEST DUP3 MSTORE POP POP JUMP JUMPDEST PUSH0 PUSH1 0x20 DUP3 ADD SWAP1 POP PUSH2 0xB96 PUSH0 DUP4 ADD DUP5 PUSH2 0xB74 JUMP JUMPDEST SWAP3 SWAP2 POP POP JUMP JUMPDEST PUSH2 0xBA5 DUP2 PUSH2 0xA5E JUMP JUMPDEST DUP3 MSTORE POP POP JUMP JUMPDEST PUSH0 PUSH1 0x20 DUP3 ADD SWAP1 POP PUSH2 0xBBE PUSH0 DUP4 ADD DUP5 PUSH2 0xB9C JUMP JUMPDEST SWAP3 SWAP2 POP POP JUMP JUMPDEST PUSH0 PUSH1 0x20 DUP3 DUP5 SUB SLT ISZERO PUSH2 0xBD9 JUMPI PUSH2 0xBD8 PUSH2 0x9FA JUMP JUMPDEST JUMPDEST PUSH0 PUSH2 0xBE6 DUP5 DUP3 DUP6 ADD PUSH2 0xA85 JUMP JUMPDEST SWAP2 POP POP SWAP3 SWAP2 POP POP JUMP JUMPDEST PUSH0 DUP3 DUP3 MSTORE PUSH1 0x20 DUP3 ADD SWAP1 POP SWAP3 SWAP2 POP POP JUMP JUMPDEST DUP3 DUP2 DUP4 CALLDATACOPY PUSH0 DUP4 DUP4 ADD MSTORE POP POP POP JUMP JUMPDEST PUSH0 PUSH1 0x1F NOT PUSH1 0x1F DUP4 ADD AND SWAP1 POP SWAP2 SWAP1 POP JUMP JUMPDEST PUSH0 PUSH2 0xC28 DUP4 DUP6 PUSH2 0xBEF JUMP JUMPDEST SWAP4 POP PUSH2 0xC35 DUP4 DUP6 DUP5 PUSH2 0xBFF JUMP JUMPDEST PUSH2 0xC3E DUP4 PUSH2 0xC0D JUMP JUMPDEST DUP5 ADD SWAP1 POP SWAP4 SWAP3 POP POP POP JUMP JUMPDEST PUSH0 PUSH1 0x20 DUP3 ADD SWAP1 POP DUP2 DUP2 SUB PUSH0 DUP4 ADD MSTORE PUSH2 0xC62 DUP2 DUP5 DUP7 PUSH2 0xC1D JUMP JUMPDEST SWAP1 POP SWAP4 SWAP3 POP POP POP JUMP JUMPDEST PUSH32 0x4E487B7100000000000000000000000000000000000000000000000000000000 PUSH0 MSTORE PUSH1 0x41 PUSH1 0x4 MSTORE PUSH1 0x24 PUSH0 REVERT JUMPDEST PUSH2 0xCA1 DUP2 PUSH2 0xA02 JUMP JUMPDEST DUP3 MSTORE POP POP JUMP JUMPDEST PUSH0 DUP2 MLOAD SWAP1 POP SWAP2 SWAP1 POP JUMP JUMPDEST PUSH0 DUP3 DUP3 MSTORE PUSH1 0x20 DUP3 ADD SWAP1 POP SWAP3 SWAP2 POP POP JUMP JUMPDEST DUP3 DUP2 DUP4 MCOPY PUSH0 DUP4 DUP4 ADD MSTORE POP POP POP JUMP JUMPDEST PUSH0 PUSH2 0xCD9 DUP3 PUSH2 0xCA7 JUMP JUMPDEST PUSH2 0xCE3 DUP2 DUP6 PUSH2 0xCB1 JUMP JUMPDEST SWAP4 POP PUSH2 0xCF3 DUP2 DUP6 PUSH1 0x20 DUP7 ADD PUSH2 0xCC1 JUMP JUMPDEST PUSH2 0xCFC DUP2 PUSH2 0xC0D JUMP JUMPDEST DUP5 ADD SWAP2 POP POP SWAP3 SWAP2 POP POP JUMP JUMPDEST PUSH0 DUP2 MLOAD SWAP1 POP SWAP2 SWAP1 POP JUMP JUMPDEST PUSH0 DUP3 DUP3 MSTORE PUSH1 0x20 DUP3 ADD SWAP1 POP SWAP3 SWAP2 POP POP JUMP JUMPDEST PUSH0 DUP2 SWAP1 POP PUSH1 0x20 DUP3 ADD SWAP1 POP SWAP2 SWAP1 POP JUMP JUMPDEST PUSH2 0xD39 DUP2 PUSH2 0xA5E JUMP JUMPDEST DUP3 MSTORE POP POP JUMP JUMPDEST PUSH0 DUP2 SWAP1 POP SWAP2 SWAP1 POP JUMP JUMPDEST PUSH2 0xD51 DUP2 PUSH2 0xD3F JUMP JUMPDEST DUP3 MSTORE POP POP JUMP JUMPDEST PUSH1 0x40 DUP3 ADD PUSH0 DUP3 ADD MLOAD PUSH2 0xD6B PUSH0 DUP6 ADD DUP3 PUSH2 0xD30 JUMP JUMPDEST POP PUSH1 0x20 DUP3 ADD MLOAD PUSH2 0xD7E PUSH1 0x20 DUP6 ADD DUP3 PUSH2 0xD48 JUMP JUMPDEST POP POP POP POP JUMP JUMPDEST PUSH0 PUSH2 0xD8F DUP4 DUP4 PUSH2 0xD57 JUMP JUMPDEST PUSH1 0x40 DUP4 ADD SWAP1 POP SWAP3 SWAP2 POP POP JUMP JUMPDEST PUSH0 PUSH1 0x20 DUP3 ADD SWAP1 POP SWAP2 SWAP1 POP JUMP JUMPDEST PUSH0 PUSH2 0xDB1 DUP3 PUSH2 0xD07 JUMP JUMPDEST PUSH2 0xDBB DUP2 DUP6 PUSH2 0xD11 JUMP JUMPDEST SWAP4 POP PUSH2 0xDC6 DUP4 PUSH2 0xD21 JUMP JUMPDEST DUP1 PUSH0 JUMPDEST DUP4 DUP2 LT ISZERO PUSH2 0xDF6 JUMPI DUP2 MLOAD PUSH2 0xDDD DUP9 DUP3 PUSH2 0xD84 JUMP JUMPDEST SWAP8 POP PUSH2 0xDE8 DUP4 PUSH2 0xD9B JUMP JUMPDEST SWAP3 POP POP PUSH1 0x1 DUP2 ADD SWAP1 POP PUSH2 0xDC9 JUMP JUMPDEST POP DUP6 SWAP4 POP POP POP POP SWAP3 SWAP2 POP POP JUMP JUMPDEST PUSH0 PUSH1 0xA0 DUP4 ADD PUSH0 DUP4 ADD MLOAD DUP5 DUP3 SUB PUSH0 DUP7 ADD MSTORE PUSH2 0xE1D DUP3 DUP3 PUSH2 0xCCF JUMP JUMPDEST SWAP2 POP POP PUSH1 0x20 DUP4 ADD MLOAD DUP5 DUP3 SUB PUSH1 0x20 DUP7 ADD MSTORE PUSH2 0xE37 DUP3 DUP3 PUSH2 0xCCF JUMP JUMPDEST SWAP2 POP POP PUSH1 0x40 DUP4 ADD MLOAD DUP5 DUP3 SUB PUSH1 0x40 DUP7 ADD MSTORE PUSH2 0xE51 DUP3 DUP3 PUSH2 0xDA7 JUMP JUMPDEST SWAP2 POP POP PUSH1 0x60 DUP4 ADD MLOAD PUSH2 0xE66 PUSH1 0x60 DUP7 ADD DUP3 PUSH2 0xD30 JUMP JUMPDEST POP PUSH1 0x80 DUP4 ADD MLOAD DUP5 DUP3 SUB PUSH1 0x80 DUP7 ADD MSTORE PUSH2 0xE7E DUP3 DUP3 PUSH2 0xCCF JUMP JUMPDEST SWAP2 POP POP DUP1 SWAP2 POP POP SWAP3 SWAP2 POP POP JUMP JUMPDEST PUSH0 PUSH1 0x40 DUP3 ADD SWAP1 POP PUSH2 0xE9E PUSH0 DUP4 ADD DUP6 PUSH2 0xC98 JUMP JUMPDEST DUP2 DUP2 SUB PUSH1 0x20 DUP4 ADD MSTORE PUSH2 0xEB0 DUP2 DUP5 PUSH2 0xE03 JUMP JUMPDEST SWAP1 POP SWAP4 SWAP3 POP POP POP JUMP JUMPDEST PUSH2 0xEC2 DUP2 PUSH2 0xD3F JUMP JUMPDEST DUP2 EQ PUSH2 0xECC JUMPI PUSH0 PUSH0 REVERT JUMPDEST POP JUMP JUMPDEST PUSH0 DUP2 MLOAD SWAP1 POP PUSH2 0xEDD DUP2 PUSH2 0xEB9 JUMP JUMPDEST SWAP3 SWAP2 POP POP JUMP JUMPDEST PUSH0 PUSH1 0x20 DUP3 DUP5 SUB SLT ISZERO PUSH2 0xEF8 JUMPI PUSH2 0xEF7 PUSH2 0x9FA JUMP JUMPDEST JUMPDEST PUSH0 PUSH2 0xF05 DUP5 DUP3 DUP6 ADD PUSH2 0xECF JUMP JUMPDEST SWAP2 POP POP SWAP3 SWAP2 POP POP JUMP JUMPDEST PUSH2 0xF17 DUP2 PUSH2 0xD3F JUMP JUMPDEST DUP3 MSTORE POP POP JUMP JUMPDEST PUSH0 PUSH1 0x40 DUP3 ADD SWAP1 POP PUSH2 0xF30 PUSH0 DUP4 ADD DUP6 PUSH2 0xF0E JUMP JUMPDEST PUSH2 0xF3D PUSH1 0x20 DUP4 ADD DUP5 PUSH2 0xF0E JUMP JUMPDEST SWAP4 SWAP3 POP POP POP JUMP JUMPDEST PUSH0 PUSH1 0x40 DUP3 ADD SWAP1 POP PUSH2 0xF57 PUSH0 DUP4 ADD DUP6 PUSH2 0xB9C JUMP JUMPDEST PUSH2 0xF64 PUSH1 0x20 DUP4 ADD DUP5 PUSH2 0xF0E JUMP JUMPDEST SWAP4 SWAP3 POP POP POP JUMP JUMPDEST PUSH0 DUP2 ISZERO ISZERO SWAP1 POP SWAP2 SWAP1 POP JUMP JUMPDEST PUSH2 0xF7F DUP2 PUSH2 0xF6B JUMP JUMPDEST DUP2 EQ PUSH2 0xF89 JUMPI PUSH0 PUSH0 REVERT JUMPDEST POP JUMP JUMPDEST PUSH0 DUP2 MLOAD SWAP1 POP PUSH2 0xF9A DUP2 PUSH2 0xF76 JUMP JUMPDEST SWAP3 SWAP2 POP POP JUMP JUMPDEST PUSH0 PUSH1 0x20 DUP3 DUP5 SUB SLT ISZERO PUSH2 0xFB5 JUMPI PUSH2 0xFB4 PUSH2 0x9FA JUMP JUMPDEST JUMPDEST PUSH0 PUSH2 0xFC2 DUP5 DUP3 DUP6 ADD PUSH2 0xF8C JUMP JUMPDEST SWAP2 POP POP SWAP3 SWAP2 POP POP JUMP JUMPDEST PUSH2 0xFD4 DUP2 PUSH2 0xB6B JUMP JUMPDEST DUP2 EQ PUSH2 0xFDE JUMPI PUSH0 PUSH0 REVERT JUMPDEST POP JUMP JUMPDEST PUSH0 DUP2 MLOAD SWAP1 POP PUSH2 0xFEF DUP2 PUSH2 0xFCB JUMP JUMPDEST SWAP3 SWAP2 POP POP JUMP JUMPDEST PUSH0 PUSH1 0x20 DUP3 DUP5 SUB SLT ISZERO PUSH2 0x100A JUMPI PUSH2 0x1009 PUSH2 0x9FA JUMP JUMPDEST JUMPDEST PUSH0 PUSH2 0x1017 DUP5 DUP3 DUP6 ADD PUSH2 0xFE1 JUMP JUMPDEST SWAP2 POP POP SWAP3 SWAP2 POP POP JUMP JUMPDEST PUSH0 PUSH1 0x80 DUP3 ADD SWAP1 POP PUSH2 0x1033 PUSH0 DUP4 ADD DUP9 PUSH2 0xB9C JUMP JUMPDEST DUP2 DUP2 SUB PUSH1 0x20 DUP4 ADD MSTORE PUSH2 0x1046 DUP2 DUP7 DUP9 PUSH2 0xC1D JUMP JUMPDEST SWAP1 POP PUSH2 0x1055 PUSH1 0x40 DUP4 ADD DUP6 PUSH2 0xB9C JUMP JUMPDEST PUSH2 0x1062 PUSH1 0x60 DUP4 ADD DUP5 PUSH2 0xF0E JUMP JUMPDEST SWAP7 SWAP6 POP POP POP POP POP POP JUMP JUMPDEST PUSH32 0x4D7573742062652070726F706F736564206F776E657200000000000000000000 PUSH0 DUP3 ADD MSTORE POP JUMP JUMPDEST PUSH0 PUSH2 0x10A0 PUSH1 0x16 DUP4 PUSH2 0xBEF JUMP JUMPDEST SWAP2 POP PUSH2 0x10AB DUP3 PUSH2 0x106C JUMP JUMPDEST PUSH1 0x20 DUP3 ADD SWAP1 POP SWAP2 SWAP1 POP JUMP JUMPDEST PUSH0 PUSH1 0x20 DUP3 ADD SWAP1 POP DUP2 DUP2 SUB PUSH0 DUP4 ADD MSTORE PUSH2 0x10CD DUP2 PUSH2 0x1094 JUMP JUMPDEST SWAP1 POP SWAP2 SWAP1 POP JUMP JUMPDEST PUSH32 0x4F6E6C792063616C6C61626C65206279206F776E657200000000000000000000 PUSH0 DUP3 ADD MSTORE POP JUMP JUMPDEST PUSH0 PUSH2 0x1108 PUSH1 0x16 DUP4 PUSH2 0xBEF JUMP JUMPDEST SWAP2 POP PUSH2 0x1113 DUP3 PUSH2 0x10D4 JUMP JUMPDEST PUSH1 0x20 DUP3 ADD SWAP1 POP SWAP2 SWAP1 POP JUMP JUMPDEST PUSH0 PUSH1 0x20 DUP3 ADD SWAP1 POP DUP2 DUP2 SUB PUSH0 DUP4 ADD MSTORE PUSH2 0x1135 DUP2 PUSH2 0x10FC JUMP JUMPDEST SWAP1 POP SWAP2 SWAP1 POP JUMP JUMPDEST PUSH2 0x1145 DUP2 PUSH2 0xF6B JUMP JUMPDEST DUP3 MSTORE POP POP JUMP JUMPDEST PUSH1 0x40 DUP3 ADD PUSH0 DUP3 ADD MLOAD PUSH2 0x115F PUSH0 DUP6 ADD DUP3 PUSH2 0xD48 JUMP JUMPDEST POP PUSH1 0x20 DUP3 ADD MLOAD PUSH2 0x1172 PUSH1 0x20 DUP6 ADD DUP3 PUSH2 0x113C JUMP JUMPDEST POP POP POP POP JUMP JUMPDEST PUSH0 PUSH1 0x40 DUP3 ADD SWAP1 POP PUSH2 0x118B PUSH0 DUP4 ADD DUP5 PUSH2 0x114B JUMP JUMPDEST SWAP3 SWAP2 POP POP JUMP JUMPDEST PUSH32 0x43616E6E6F74207472616E7366657220746F2073656C66000000000000000000 PUSH0 DUP3 ADD MSTORE POP JUMP JUMPDEST PUSH0 PUSH2 0x11C5 PUSH1 0x17 DUP4 PUSH2 0xBEF JUMP JUMPDEST SWAP2 POP PUSH2 0x11D0 DUP3 PUSH2 0x1191 JUMP JUMPDEST PUSH1 0x20 DUP3 ADD SWAP1 POP SWAP2 SWAP1 POP JUMP JUMPDEST PUSH0 PUSH1 0x20 DUP3 ADD SWAP1 POP DUP2 DUP2 SUB PUSH0 DUP4 ADD MSTORE PUSH2 0x11F2 DUP2 PUSH2 0x11B9 JUMP JUMPDEST SWAP1 POP SWAP2 SWAP1 POP JUMP INVALID LOG2 PUSH5 0x6970667358 0x22 SLT KECCAK256 0xB4 0xB4 DUP4 0xB7 PUSH1 0x81 0xDC 0xD CALLDATALOAD 0x4F DUP1 0x24 0xA7 PUSH22 0xFF2C7F7D6DD1EF8ADACBB2FDE0E8EF77F8E564736F6C PUSH4 0x4300081E STOP CALLER "
				},
				"gasEstimates": {
					"creation": {
						"codeDepositCost": "931000",
						"executionCost": "73880",
						"totalCost": "1004880"
					},
					"external": {
						"acceptOwnership()": "54531",
						"owner()": "2536",
						"sendMessage(uint64,address,string)": "infinite",
						"transferOwnership(address)": "30693"
					}
				},
				"methodIdentifiers": {
					"acceptOwnership()": "79ba5097",
					"owner()": "8da5cb5b",
					"sendMessage(uint64,address,string)": "0eb5ad45",
					"transferOwnership(address)": "f2fde38b"
				}
			},
			"storageLayout": {
				"storage": [
					{
						"astId": 221,
						"contract": "CCIP/Sender.sol:Sender",
						"label": "s_owner",
						"offset": 0,
						"slot": "0",
						"type": "t_address"
					},
					{
						"astId": 223,
						"contract": "CCIP/Sender.sol:Sender",
						"label": "s_pendingOwner",
						"offset": 0,
						"slot": "1",
						"type": "t_address"
					},
					{
						"astId": 538,
						"contract": "CCIP/Sender.sol:Sender",
						"label": "s_router",
						"offset": 0,
						"slot": "2",
						"type": "t_contract(IRouterClient)42"
					},
					{
						"astId": 541,
						"contract": "CCIP/Sender.sol:Sender",
						"label": "s_linkToken",
						"offset": 0,
						"slot": "3",
						"type": "t_contract(LinkTokenInterface)502"
					}
				],
				"types": {
					"t_address": {
						"encoding": "inplace",
						"label": "address",
						"numberOfBytes": "20"
					},
					"t_contract(IRouterClient)42": {
						"encoding": "inplace",
						"label": "contract IRouterClient",
						"numberOfBytes": "20"
					},
					"t_contract(LinkTokenInterface)502": {
						"encoding": "inplace",
						"label": "contract LinkTokenInterface",
						"numberOfBytes": "20"
					}
				}
			},
			"userdoc": {
				"kind": "user",
				"methods": {
					"acceptOwnership()": {
						"notice": "Allows an ownership transfer to be completed by the recipient."
					},
					"constructor": {
						"notice": "Constructor initializes the contract with the router address."
					},
					"owner()": {
						"notice": "Get the current owner"
					},
					"sendMessage(uint64,address,string)": {
						"notice": "Sends data to receiver on the destination chain."
					},
					"transferOwnership(address)": {
						"notice": "Allows an owner to begin transferring ownership to a new address."
					}
				},
				"version": 1
			}
		}
	}
}