{
	"data": {
		"bytecode": {
			"linkReferences": {},
			"object": "60a060405234801561000f575f5ffd5b506040516114a93803806114a983398181016040528101906100319190610121565b815f5f6101000a81548173ffffffffffffffffffffffffffffffffffffffff021916908373ffffffffffffffffffffffffffffffffffffffff1602179055508060808181525050505061015f565b5f5ffd5b5f73ffffffffffffffffffffffffffffffffffffffff82169050919050565b5f6100ac82610083565b9050919050565b5f6100bd826100a2565b9050919050565b6100cd816100b3565b81146100d7575f5ffd5b50565b5f815190506100e8816100c4565b92915050565b5f819050919050565b610100816100ee565b811461010a575f5ffd5b50565b5f8151905061011b816100f7565b92915050565b5f5f604083850312156101375761013661007f565b5b5f610144858286016100da565b92505060206101558582860161010d565b9150509250929050565b6080516113246101855f395f81816103110152818161052b01526105fe01526113245ff3fe608060405234801561000f575f5ffd5b50600436106100fe575f3560e01c8063b7b55a8a11610095578063d38988fc11610064578063d38988fc14610268578063dddf9e7914610286578063e23e2c1514610290578063f6de0bd2146102ae576100fe565b8063b7b55a8a146101f0578063bfec5ab41461020e578063c687ffd91461022c578063ca18d2421461024a576100fe565b80637215b0bf116100d15780637215b0bf1461018c57806379ed9d30146101aa578063904871b0146101c8578063a3673b38146101d2576100fe565b80632fa9109e146101025780633f47e662146101205780634bca044e146101505780634f1b81621461016e575b5f5ffd5b61010a6102cc565b6040516101179190610aa4565b60405180910390f35b61013a60048036038101906101359190610af8565b6102d2565b6040516101479190610b3e565b60405180910390f35b610158610303565b6040516101659190610aa4565b60405180910390f35b610176610309565b6040516101839190610aa4565b60405180910390f35b61019461030f565b6040516101a19190610aa4565b60405180910390f35b6101b2610333565b6040516101bf9190610aa4565b60405180910390f35b6101d0610339565b005b6101da6103e1565b6040516101e79190610aa4565b60405180910390f35b6101f86103e7565b6040516102059190610aa4565b60405180910390f35b6102166103ed565b6040516102239190610b71565b60405180910390f35b6102346103ff565b6040516102419190610aa4565b60405180910390f35b610252610492565b60405161025f9190610aa4565b60405180910390f35b610270610498565b60405161027d9190610b71565b60405180910390f35b61028e61055e565b005b6102986109a5565b6040516102a59190610c04565b60405180910390f35b6102b66109c9565b6040516102c39190610aa4565b60405180910390f35b60065481565b600a81815481106102e1575f80fd5b905f5260205f209060209182820401919006915054906101000a900460ff1681565b60075481565b60095481565b7f000000000000000000000000000000000000000000000000000000000000000081565b60045481565b5f5f9054906101000a900473ffffffffffffffffffffffffffffffffffffffff1673ffffffffffffffffffffffffffffffffffffffff16639d91348d6040518163ffffffff1660e01b81526004015f60405180830381865afa1580156103a1573d5f5f3e3d5ffd5b505050506040513d5f823e3d601f19601f820116820180604052508101906103c99190610d97565b600a90805190602001906103de9291906109cf565b50565b60015481565b60085481565b60055f9054906101000a900460ff1681565b5f5f5f9054906101000a900473ffffffffffffffffffffffffffffffffffffffff1673ffffffffffffffffffffffffffffffffffffffff1663a3d610cc6040518163ffffffff1660e01b8152600401602060405180830381865afa158015610469573d5f5f3e3d5ffd5b505050506040513d601f19601f8201168201806040525081019061048d9190610df2565b905090565b60035481565b5f5f5f5f9054906101000a900473ffffffffffffffffffffffffffffffffffffffff1673ffffffffffffffffffffffffffffffffffffffff1663a3d610cc6040518163ffffffff1660e01b8152600401602060405180830381865afa158015610503573d5f5f3e3d5ffd5b505050506040513d601f19601f820116820180604052508101906105279190610df2565b90507f000000000000000000000000000000000000000000000000000000000000000081426105569190610e4a565b111591505090565b610566610498565b61065b575f5f5f9054906101000a900473ffffffffffffffffffffffffffffffffffffffff1673ffffffffffffffffffffffffffffffffffffffff1663a3d610cc6040518163ffffffff1660e01b8152600401602060405180830381865afa1580156105d4573d5f5f3e3d5ffd5b505050506040513d601f19601f820116820180604052508101906105f89190610df2565b905080427f00000000000000000000000000000000000000000000000000000000000000006040517f14be3a0500000000000000000000000000000000000000000000000000000000815260040161065293929190610e7d565b60405180910390fd5b5f600a805490500361070e575f5f9054906101000a900473ffffffffffffffffffffffffffffffffffffffff1673ffffffffffffffffffffffffffffffffffffffff16639d91348d6040518163ffffffff1660e01b81526004015f60405180830381865afa1580156106cf573d5f5f3e3d5ffd5b505050506040513d5f823e3d601f19601f820116820180604052508101906106f79190610d97565b600a908051906020019061070c9291906109cf565b505b6004600a805490501015610761576004600a805490506040517f73a39d25000000000000000000000000000000000000000000000000000000008152600401610758929190610eeb565b60405180910390fd5b5f5f5f9054906101000a900473ffffffffffffffffffffffffffffffffffffffff1673ffffffffffffffffffffffffffffffffffffffff16639198274f6040518163ffffffff1660e01b81526004015f60405180830381865afa1580156107ca573d5f5f3e3d5ffd5b505050506040513d5f823e3d601f19601f820116820180604052508101906107f29190610fc2565b90505f8180602001905181019061080991906110c0565b9050805f0151600681905550806020015160078190555080604001516008819055508060600151600981905550806080015160055f6101000a81548160ff021916908315150217905550600a5f81548110610867576108666110eb565b5b905f5260205f2090602091828204019190069054906101000a900460ff16600a6108919190611247565b815f015161089f91906112be565b600181905550600a6001815481106108ba576108b96110eb565b5b905f5260205f2090602091828204019190069054906101000a900460ff16600a6108e49190611247565b81602001516108f391906112be565b600281905550600a60028154811061090e5761090d6110eb565b5b905f5260205f2090602091828204019190069054906101000a900460ff16600a6109389190611247565b816040015161094791906112be565b600381905550600a600381548110610962576109616110eb565b5b905f5260205f2090602091828204019190069054906101000a900460ff16600a61098c9190611247565b816060015161099b91906112be565b6004819055505050565b5f5f9054906101000a900473ffffffffffffffffffffffffffffffffffffffff1681565b60025481565b828054828255905f5260205f2090601f01602090048101928215610a60579160200282015f5b83821115610a3257835183826101000a81548160ff021916908360ff16021790555092602001926001016020815f010492830192600103026109f5565b8015610a5e5782816101000a81549060ff02191690556001016020815f01049283019260010302610a32565b505b509050610a6d9190610a71565b5090565b5b80821115610a88575f815f905550600101610a72565b5090565b5f819050919050565b610a9e81610a8c565b82525050565b5f602082019050610ab75f830184610a95565b92915050565b5f604051905090565b5f5ffd5b5f5ffd5b610ad781610a8c565b8114610ae1575f5ffd5b50565b5f81359050610af281610ace565b92915050565b5f60208284031215610b0d57610b0c610ac6565b5b5f610b1a84828501610ae4565b91505092915050565b5f60ff82169050919050565b610b3881610b23565b82525050565b5f602082019050610b515f830184610b2f565b92915050565b5f8115159050919050565b610b6b81610b57565b82525050565b5f602082019050610b845f830184610b62565b92915050565b5f73ffffffffffffffffffffffffffffffffffffffff82169050919050565b5f819050919050565b5f610bcc610bc7610bc284610b8a565b610ba9565b610b8a565b9050919050565b5f610bdd82610bb2565b9050919050565b5f610bee82610bd3565b9050919050565b610bfe81610be4565b82525050565b5f602082019050610c175f830184610bf5565b92915050565b5f5ffd5b5f601f19601f8301169050919050565b7f4e487b71000000000000000000000000000000000000000000000000000000005f52604160045260245ffd5b610c6782610c21565b810181811067ffffffffffffffff82111715610c8657610c85610c31565b5b80604052505050565b5f610c98610abd565b9050610ca48282610c5e565b919050565b5f67ffffffffffffffff821115610cc357610cc2610c31565b5b602082029050602081019050919050565b5f5ffd5b610ce181610b23565b8114610ceb575f5ffd5b50565b5f81519050610cfc81610cd8565b92915050565b5f610d14610d0f84610ca9565b610c8f565b90508083825260208201905060208402830185811115610d3757610d36610cd4565b5b835b81811015610d605780610d4c8882610cee565b845260208401935050602081019050610d39565b5050509392505050565b5f82601f830112610d7e57610d7d610c1d565b5b8151610d8e848260208601610d02565b91505092915050565b5f60208284031215610dac57610dab610ac6565b5b5f82015167ffffffffffffffff811115610dc957610dc8610aca565b5b610dd584828501610d6a565b91505092915050565b5f81519050610dec81610ace565b92915050565b5f60208284031215610e0757610e06610ac6565b5b5f610e1484828501610dde565b91505092915050565b7f4e487b71000000000000000000000000000000000000000000000000000000005f52601160045260245ffd5b5f610e5482610a8c565b9150610e5f83610a8c565b9250828203905081811115610e7757610e76610e1d565b5b92915050565b5f606082019050610e905f830186610a95565b610e9d6020830185610a95565b610eaa6040830184610a95565b949350505050565b5f819050919050565b5f610ed5610ed0610ecb84610eb2565b610ba9565b610a8c565b9050919050565b610ee581610ebb565b82525050565b5f604082019050610efe5f830185610edc565b610f0b6020830184610a95565b9392505050565b5f5ffd5b5f67ffffffffffffffff821115610f3057610f2f610c31565b5b610f3982610c21565b9050602081019050919050565b8281835e5f83830152505050565b5f610f66610f6184610f16565b610c8f565b905082815260208101848484011115610f8257610f81610f12565b5b610f8d848285610f46565b509392505050565b5f82601f830112610fa957610fa8610c1d565b5b8151610fb9848260208601610f54565b91505092915050565b5f60208284031215610fd757610fd6610ac6565b5b5f82015167ffffffffffffffff811115610ff457610ff3610aca565b5b61100084828501610f95565b91505092915050565b5f5ffd5b61101681610b57565b8114611020575f5ffd5b50565b5f815190506110318161100d565b92915050565b5f60a0828403121561104c5761104b611009565b5b61105660a0610c8f565b90505f61106584828501610dde565b5f83015250602061107884828501610dde565b602083015250604061108c84828501610dde565b60408301525060606110a084828501610dde565b60608301525060806110b484828501611023565b60808301525092915050565b5f60a082840312156110d5576110d4610ac6565b5b5f6110e284828501611037565b91505092915050565b7f4e487b71000000000000000000000000000000000000000000000000000000005f52603260045260245ffd5b5f8160011c9050919050565b5f5f8291508390505b600185111561116d5780860481111561114957611148610e1d565b5b60018516156111585780820291505b808102905061116685611118565b945061112d565b94509492505050565b5f826111855760019050611240565b81611192575f9050611240565b81600181146111a857600281146111b2576111e1565b6001915050611240565b60ff8411156111c4576111c3610e1d565b5b8360020a9150848211156111db576111da610e1d565b5b50611240565b5060208310610133831016604e8410600b84101617156112165782820a90508381111561121157611210610e1d565b5b611240565b6112238484846001611124565b9250905081840481111561123a57611239610e1d565b5b81810290505b9392505050565b5f61125182610a8c565b915061125c83610b23565b92506112897fffffffffffffffffffffffffffffffffffffffffffffffffffffffffffffffff8484611176565b905092915050565b7f4e487b71000000000000000000000000000000000000000000000000000000005f52601260045260245ffd5b5f6112c882610a8c565b91506112d383610a8c565b9250826112e3576112e2611291565b5b82820490509291505056fea264697066735822122009bb59278974a938321005aebc5f1c6997035279084617813dc69ba684fadd4464736f6c634300081e0033",
			"opcodes": "PUSH1 0xA0 PUSH1 0x40 MSTORE CALLVALUE DUP1 ISZERO PUSH2 0xF JUMPI PUSH0 PUSH0 REVERT JUMPDEST POP PUSH1 0x40 MLOAD PUSH2 0x14A9 CODESIZE SUB DUP1 PUSH2 0x14A9 DUP4 CODECOPY DUP2 DUP2 ADD PUSH1 0x40 MSTORE DUP2 ADD SWAP1 PUSH2 0x31 SWAP2 SWAP1 PUSH2 0x121 JUMP JUMPDEST DUP2 PUSH0 PUSH0 PUSH2 0x100 EXP DUP2 SLOAD DUP2 PUSH20 0xFFFFFFFFFFFFFFFFFFFFFFFFFFFFFFFFFFFFFFFF MUL NOT AND SWAP1 DUP4 PUSH20 0xFFFFFFFFFFFFFFFFFFFFFFFFFFFFFFFFFFFFFFFF AND MUL OR SWAP1 SSTORE POP DUP1 PUSH1 0x80 DUP2 DUP2 MSTORE POP POP POP POP PUSH2 0x15F JUMP JUMPDEST PUSH0 PUSH0 REVERT JUMPDEST PUSH0 PUSH20 0xFFFFFFFFFFFFFFFFFFFFFFFFFFFFFFFFFFFFFFFF DUP3 AND SWAP1 POP SWAP2 SWAP1 POP JUMP JUMPDEST PUSH0 PUSH2 0xAC DUP3 PUSH2 0x83 JUMP JUMPDEST SWAP1 POP SWAP2 SWAP1 POP JUMP JUMPDEST PUSH0 PUSH2 0xBD DUP3 PUSH2 0xA2 JUMP JUMPDEST SWAP1 POP SWAP2 SWAP1 POP JUMP JUMPDEST PUSH2 0xCD DUP2 PUSH2 0xB3 JUMP JUMPDEST DUP2 EQ PUSH2 0xD7 JUMPI PUSH0 PUSH0 REVERT JUMPDEST POP JUMP JUMPDEST PUSH0 DUP2 MLOAD SWAP1 POP PUSH2 0xE8 DUP2 PUSH2 0xC4 JUMP JUMPDEST SWAP3 SWAP2 POP POP JUMP JUMPDEST PUSH0 DUP2 SWAP1 POP SWAP2 SWAP1 POP JUMP JUMPDEST PUSH2 0x100 DUP2 PUSH2 0xEE JUMP JUMPDEST DUP2 EQ PUSH2 0x10A JUMPI PUSH0 PUSH0 REVERT JUMPDEST POP JUMP JUMPDEST PUSH0 DUP2 MLOAD SWAP1 POP PUSH2 0x11B DUP2 PUSH2 0xF7 JUMP JUMPDEST SWAP3 SWAP2 POP POP JUMP JUMPDEST PUSH0 PUSH0 PUSH1 0x40 DUP4 DUP6 SUB SLT ISZERO PUSH2 0x137 JUMPI PUSH2 0x136 PUSH2 0x7F JUMP JUMPDEST JUMPDEST PUSH0 PUSH2 0x144 DUP6 DUP3 DUP7 ADD PUSH2 0xDA JUMP JUMPDEST SWAP3 POP POP PUSH1 0x20 PUSH2 0x155 DUP6 DUP3 DUP7 ADD PUSH2 0x10D JUMP JUMPDEST SWAP2 POP POP SWAP3 POP SWAP3 SWAP1 POP JUMP JUMPDEST PUSH1 0x80 MLOAD PUSH2 0x1324 PUSH2 0x185 PUSH0 CODECOPY PUSH0 DUP2 DUP2 PUSH2 0x311 ADD MSTORE DUP2 DUP2 PUSH2 0x52B ADD MSTORE PUSH2 0x5FE ADD MSTORE PUSH2 0x1324 PUSH0 RETURN INVALID PUSH1 0x80 PUSH1 0x40 MSTORE CALLVALUE DUP1 ISZERO PUSH2 0xF JUMPI PUSH0 PUSH0 REVERT JUMPDEST POP PUSH1 0x4 CALLDATASIZE LT PUSH2 0xFE JUMPI PUSH0 CALLDATALOAD PUSH1 0xE0 SHR DUP1 PUSH4 0xB7B55A8A GT PUSH2 0x95 JUMPI DUP1 PUSH4 0xD38988FC GT PUSH2 0x64 JUMPI DUP1 PUSH4 0xD38988FC EQ PUSH2 0x268 JUMPI DUP1 PUSH4 0xDDDF9E79 EQ PUSH2 0x286 JUMPI DUP1 PUSH4 0xE23E2C15 EQ PUSH2 0x290 JUMPI DUP1 PUSH4 0xF6DE0BD2 EQ PUSH2 0x2AE JUMPI PUSH2 0xFE JUMP JUMPDEST DUP1 PUSH4 0xB7B55A8A EQ PUSH2 0x1F0 JUMPI DUP1 PUSH4 0xBFEC5AB4 EQ PUSH2 0x20E JUMPI DUP1 PUSH4 0xC687FFD9 EQ PUSH2 0x22C JUMPI DUP1 PUSH4 0xCA18D242 EQ PUSH2 0x24A JUMPI PUSH2 0xFE JUMP JUMPDEST DUP1 PUSH4 0x7215B0BF GT PUSH2 0xD1 JUMPI DUP1 PUSH4 0x7215B0BF EQ PUSH2 0x18C JUMPI DUP1 PUSH4 0x79ED9D30 EQ PUSH2 0x1AA JUMPI DUP1 PUSH4 0x904871B0 EQ PUSH2 0x1C8 JUMPI DUP1 PUSH4 0xA3673B38 EQ PUSH2 0x1D2 JUMPI PUSH2 0xFE JUMP JUMPDEST DUP1 PUSH4 0x2FA9109E EQ PUSH2 0x102 JUMPI DUP1 PUSH4 0x3F47E662 EQ PUSH2 0x120 JUMPI DUP1 PUSH4 0x4BCA044E EQ PUSH2 0x150 JUMPI DUP1 PUSH4 0x4F1B8162 EQ PUSH2 0x16E JUMPI JUMPDEST PUSH0 PUSH0 REVERT JUMPDEST PUSH2 0x10A PUSH2 0x2CC JUMP JUMPDEST PUSH1 0x40 MLOAD PUSH2 0x117 SWAP2 SWAP1 PUSH2 0xAA4 JUMP JUMPDEST PUSH1 0x40 MLOAD DUP1 SWAP2 SUB SWAP1 RETURN JUMPDEST PUSH2 0x13A PUSH1 0x4 DUP1 CALLDATASIZE SUB DUP2 ADD SWAP1 PUSH2 0x135 SWAP2 SWAP1 PUSH2 0xAF8 JUMP JUMPDEST PUSH2 0x2D2 JUMP JUMPDEST PUSH1 0x40 MLOAD PUSH2 0x147 SWAP2 SWAP1 PUSH2 0xB3E JUMP JUMPDEST PUSH1 0x40 MLOAD DUP1 SWAP2 SUB SWAP1 RETURN JUMPDEST PUSH2 0x158 PUSH2 0x303 JUMP JUMPDEST PUSH1 0x40 MLOAD PUSH2 0x165 SWAP2 SWAP1 PUSH2 0xAA4 JUMP JUMPDEST PUSH1 0x40 MLOAD DUP1 SWAP2 SUB SWAP1 RETURN JUMPDEST PUSH2 0x176 PUSH2 0x309 JUMP JUMPDEST PUSH1 0x40 MLOAD PUSH2 0x183 SWAP2 SWAP1 PUSH2 0xAA4 JUMP JUMPDEST PUSH1 0x40 MLOAD DUP1 SWAP2 SUB SWAP1 RETURN JUMPDEST PUSH2 0x194 PUSH2 0x30F JUMP JUMPDEST PUSH1 0x40 MLOAD PUSH2 0x1A1 SWAP2 SWAP1 PUSH2 0xAA4 JUMP JUMPDEST PUSH1 0x40 MLOAD DUP1 SWAP2 SUB SWAP1 RETURN JUMPDEST PUSH2 0x1B2 PUSH2 0x333 JUMP JUMPDEST PUSH1 0x40 MLOAD PUSH2 0x1BF SWAP2 SWAP1 PUSH2 0xAA4 JUMP JUMPDEST PUSH1 0x40 MLOAD DUP1 SWAP2 SUB SWAP1 RETURN JUMPDEST PUSH2 0x1D0 PUSH2 0x339 JUMP JUMPDEST STOP JUMPDEST PUSH2 0x1DA PUSH2 0x3E1 JUMP JUMPDEST PUSH1 0x40 MLOAD PUSH2 0x1E7 SWAP2 SWAP1 PUSH2 0xAA4 JUMP JUMPDEST PUSH1 0x40 MLOAD DUP1 SWAP2 SUB SWAP1 RETURN JUMPDEST PUSH2 0x1F8 PUSH2 0x3E7 JUMP JUMPDEST PUSH1 0x40 MLOAD PUSH2 0x205 SWAP2 SWAP1 PUSH2 0xAA4 JUMP JUMPDEST PUSH1 0x40 MLOAD DUP1 SWAP2 SUB SWAP1 RETURN JUMPDEST PUSH2 0x216 PUSH2 0x3ED JUMP JUMPDEST PUSH1 0x40 MLOAD PUSH2 0x223 SWAP2 SWAP1 PUSH2 0xB71 JUMP JUMPDEST PUSH1 0x40 MLOAD DUP1 SWAP2 SUB SWAP1 RETURN JUMPDEST PUSH2 0x234 PUSH2 0x3FF JUMP JUMPDEST PUSH1 0x40 MLOAD PUSH2 0x241 SWAP2 SWAP1 PUSH2 0xAA4 JUMP JUMPDEST PUSH1 0x40 MLOAD DUP1 SWAP2 SUB SWAP1 RETURN JUMPDEST PUSH2 0x252 PUSH2 0x492 JUMP JUMPDEST PUSH1 0x40 MLOAD PUSH2 0x25F SWAP2 SWAP1 PUSH2 0xAA4 JUMP JUMPDEST PUSH1 0x40 MLOAD DUP1 SWAP2 SUB SWAP1 RETURN JUMPDEST PUSH2 0x270 PUSH2 0x498 JUMP JUMPDEST PUSH1 0x40 MLOAD PUSH2 0x27D SWAP2 SWAP1 PUSH2 0xB71 JUMP JUMPDEST PUSH1 0x40 MLOAD DUP1 SWAP2 SUB SWAP1 RETURN JUMPDEST PUSH2 0x28E PUSH2 0x55E JUMP JUMPDEST STOP JUMPDEST PUSH2 0x298 PUSH2 0x9A5 JUMP JUMPDEST PUSH1 0x40 MLOAD PUSH2 0x2A5 SWAP2 SWAP1 PUSH2 0xC04 JUMP JUMPDEST PUSH1 0x40 MLOAD DUP1 SWAP2 SUB SWAP1 RETURN JUMPDEST PUSH2 0x2B6 PUSH2 0x9C9 JUMP JUMPDEST PUSH1 0x40 MLOAD PUSH2 0x2C3 SWAP2 SWAP1 PUSH2 0xAA4 JUMP JUMPDEST PUSH1 0x40 MLOAD DUP1 SWAP2 SUB SWAP1 RETURN JUMPDEST PUSH1 0x6 SLOAD DUP2 JUMP JUMPDEST PUSH1 0xA DUP2 DUP2 SLOAD DUP2 LT PUSH2 0x2E1 JUMPI PUSH0 DUP1 REVERT JUMPDEST SWAP1 PUSH0 MSTORE PUSH1 0x20 PUSH0 KECCAK256 SWAP1 PUSH1 0x20 SWAP2 DUP3 DUP3 DIV ADD SWAP2 SWAP1 MOD SWAP2 POP SLOAD SWAP1 PUSH2 0x100 EXP SWAP1 DIV PUSH1 0xFF AND DUP2 JUMP JUMPDEST PUSH1 0x7 SLOAD DUP2 JUMP JUMPDEST PUSH1 0x9 SLOAD DUP2 JUMP JUMPDEST PUSH32 0x0 DUP2 JUMP JUMPDEST PUSH1 0x4 SLOAD DUP2 JUMP JUMPDEST PUSH0 PUSH0 SWAP1 SLOAD SWAP1 PUSH2 0x100 EXP SWAP1 DIV PUSH20 0xFFFFFFFFFFFFFFFFFFFFFFFFFFFFFFFFFFFFFFFF AND PUSH20 0xFFFFFFFFFFFFFFFFFFFFFFFFFFFFFFFFFFFFFFFF AND PUSH4 0x9D91348D PUSH1 0x40 MLOAD DUP2 PUSH4 0xFFFFFFFF AND PUSH1 0xE0 SHL DUP2 MSTORE PUSH1 0x4 ADD PUSH0 PUSH1 0x40 MLOAD DUP1 DUP4 SUB DUP2 DUP7 GAS STATICCALL ISZERO DUP1 ISZERO PUSH2 0x3A1 JUMPI RETURNDATASIZE PUSH0 PUSH0 RETURNDATACOPY RETURNDATASIZE PUSH0 REVERT JUMPDEST POP POP POP POP PUSH1 0x40 MLOAD RETURNDATASIZE PUSH0 DUP3 RETURNDATACOPY RETURNDATASIZE PUSH1 0x1F NOT PUSH1 0x1F DUP3 ADD AND DUP3 ADD DUP1 PUSH1 0x40 MSTORE POP DUP2 ADD SWAP1 PUSH2 0x3C9 SWAP2 SWAP1 PUSH2 0xD97 JUMP JUMPDEST PUSH1 0xA SWAP1 DUP1 MLOAD SWAP1 PUSH1 0x20 ADD SWAP1 PUSH2 0x3DE SWAP3 SWAP2 SWAP1 PUSH2 0x9CF JUMP JUMPDEST POP JUMP JUMPDEST PUSH1 0x1 SLOAD DUP2 JUMP JUMPDEST PUSH1 0x8 SLOAD DUP2 JUMP JUMPDEST PUSH1 0x5 PUSH0 SWAP1 SLOAD SWAP1 PUSH2 0x100 EXP SWAP1 DIV PUSH1 0xFF AND DUP2 JUMP JUMPDEST PUSH0 PUSH0 PUSH0 SWAP1 SLOAD SWAP1 PUSH2 0x100 EXP SWAP1 DIV PUSH20 0xFFFFFFFFFFFFFFFFFFFFFFFFFFFFFFFFFFFFFFFF AND PUSH20 0xFFFFFFFFFFFFFFFFFFFFFFFFFFFFFFFFFFFFFFFF AND PUSH4 0xA3D610CC PUSH1 0x40 MLOAD DUP2 PUSH4 0xFFFFFFFF AND PUSH1 0xE0 SHL DUP2 MSTORE PUSH1 0x4 ADD PUSH1 0x20 PUSH1 0x40 MLOAD DUP1 DUP4 SUB DUP2 DUP7 GAS STATICCALL ISZERO DUP1 ISZERO PUSH2 0x469 JUMPI RETURNDATASIZE PUSH0 PUSH0 RETURNDATACOPY RETURNDATASIZE PUSH0 REVERT JUMPDEST POP POP POP POP PUSH1 0x40 MLOAD RETURNDATASIZE PUSH1 0x1F NOT PUSH1 0x1F DUP3 ADD AND DUP3 ADD DUP1 PUSH1 0x40 MSTORE POP DUP2 ADD SWAP1 PUSH2 0x48D SWAP2 SWAP1 PUSH2 0xDF2 JUMP JUMPDEST SWAP1 POP SWAP1 JUMP JUMPDEST PUSH1 0x3 SLOAD DUP2 JUMP JUMPDEST PUSH0 PUSH0 PUSH0 PUSH0 SWAP1 SLOAD SWAP1 PUSH2 0x100 EXP SWAP1 DIV PUSH20 0xFFFFFFFFFFFFFFFFFFFFFFFFFFFFFFFFFFFFFFFF AND PUSH20 0xFFFFFFFFFFFFFFFFFFFFFFFFFFFFFFFFFFFFFFFF AND PUSH4 0xA3D610CC PUSH1 0x40 MLOAD DUP2 PUSH4 0xFFFFFFFF AND PUSH1 0xE0 SHL DUP2 MSTORE PUSH1 0x4 ADD PUSH1 0x20 PUSH1 0x40 MLOAD DUP1 DUP4 SUB DUP2 DUP7 GAS STATICCALL ISZERO DUP1 ISZERO PUSH2 0x503 JUMPI RETURNDATASIZE PUSH0 PUSH0 RETURNDATACOPY RETURNDATASIZE PUSH0 REVERT JUMPDEST POP POP POP POP PUSH1 0x40 MLOAD RETURNDATASIZE PUSH1 0x1F NOT PUSH1 0x1F DUP3 ADD AND DUP3 ADD DUP1 PUSH1 0x40 MSTORE POP DUP2 ADD SWAP1 PUSH2 0x527 SWAP2 SWAP1 PUSH2 0xDF2 JUMP JUMPDEST SWAP1 POP PUSH32 0x0 DUP2 TIMESTAMP PUSH2 0x556 SWAP2 SWAP1 PUSH2 0xE4A JUMP JUMPDEST GT ISZERO SWAP2 POP POP SWAP1 JUMP JUMPDEST PUSH2 0x566 PUSH2 0x498 JUMP JUMPDEST PUSH2 0x65B JUMPI PUSH0 PUSH0 PUSH0 SWAP1 SLOAD SWAP1 PUSH2 0x100 EXP SWAP1 DIV PUSH20 0xFFFFFFFFFFFFFFFFFFFFFFFFFFFFFFFFFFFFFFFF AND PUSH20 0xFFFFFFFFFFFFFFFFFFFFFFFFFFFFFFFFFFFFFFFF AND PUSH4 0xA3D610CC PUSH1 0x40 MLOAD DUP2 PUSH4 0xFFFFFFFF AND PUSH1 0xE0 SHL DUP2 MSTORE PUSH1 0x4 ADD PUSH1 0x20 PUSH1 0x40 MLOAD DUP1 DUP4 SUB DUP2 DUP7 GAS STATICCALL ISZERO DUP1 ISZERO PUSH2 0x5D4 JUMPI RETURNDATASIZE PUSH0 PUSH0 RETURNDATACOPY RETURNDATASIZE PUSH0 REVERT JUMPDEST POP POP POP POP PUSH1 0x40 MLOAD RETURNDATASIZE PUSH1 0x1F NOT PUSH1 0x1F DUP3 ADD AND DUP3 ADD DUP1 PUSH1 0x40 MSTORE POP DUP2 ADD SWAP1 PUSH2 0x5F8 SWAP2 SWAP1 PUSH2 0xDF2 JUMP JUMPDEST SWAP1 POP DUP1 TIMESTAMP PUSH32 0x0 PUSH1 0x40 MLOAD PUSH32 0x14BE3A0500000000000000000000000000000000000000000000000000000000 DUP2 MSTORE PUSH1 0x4 ADD PUSH2 0x652 SWAP4 SWAP3 SWAP2 SWAP1 PUSH2 0xE7D JUMP JUMPDEST PUSH1 0x40 MLOAD DUP1 SWAP2 SUB SWAP1 REVERT JUMPDEST PUSH0 PUSH1 0xA DUP1 SLOAD SWAP1 POP SUB PUSH2 0x70E JUMPI PUSH0 PUSH0 SWAP1 SLOAD SWAP1 PUSH2 0x100 EXP SWAP1 DIV PUSH20 0xFFFFFFFFFFFFFFFFFFFFFFFFFFFFFFFFFFFFFFFF AND PUSH20 0xFFFFFFFFFFFFFFFFFFFFFFFFFFFFFFFFFFFFFFFF AND PUSH4 0x9D91348D PUSH1 0x40 MLOAD DUP2 PUSH4 0xFFFFFFFF AND PUSH1 0xE0 SHL DUP2 MSTORE PUSH1 0x4 ADD PUSH0 PUSH1 0x40 MLOAD DUP1 DUP4 SUB DUP2 DUP7 GAS STATICCALL ISZERO DUP1 ISZERO PUSH2 0x6CF JUMPI RETURNDATASIZE PUSH0 PUSH0 RETURNDATACOPY RETURNDATASIZE PUSH0 REVERT JUMPDEST POP POP POP POP PUSH1 0x40 MLOAD RETURNDATASIZE PUSH0 DUP3 RETURNDATACOPY RETURNDATASIZE PUSH1 0x1F NOT PUSH1 0x1F DUP3 ADD AND DUP3 ADD DUP1 PUSH1 0x40 MSTORE POP DUP2 ADD SWAP1 PUSH2 0x6F7 SWAP2 SWAP1 PUSH2 0xD97 JUMP JUMPDEST PUSH1 0xA SWAP1 DUP1 MLOAD SWAP1 PUSH1 0x20 ADD SWAP1 PUSH2 0x70C SWAP3 SWAP2 SWAP1 PUSH2 0x9CF JUMP JUMPDEST POP JUMPDEST PUSH1 0x4 PUSH1 0xA DUP1 SLOAD SWAP1 POP LT ISZERO PUSH2 0x761 JUMPI PUSH1 0x4 PUSH1 0xA DUP1 SLOAD SWAP1 POP PUSH1 0x40 MLOAD PUSH32 0x73A39D2500000000000000000000000000000000000000000000000000000000 DUP2 MSTORE PUSH1 0x4 ADD PUSH2 0x758 SWAP3 SWAP2 SWAP1 PUSH2 0xEEB JUMP JUMPDEST PUSH1 0x40 MLOAD DUP1 SWAP2 SUB SWAP1 REVERT JUMPDEST PUSH0 PUSH0 PUSH0 SWAP1 SLOAD SWAP1 PUSH2 0x100 EXP SWAP1 DIV PUSH20 0xFFFFFFFFFFFFFFFFFFFFFFFFFFFFFFFFFFFFFFFF AND PUSH20 0xFFFFFFFFFFFFFFFFFFFFFFFFFFFFFFFFFFFFFFFF AND PUSH4 0x9198274F PUSH1 0x40 MLOAD DUP2 PUSH4 0xFFFFFFFF AND PUSH1 0xE0 SHL DUP2 MSTORE PUSH1 0x4 ADD PUSH0 PUSH1 0x40 MLOAD DUP1 DUP4 SUB DUP2 DUP7 GAS STATICCALL ISZERO DUP1 ISZERO PUSH2 0x7CA JUMPI RETURNDATASIZE PUSH0 PUSH0 RETURNDATACOPY RETURNDATASIZE PUSH0 REVERT JUMPDEST POP POP POP POP PUSH1 0x40 MLOAD RETURNDATASIZE PUSH0 DUP3 RETURNDATACOPY RETURNDATASIZE PUSH1 0x1F NOT PUSH1 0x1F DUP3 ADD AND DUP3 ADD DUP1 PUSH1 0x40 MSTORE POP DUP2 ADD SWAP1 PUSH2 0x7F2 SWAP2 SWAP1 PUSH2 0xFC2 JUMP JUMPDEST SWAP1 POP PUSH0 DUP2 DUP1 PUSH1 0x20 ADD SWAP1 MLOAD DUP2 ADD SWAP1 PUSH2 0x809 SWAP2 SWAP1 PUSH2 0x10C0 JUMP JUMPDEST SWAP1 POP DUP1 PUSH0 ADD MLOAD PUSH1 0x6 DUP2 SWAP1 SSTORE POP DUP1 PUSH1 0x20 ADD MLOAD PUSH1 0x7 DUP2 SWAP1 SSTORE POP DUP1 PUSH1 0x40 ADD MLOAD PUSH1 0x8 DUP2 SWAP1 SSTORE POP DUP1 PUSH1 0x60 ADD MLOAD PUSH1 0x9 DUP2 SWAP1 SSTORE POP DUP1 PUSH1 0x80 ADD MLOAD PUSH1 0x5 PUSH0 PUSH2 0x100 EXP DUP2 SLOAD DUP2 PUSH1 0xFF MUL NOT AND SWAP1 DUP4 ISZERO ISZERO MUL OR SWAP1 SSTORE POP PUSH1 0xA PUSH0 DUP2 SLOAD DUP2 LT PUSH2 0x867 JUMPI PUSH2 0x866 PUSH2 0x10EB JUMP JUMPDEST JUMPDEST SWAP1 PUSH0 MSTORE PUSH1 0x20 PUSH0 KECCAK256 SWAP1 PUSH1 0x20 SWAP2 DUP3 DUP3 DIV ADD SWAP2 SWAP1 MOD SWAP1 SLOAD SWAP1 PUSH2 0x100 EXP SWAP1 DIV PUSH1 0xFF AND PUSH1 0xA PUSH2 0x891 SWAP2 SWAP1 PUSH2 0x1247 JUMP JUMPDEST DUP2 PUSH0 ADD MLOAD PUSH2 0x89F SWAP2 SWAP1 PUSH2 0x12BE JUMP JUMPDEST PUSH1 0x1 DUP2 SWAP1 SSTORE POP PUSH1 0xA PUSH1 0x1 DUP2 SLOAD DUP2 LT PUSH2 0x8BA JUMPI PUSH2 0x8B9 PUSH2 0x10EB JUMP JUMPDEST JUMPDEST SWAP1 PUSH0 MSTORE PUSH1 0x20 PUSH0 KECCAK256 SWAP1 PUSH1 0x20 SWAP2 DUP3 DUP3 DIV ADD SWAP2 SWAP1 MOD SWAP1 SLOAD SWAP1 PUSH2 0x100 EXP SWAP1 DIV PUSH1 0xFF AND PUSH1 0xA PUSH2 0x8E4 SWAP2 SWAP1 PUSH2 0x1247 JUMP JUMPDEST DUP2 PUSH1 0x20 ADD MLOAD PUSH2 0x8F3 SWAP2 SWAP1 PUSH2 0x12BE JUMP JUMPDEST PUSH1 0x2 DUP2 SWAP1 SSTORE POP PUSH1 0xA PUSH1 0x2 DUP2 SLOAD DUP2 LT PUSH2 0x90E JUMPI PUSH2 0x90D PUSH2 0x10EB JUMP JUMPDEST JUMPDEST SWAP1 PUSH0 MSTORE PUSH1 0x20 PUSH0 KECCAK256 SWAP1 PUSH1 0x20 SWAP2 DUP3 DUP3 DIV ADD SWAP2 SWAP1 MOD SWAP1 SLOAD SWAP1 PUSH2 0x100 EXP SWAP1 DIV PUSH1 0xFF AND PUSH1 0xA PUSH2 0x938 SWAP2 SWAP1 PUSH2 0x1247 JUMP JUMPDEST DUP2 PUSH1 0x40 ADD MLOAD PUSH2 0x947 SWAP2 SWAP1 PUSH2 0x12BE JUMP JUMPDEST PUSH1 0x3 DUP2 SWAP1 SSTORE POP PUSH1 0xA PUSH1 0x3 DUP2 SLOAD DUP2 LT PUSH2 0x962 JUMPI PUSH2 0x961 PUSH2 0x10EB JUMP JUMPDEST JUMPDEST SWAP1 PUSH0 MSTORE PUSH1 0x20 PUSH0 KECCAK256 SWAP1 PUSH1 0x20 SWAP2 DUP3 DUP3 DIV ADD SWAP2 SWAP1 MOD SWAP1 SLOAD SWAP1 PUSH2 0x100 EXP SWAP1 DIV PUSH1 0xFF AND PUSH1 0xA PUSH2 0x98C SWAP2 SWAP1 PUSH2 0x1247 JUMP JUMPDEST DUP2 PUSH1 0x60 ADD MLOAD PUSH2 0x99B SWAP2 SWAP1 PUSH2 0x12BE JUMP JUMPDEST PUSH1 0x4 DUP2 SWAP1 SSTORE POP POP POP JUMP JUMPDEST PUSH0 PUSH0 SWAP1 SLOAD SWAP1 PUSH2 0x100 EXP SWAP1 DIV PUSH20 0xFFFFFFFFFFFFFFFFFFFFFFFFFFFFFFFFFFFFFFFF AND DUP2 JUMP JUMPDEST PUSH1 0x2 SLOAD DUP2 JUMP JUMPDEST DUP3 DUP1 SLOAD DUP3 DUP3 SSTORE SWAP1 PUSH0 MSTORE PUSH1 0x20 PUSH0 KECCAK256 SWAP1 PUSH1 0x1F ADD PUSH1 0x20 SWAP1 DIV DUP2 ADD SWAP3 DUP3 ISZERO PUSH2 0xA60 JUMPI SWAP2 PUSH1 0x20 MUL DUP3 ADD PUSH0 JUMPDEST DUP4 DUP3 GT ISZERO PUSH2 0xA32 JUMPI DUP4 MLOAD DUP4 DUP3 PUSH2 0x100 EXP DUP2 SLOAD DUP2 PUSH1 0xFF MUL NOT AND SWAP1 DUP4 PUSH1 0xFF AND MUL OR SWAP1 SSTORE POP SWAP3 PUSH1 0x20 ADD SWAP3 PUSH1 0x1 ADD PUSH1 0x20 DUP2 PUSH0 ADD DIV SWAP3 DUP4 ADD SWAP3 PUSH1 0x1 SUB MUL PUSH2 0x9F5 JUMP JUMPDEST DUP1 ISZERO PUSH2 0xA5E JUMPI DUP3 DUP2 PUSH2 0x100 EXP DUP2 SLOAD SWAP1 PUSH1 0xFF MUL NOT AND SWAP1 SSTORE PUSH1 0x1 ADD PUSH1 0x20 DUP2 PUSH0 ADD DIV SWAP3 DUP4 ADD SWAP3 PUSH1 0x1 SUB MUL PUSH2 0xA32 JUMP JUMPDEST POP JUMPDEST POP SWAP1 POP PUSH2 0xA6D SWAP2 SWAP1 PUSH2 0xA71 JUMP JUMPDEST POP SWAP1 JUMP JUMPDEST JUMPDEST DUP1 DUP3 GT ISZERO PUSH2 0xA88 JUMPI PUSH0 DUP2 PUSH0 SWAP1 SSTORE POP PUSH1 0x1 ADD PUSH2 0xA72 JUMP JUMPDEST POP SWAP1 JUMP JUMPDEST PUSH0 DUP2 SWAP1 POP SWAP2 SWAP1 POP JUMP JUMPDEST PUSH2 0xA9E DUP2 PUSH2 0xA8C JUMP JUMPDEST DUP3 MSTORE POP POP JUMP JUMPDEST PUSH0 PUSH1 0x20 DUP3 ADD SWAP1 POP PUSH2 0xAB7 PUSH0 DUP4 ADD DUP5 PUSH2 0xA95 JUMP JUMPDEST SWAP3 SWAP2 POP POP JUMP JUMPDEST PUSH0 PUSH1 0x40 MLOAD SWAP1 POP SWAP1 JUMP JUMPDEST PUSH0 PUSH0 REVERT JUMPDEST PUSH0 PUSH0 REVERT JUMPDEST PUSH2 0xAD7 DUP2 PUSH2 0xA8C JUMP JUMPDEST DUP2 EQ PUSH2 0xAE1 JUMPI PUSH0 PUSH0 REVERT JUMPDEST POP JUMP JUMPDEST PUSH0 DUP2 CALLDATALOAD SWAP1 POP PUSH2 0xAF2 DUP2 PUSH2 0xACE JUMP JUMPDEST SWAP3 SWAP2 POP POP JUMP JUMPDEST PUSH0 PUSH1 0x20 DUP3 DUP5 SUB SLT ISZERO PUSH2 0xB0D JUMPI PUSH2 0xB0C PUSH2 0xAC6 JUMP JUMPDEST JUMPDEST PUSH0 PUSH2 0xB1A DUP5 DUP3 DUP6 ADD PUSH2 0xAE4 JUMP JUMPDEST SWAP2 POP POP SWAP3 SWAP2 POP POP JUMP JUMPDEST PUSH0 PUSH1 0xFF DUP3 AND SWAP1 POP SWAP2 SWAP1 POP JUMP JUMPDEST PUSH2 0xB38 DUP2 PUSH2 0xB23 JUMP JUMPDEST DUP3 MSTORE POP POP JUMP JUMPDEST PUSH0 PUSH1 0x20 DUP3 ADD SWAP1 POP PUSH2 0xB51 PUSH0 DUP4 ADD DUP5 PUSH2 0xB2F JUMP JUMPDEST SWAP3 SWAP2 POP POP JUMP JUMPDEST PUSH0 DUP2 ISZERO ISZERO SWAP1 POP SWAP2 SWAP1 POP JUMP JUMPDEST PUSH2 0xB6B DUP2 PUSH2 0xB57 JUMP JUMPDEST DUP3 MSTORE POP POP JUMP JUMPDEST PUSH0 PUSH1 0x20 DUP3 ADD SWAP1 POP PUSH2 0xB84 PUSH0 DUP4 ADD DUP5 PUSH2 0xB62 JUMP JUMPDEST SWAP3 SWAP2 POP POP JUMP JUMPDEST PUSH0 PUSH20 0xFFFFFFFFFFFFFFFFFFFFFFFFFFFFFFFFFFFFFFFF DUP3 AND SWAP1 POP SWAP2 SWAP1 POP JUMP JUMPDEST PUSH0 DUP2 SWAP1 POP SWAP2 SWAP1 POP JUMP JUMPDEST PUSH0 PUSH2 0xBCC PUSH2 0xBC7 PUSH2 0xBC2 DUP5 PUSH2 0xB8A JUMP JUMPDEST PUSH2 0xBA9 JUMP JUMPDEST PUSH2 0xB8A JUMP JUMPDEST SWAP1 POP SWAP2 SWAP1 POP JUMP JUMPDEST PUSH0 PUSH2 0xBDD DUP3 PUSH2 0xBB2 JUMP JUMPDEST SWAP1 POP SWAP2 SWAP1 POP JUMP JUMPDEST PUSH0 PUSH2 0xBEE DUP3 PUSH2 0xBD3 JUMP JUMPDEST SWAP1 POP SWAP2 SWAP1 POP JUMP JUMPDEST PUSH2 0xBFE DUP2 PUSH2 0xBE4 JUMP JUMPDEST DUP3 MSTORE POP POP JUMP JUMPDEST PUSH0 PUSH1 0x20 DUP3 ADD SWAP1 POP PUSH2 0xC17 PUSH0 DUP4 ADD DUP5 PUSH2 0xBF5 JUMP JUMPDEST SWAP3 SWAP2 POP POP JUMP JUMPDEST PUSH0 PUSH0 REVERT JUMPDEST PUSH0 PUSH1 0x1F NOT PUSH1 0x1F DUP4 ADD AND SWAP1 POP SWAP2 SWAP1 POP JUMP JUMPDEST PUSH32 0x4E487B7100000000000000000000000000000000000000000000000000000000 PUSH0 MSTORE PUSH1 0x41 PUSH1 0x4 MSTORE PUSH1 0x24 PUSH0 REVERT JUMPDEST PUSH2 0xC67 DUP3 PUSH2 0xC21 JUMP JUMPDEST DUP2 ADD DUP2 DUP2 LT PUSH8 0xFFFFFFFFFFFFFFFF DUP3 GT OR ISZERO PUSH2 0xC86 JUMPI PUSH2 0xC85 PUSH2 0xC31 JUMP JUMPDEST JUMPDEST DUP1 PUSH1 0x40 MSTORE POP POP POP JUMP JUMPDEST PUSH0 PUSH2 0xC98 PUSH2 0xABD JUMP JUMPDEST SWAP1 POP PUSH2 0xCA4 DUP3 DUP3 PUSH2 0xC5E JUMP JUMPDEST SWAP2 SWAP1 POP JUMP JUMPDEST PUSH0 PUSH8 0xFFFFFFFFFFFFFFFF DUP3 GT ISZERO PUSH2 0xCC3 JUMPI PUSH2 0xCC2 PUSH2 0xC31 JUMP JUMPDEST JUMPDEST PUSH1 0x20 DUP3 MUL SWAP1 POP PUSH1 0x20 DUP2 ADD SWAP1 POP SWAP2 SWAP1 POP JUMP JUMPDEST PUSH0 PUSH0 REVERT JUMPDEST PUSH2 0xCE1 DUP2 PUSH2 0xB23 JUMP JUMPDEST DUP2 EQ PUSH2 0xCEB JUMPI PUSH0 PUSH0 REVERT JUMPDEST POP JUMP JUMPDEST PUSH0 DUP2 MLOAD SWAP1 POP PUSH2 0xCFC DUP2 PUSH2 0xCD8 JUMP JUMPDEST SWAP3 SWAP2 POP POP JUMP JUMPDEST PUSH0 PUSH2 0xD14 PUSH2 0xD0F DUP5 PUSH2 0xCA9 JUMP JUMPDEST PUSH2 0xC8F JUMP JUMPDEST SWAP1 POP DUP1 DUP4 DUP3 MSTORE PUSH1 0x20 DUP3 ADD SWAP1 POP PUSH1 0x20 DUP5 MUL DUP4 ADD DUP6 DUP2 GT ISZERO PUSH2 0xD37 JUMPI PUSH2 0xD36 PUSH2 0xCD4 JUMP JUMPDEST JUMPDEST DUP4 JUMPDEST DUP2 DUP2 LT ISZERO PUSH2 0xD60 JUMPI DUP1 PUSH2 0xD4C DUP9 DUP3 PUSH2 0xCEE JUMP JUMPDEST DUP5 MSTORE PUSH1 0x20 DUP5 ADD SWAP4 POP POP PUSH1 0x20 DUP2 ADD SWAP1 POP PUSH2 0xD39 JUMP JUMPDEST POP POP POP SWAP4 SWAP3 POP POP POP JUMP JUMPDEST PUSH0 DUP3 PUSH1 0x1F DUP4 ADD SLT PUSH2 0xD7E JUMPI PUSH2 0xD7D PUSH2 0xC1D JUMP JUMPDEST JUMPDEST DUP2 MLOAD PUSH2 0xD8E DUP5 DUP3 PUSH1 0x20 DUP7 ADD PUSH2 0xD02 JUMP JUMPDEST SWAP2 POP POP SWAP3 SWAP2 POP POP JUMP JUMPDEST PUSH0 PUSH1 0x20 DUP3 DUP5 SUB SLT ISZERO PUSH2 0xDAC JUMPI PUSH2 0xDAB PUSH2 0xAC6 JUMP JUMPDEST JUMPDEST PUSH0 DUP3 ADD MLOAD PUSH8 0xFFFFFFFFFFFFFFFF DUP2 GT ISZERO PUSH2 0xDC9 JUMPI PUSH2 0xDC8 PUSH2 0xACA JUMP JUMPDEST JUMPDEST PUSH2 0xDD5 DUP5 DUP3 DUP6 ADD PUSH2 0xD6A JUMP JUMPDEST SWAP2 POP POP SWAP3 SWAP2 POP POP JUMP JUMPDEST PUSH0 DUP2 MLOAD SWAP1 POP PUSH2 0xDEC DUP2 PUSH2 0xACE JUMP JUMPDEST SWAP3 SWAP2 POP POP JUMP JUMPDEST PUSH0 PUSH1 0x20 DUP3 DUP5 SUB SLT ISZERO PUSH2 0xE07 JUMPI PUSH2 0xE06 PUSH2 0xAC6 JUMP JUMPDEST JUMPDEST PUSH0 PUSH2 0xE14 DUP5 DUP3 DUP6 ADD PUSH2 0xDDE JUMP JUMPDEST SWAP2 POP POP SWAP3 SWAP2 POP POP JUMP JUMPDEST PUSH32 0x4E487B7100000000000000000000000000000000000000000000000000000000 PUSH0 MSTORE PUSH1 0x11 PUSH1 0x4 MSTORE PUSH1 0x24 PUSH0 REVERT JUMPDEST PUSH0 PUSH2 0xE54 DUP3 PUSH2 0xA8C JUMP JUMPDEST SWAP2 POP PUSH2 0xE5F DUP4 PUSH2 0xA8C JUMP JUMPDEST SWAP3 POP DUP3 DUP3 SUB SWAP1 POP DUP2 DUP2 GT ISZERO PUSH2 0xE77 JUMPI PUSH2 0xE76 PUSH2 0xE1D JUMP JUMPDEST JUMPDEST SWAP3 SWAP2 POP POP JUMP JUMPDEST PUSH0 PUSH1 0x60 DUP3 ADD SWAP1 POP PUSH2 0xE90 PUSH0 DUP4 ADD DUP7 PUSH2 0xA95 JUMP JUMPDEST PUSH2 0xE9D PUSH1 0x20 DUP4 ADD DUP6 PUSH2 0xA95 JUMP JUMPDEST PUSH2 0xEAA PUSH1 0x40 DUP4 ADD DUP5 PUSH2 0xA95 JUMP JUMPDEST SWAP5 SWAP4 POP POP POP POP JUMP JUMPDEST PUSH0 DUP2 SWAP1 POP SWAP2 SWAP1 POP JUMP JUMPDEST PUSH0 PUSH2 0xED5 PUSH2 0xED0 PUSH2 0xECB DUP5 PUSH2 0xEB2 JUMP JUMPDEST PUSH2 0xBA9 JUMP JUMPDEST PUSH2 0xA8C JUMP JUMPDEST SWAP1 POP SWAP2 SWAP1 POP JUMP JUMPDEST PUSH2 0xEE5 DUP2 PUSH2 0xEBB JUMP JUMPDEST DUP3 MSTORE POP POP JUMP JUMPDEST PUSH0 PUSH1 0x40 DUP3 ADD SWAP1 POP PUSH2 0xEFE PUSH0 DUP4 ADD DUP6 PUSH2 0xEDC JUMP JUMPDEST PUSH2 0xF0B PUSH1 0x20 DUP4 ADD DUP5 PUSH2 0xA95 JUMP JUMPDEST SWAP4 SWAP3 POP POP POP JUMP JUMPDEST PUSH0 PUSH0 REVERT JUMPDEST PUSH0 PUSH8 0xFFFFFFFFFFFFFFFF DUP3 GT ISZERO PUSH2 0xF30 JUMPI PUSH2 0xF2F PUSH2 0xC31 JUMP JUMPDEST JUMPDEST PUSH2 0xF39 DUP3 PUSH2 0xC21 JUMP JUMPDEST SWAP1 POP PUSH1 0x20 DUP2 ADD SWAP1 POP SWAP2 SWAP1 POP JUMP JUMPDEST DUP3 DUP2 DUP4 MCOPY PUSH0 DUP4 DUP4 ADD MSTORE POP POP POP JUMP JUMPDEST PUSH0 PUSH2 0xF66 PUSH2 0xF61 DUP5 PUSH2 0xF16 JUMP JUMPDEST PUSH2 0xC8F JUMP JUMPDEST SWAP1 POP DUP3 DUP2 MSTORE PUSH1 0x20 DUP2 ADD DUP5 DUP5 DUP5 ADD GT ISZERO PUSH2 0xF82 JUMPI PUSH2 0xF81 PUSH2 0xF12 JUMP JUMPDEST JUMPDEST PUSH2 0xF8D DUP5 DUP3 DUP6 PUSH2 0xF46 JUMP JUMPDEST POP SWAP4 SWAP3 POP POP POP JUMP JUMPDEST PUSH0 DUP3 PUSH1 0x1F DUP4 ADD SLT PUSH2 0xFA9 JUMPI PUSH2 0xFA8 PUSH2 0xC1D JUMP JUMPDEST JUMPDEST DUP2 MLOAD PUSH2 0xFB9 DUP5 DUP3 PUSH1 0x20 DUP7 ADD PUSH2 0xF54 JUMP JUMPDEST SWAP2 POP POP SWAP3 SWAP2 POP POP JUMP JUMPDEST PUSH0 PUSH1 0x20 DUP3 DUP5 SUB SLT ISZERO PUSH2 0xFD7 JUMPI PUSH2 0xFD6 PUSH2 0xAC6 JUMP JUMPDEST JUMPDEST PUSH0 DUP3 ADD MLOAD PUSH8 0xFFFFFFFFFFFFFFFF DUP2 GT ISZERO PUSH2 0xFF4 JUMPI PUSH2 0xFF3 PUSH2 0xACA JUMP JUMPDEST JUMPDEST PUSH2 0x1000 DUP5 DUP3 DUP6 ADD PUSH2 0xF95 JUMP JUMPDEST SWAP2 POP POP SWAP3 SWAP2 POP POP JUMP JUMPDEST PUSH0 PUSH0 REVERT JUMPDEST PUSH2 0x1016 DUP2 PUSH2 0xB57 JUMP JUMPDEST DUP2 EQ PUSH2 0x1020 JUMPI PUSH0 PUSH0 REVERT JUMPDEST POP JUMP JUMPDEST PUSH0 DUP2 MLOAD SWAP1 POP PUSH2 0x1031 DUP2 PUSH2 0x100D JUMP JUMPDEST SWAP3 SWAP2 POP POP JUMP JUMPDEST PUSH0 PUSH1 0xA0 DUP3 DUP5 SUB SLT ISZERO PUSH2 0x104C JUMPI PUSH2 0x104B PUSH2 0x1009 JUMP JUMPDEST JUMPDEST PUSH2 0x1056 PUSH1 0xA0 PUSH2 0xC8F JUMP JUMPDEST SWAP1 POP PUSH0 PUSH2 0x1065 DUP5 DUP3 DUP6 ADD PUSH2 0xDDE JUMP JUMPDEST PUSH0 DUP4 ADD MSTORE POP PUSH1 0x20 PUSH2 0x1078 DUP5 DUP3 DUP6 ADD PUSH2 0xDDE JUMP JUMPDEST PUSH1 0x20 DUP4 ADD MSTORE POP PUSH1 0x40 PUSH2 0x108C DUP5 DUP3 DUP6 ADD PUSH2 0xDDE JUMP JUMPDEST PUSH1 0x40 DUP4 ADD MSTORE POP PUSH1 0x60 PUSH2 0x10A0 DUP5 DUP3 DUP6 ADD PUSH2 0xDDE JUMP JUMPDEST PUSH1 0x60 DUP4 ADD MSTORE POP PUSH1 0x80 PUSH2 0x10B4 DUP5 DUP3 DUP6 ADD PUSH2 0x1023 JUMP JUMPDEST PUSH1 0x80 DUP4 ADD MSTORE POP SWAP3 SWAP2 POP POP JUMP JUMPDEST PUSH0 PUSH1 0xA0 DUP3 DUP5 SUB SLT ISZERO PUSH2 0x10D5 JUMPI PUSH2 0x10D4 PUSH2 0xAC6 JUMP JUMPDEST JUMPDEST PUSH0 PUSH2 0x10E2 DUP5 DUP3 DUP6 ADD PUSH2 0x1037 JUMP JUMPDEST SWAP2 POP POP SWAP3 SWAP2 POP POP JUMP JUMPDEST PUSH32 0x4E487B7100000000000000000000000000000000000000000000000000000000 PUSH0 MSTORE PUSH1 0x32 PUSH1 0x4 MSTORE PUSH1 0x24 PUSH0 REVERT JUMPDEST PUSH0 DUP2 PUSH1 0x1 SHR SWAP1 POP SWAP2 SWAP1 POP JUMP JUMPDEST PUSH0 PUSH0 DUP3 SWAP2 POP DUP4 SWAP1 POP JUMPDEST PUSH1 0x1 DUP6 GT ISZERO PUSH2 0x116D JUMPI DUP1 DUP7 DIV DUP2 GT ISZERO PUSH2 0x1149 JUMPI PUSH2 0x1148 PUSH2 0xE1D JUMP JUMPDEST JUMPDEST PUSH1 0x1 DUP6 AND ISZERO PUSH2 0x1158 JUMPI DUP1 DUP3 MUL SWAP2 POP JUMPDEST DUP1 DUP2 MUL SWAP1 POP PUSH2 0x1166 DUP6 PUSH2 0x1118 JUMP JUMPDEST SWAP5 POP PUSH2 0x112D JUMP JUMPDEST SWAP5 POP SWAP5 SWAP3 POP POP POP JUMP JUMPDEST PUSH0 DUP3 PUSH2 0x1185 JUMPI PUSH1 0x1 SWAP1 POP PUSH2 0x1240 JUMP JUMPDEST DUP2 PUSH2 0x1192 JUMPI PUSH0 SWAP1 POP PUSH2 0x1240 JUMP JUMPDEST DUP2 PUSH1 0x1 DUP2 EQ PUSH2 0x11A8 JUMPI PUSH1 0x2 DUP2 EQ PUSH2 0x11B2 JUMPI PUSH2 0x11E1 JUMP JUMPDEST PUSH1 0x1 SWAP2 POP POP PUSH2 0x1240 JUMP JUMPDEST PUSH1 0xFF DUP5 GT ISZERO PUSH2 0x11C4 JUMPI PUSH2 0x11C3 PUSH2 0xE1D JUMP JUMPDEST JUMPDEST DUP4 PUSH1 0x2 EXP SWAP2 POP DUP5 DUP3 GT ISZERO PUSH2 0x11DB JUMPI PUSH2 0x11DA PUSH2 0xE1D JUMP JUMPDEST JUMPDEST POP PUSH2 0x1240 JUMP JUMPDEST POP PUSH1 0x20 DUP4 LT PUSH2 0x133 DUP4 LT AND PUSH1 0x4E DUP5 LT PUSH1 0xB DUP5 LT AND OR ISZERO PUSH2 0x1216 JUMPI DUP3 DUP3 EXP SWAP1 POP DUP4 DUP2 GT ISZERO PUSH2 0x1211 JUMPI PUSH2 0x1210 PUSH2 0xE1D JUMP JUMPDEST JUMPDEST PUSH2 0x1240 JUMP JUMPDEST PUSH2 0x1223 DUP5 DUP5 DUP5 PUSH1 0x1 PUSH2 0x1124 JUMP JUMPDEST SWAP3 POP SWAP1 POP DUP2 DUP5 DIV DUP2 GT ISZERO PUSH2 0x123A JUMPI PUSH2 0x1239 PUSH2 0xE1D JUMP JUMPDEST JUMPDEST DUP2 DUP2 MUL SWAP1 POP JUMPDEST SWAP4 SWAP3 POP POP POP JUMP JUMPDEST PUSH0 PUSH2 0x1251 DUP3 PUSH2 0xA8C JUMP JUMPDEST SWAP2 POP PUSH2 0x125C DUP4 PUSH2 0xB23 JUMP JUMPDEST SWAP3 POP PUSH2 0x1289 PUSH32 0xFFFFFFFFFFFFFFFFFFFFFFFFFFFFFFFFFFFFFFFFFFFFFFFFFFFFFFFFFFFFFFFF DUP5 DUP5 PUSH2 0x1176 JUMP JUMPDEST SWAP1 POP SWAP3 SWAP2 POP POP JUMP JUMPDEST PUSH32 0x4E487B7100000000000000000000000000000000000000000000000000000000 PUSH0 MSTORE PUSH1 0x12 PUSH1 0x4 MSTORE PUSH1 0x24 PUSH0 REVERT JUMPDEST PUSH0 PUSH2 0x12C8 DUP3 PUSH2 0xA8C JUMP JUMPDEST SWAP2 POP PUSH2 0x12D3 DUP4 PUSH2 0xA8C JUMP JUMPDEST SWAP3 POP DUP3 PUSH2 0x12E3 JUMPI PUSH2 0x12E2 PUSH2 0x1291 JUMP JUMPDEST JUMPDEST DUP3 DUP3 DIV SWAP1 POP SWAP3 SWAP2 POP POP JUMP INVALID LOG2 PUSH5 0x6970667358 0x22 SLT KECCAK256 MULMOD 0xBB MSIZE 0x27 DUP10 PUSH21 0xA938321005AEBC5F1C6997035279084617813DC69B 0xA6 DUP5 STATICCALL 0xDD PREVRANDAO PUSH5 0x736F6C6343 STOP ADDMOD 0x1E STOP CALLER "
		},
		"gasEstimates": {
			"creation": {
				"codeDepositCost": "980000",
				"executionCost": "infinite",
				"totalCost": "infinite"
			},
			"external": {
				"STALENESS_THRESHOLD()": "infinite",
				"assetsUnderManagement()": "2513",
				"consumeData()": "infinite",
				"decimals(uint256)": "6577",
				"getLatestBundleTimestamp()": "infinite",
				"isDataFresh()": "infinite",
				"netAssetValue()": "2514",
				"netIncomeExpenses()": "2470",
				"openToNewInvestors()": "2511",
				"outstandingShares()": "2514",
				"rawAssetsUnderManagement()": "2493",
				"rawNetAssetValue()": "2449",
				"rawNetIncomeExpenses()": "2515",
				"rawOutstandingShares()": "2448",
				"s_proxy()": "infinite",
				"storeDecimals()": "infinite"
			}
		},
		"methodIdentifiers": {
			"STALENESS_THRESHOLD()": "7215b0bf",
			"assetsUnderManagement()": "f6de0bd2",
			"consumeData()": "dddf9e79",
			"decimals(uint256)": "3f47e662",
			"getLatestBundleTimestamp()": "c687ffd9",
			"isDataFresh()": "d38988fc",
			"netAssetValue()": "a3673b38",
			"netIncomeExpenses()": "79ed9d30",
			"openToNewInvestors()": "bfec5ab4",
			"outstandingShares()": "ca18d242",
			"rawAssetsUnderManagement()": "4bca044e",
			"rawNetAssetValue()": "2fa9109e",
			"rawNetIncomeExpenses()": "4f1b8162",
			"rawOutstandingShares()": "b7b55a8a",
			"s_proxy()": "e23e2c15",
			"storeDecimals()": "904871b0"
		}
	},
	"abi": [
		{
			"inputs": [
				{
					"internalType": "contract IBundleAggregatorProxy",
					"name": "_proxy",
					"type": "address"
				},
				{
					"internalType": "uint256",
					"name": "_stalenessThreshold",
					"type": "uint256"
				}
			],
			"stateMutability": "nonpayable",
			"type": "constructor"
		},
		{
			"inputs": [
				{
					"internalType": "uint256",
					"name": "expected",
					"type": "uint256"
				},
				{
					"internalType": "uint256",
					"name": "actual",
					"type": "uint256"
				}
			],
			"name": "InsufficientDecimals",
			"type": "error"
		},
		{
			"inputs": [
				{
					"internalType": "uint256",
					"name": "lastUpdateTimestamp",
					"type": "uint256"
				},
				{
					"internalType": "uint256",
					"name": "blockTimestamp",
					"type": "uint256"
				},
				{
					"internalType": "uint256",
					"name": "threshold",
					"type": "uint256"
				}
			],
			"name": "StaleData",
			"type": "error"
		},
		{
			"inputs": [],
			"name": "STALENESS_THRESHOLD",
			"outputs": [
				{
					"internalType": "uint256",
					"name": "",
					"type": "uint256"
				}
			],
			"stateMutability": "view",
			"type": "function"
		},
		{
			"inputs": [],
			"name": "assetsUnderManagement",
			"outputs": [
				{
					"internalType": "uint256",
					"name": "",
					"type": "uint256"
				}
			],
			"stateMutability": "view",
			"type": "function"
		},
		{
			"inputs": [],
			"name": "consumeData",
			"outputs": [],
			"stateMutability": "nonpayable",
			"type": "function"
		},
		{
			"inputs": [
				{
					"internalType": "uint256",
					"name": "",
					"type": "uint256"
				}
			],
			"name": "decimals",
			"outputs": [
				{
					"internalType": "uint8",
					"name": "",
					"type": "uint8"
				}
			],
			"stateMutability": "view",
			"type": "function"
		},
		{
			"inputs": [],
			"name": "getLatestBundleTimestamp",
			"outputs": [
				{
					"internalType": "uint256",
					"name": "",
					"type": "uint256"
				}
			],
			"stateMutability": "view",
			"type": "function"
		},
		{
			"inputs": [],
			"name": "isDataFresh",
			"outputs": [
				{
					"internalType": "bool",
					"name": "",
					"type": "bool"
				}
			],
			"stateMutability": "view",
			"type": "function"
		},
		{
			"inputs": [],
			"name": "netAssetValue",
			"outputs": [
				{
					"internalType": "uint256",
					"name": "",
					"type": "uint256"
				}
			],
			"stateMutability": "view",
			"type": "function"
		},
		{
			"inputs": [],
			"name": "netIncomeExpenses",
			"outputs": [
				{
					"internalType": "uint256",
					"name": "",
					"type": "uint256"
				}
			],
			"stateMutability": "view",
			"type": "function"
		},
		{
			"inputs": [],
			"name": "openToNewInvestors",
			"outputs": [
				{
					"internalType": "bool",
					"name": "",
					"type": "bool"
				}
			],
			"stateMutability": "view",
			"type": "function"
		},
		{
			"inputs": [],
			"name": "outstandingShares",
			"outputs": [
				{
					"internalType": "uint256",
					"name": "",
					"type": "uint256"
				}
			],
			"stateMutability": "view",
			"type": "function"
		},
		{
			"inputs": [],
			"name": "rawAssetsUnderManagement",
			"outputs": [
				{
					"internalType": "uint256",
					"name": "",
					"type": "uint256"
				}
			],
			"stateMutability": "view",
			"type": "function"
		},
		{
			"inputs": [],
			"name": "rawNetAssetValue",
			"outputs": [
				{
					"internalType": "uint256",
					"name": "",
					"type": "uint256"
				}
			],
			"stateMutability": "view",
			"type": "function"
		},
		{
			"inputs": [],
			"name": "rawNetIncomeExpenses",
			"outputs": [
				{
					"internalType": "uint256",
					"name": "",
					"type": "uint256"
				}
			],
			"stateMutability": "view",
			"type": "function"
		},
		{
			"inputs": [],
			"name": "rawOutstandingShares",
			"outputs": [
				{
					"internalType": "uint256",
					"name": "",
					"type": "uint256"
				}
			],
			"stateMutability": "view",
			"type": "function"
		},
		{
			"inputs": [],
			"name": "s_proxy",
			"outputs": [
				{
					"internalType": "contract IBundleAggregatorProxy",
					"name": "",
					"type": "address"
				}
			],
			"stateMutability": "view",
			"type": "function"
		},
		{
			"inputs": [],
			"name": "storeDecimals",
			"outputs": [],
			"stateMutability": "nonpayable",
			"type": "function"
		}
	]
}